:040373008E218F2226
:100377001200157FA01203EB40028011E521FF1246
:1003870003EB40028007AF221203EB4006120492F0
:100397007FEE221200157FA11203EB400612049292
:0D03A7007F00221204198F23120492AF234D
:0103B4002226
:1003B5008E1B8F1C8D1D1200157FA01203EB4002B2
:1003C500801AE51BFF1203EB40028010AF1C1203DD
:1003D500EB40028007AF1D1203EB4005120492C3E8
:0603E50022120492D32253
:0A02E2008E088F098B0A8A0B890C25
:1002EC00E50DC39440503BE50D60371200157FA01F
:1002FC001203EBE508FF1203EBAF091203EBE4F575
:10030C000EE50EC3950D5017AB0AAA0BA90C850E62
:10031C0082758300120026FF1203EB050E80E21299
:02032C00049239
:01032E0022AC
:0A0270008E0F8F108B118A12891374
:10027A00E514C394405060E514605C1200157FA039
:10028A001203EBE50FFF1203EBAF101203EB1200A0
:10029A00157FA11203EBE4F515E51414FFE515C368
:1002AA009F501712046CAB11AA12A91385158275F7
:1002BA008300EF120053051580DF120419E5147C40
:1002CA000024FFF582EC34FFF583AB11AA12A913BF
:0702DA00EF12005312049221
:0102E10022FA
:0D001500D297D2960000C2970000C296223A
:0F049200C296C2970000D2960000D297000022B7
:1003EB007E80EE60175F7004C2978002D297000088
:1003FB00D2960000C296EEC313FE80E6D2970000A1
:0D040B00D296A29792010000C296A201B302
:0104180022C1
:10041900D2977E80EE60190000D296209705F4529B
:10042900078003EE42070000C296EEC313FE80E484
:0A043900D2970000D2960000C29690
:010443002296
:10046C00D2977E80EE60140000D296209703F4524F
:10047C00070000C296EEC313FE80E9C2970000D2BB
:05048C00960000C2967D
:010491002248
:10000300120015EF25E0FF1203EB9200120492A2F7
:0100130000EC
:0100140022C9
:0804AC00021800000216000016
:0B04A100D2AF7F807E2512044480FE55
:1004440075985053890F438920AB07AA06E4F9F83D
:100454007F807E70FDFC12032FEFF404F58D858DF3
:080464008BC2ABD2ACD28E2298
:0300230002014394
:10014300C0E0C0F0C083C082C0D075D000C000C082
:1001530001C002C003C004C005C006C00730980830
:10016300C29885991A851A9930995BC299C3E51982
:100173009480E51894075026751AEEE51AB4EE0B31
:10018300AF17AE161203738F1A80F0851A990517ED
:10019300E517700205160519E51970020518E5192A
:1001A300B48023E518B4071E751AEEE51AB4EE0BF6
:1001B3007411FFFE1203738F1A80F0851A990519C3
:1001C300E51970020518D007D006D005D004D00376
:1001D300D002D001D000D0D0D082D083D0F0D0E0F4
:0101E30032E9
:030000000201E416
:0C01E400787FE4F6D8FD75812302022B21
:10002600BB010CE58229F582E5833AF583E022508F
:1000360006E92582F8E622BBFE06E92582F8E222D9
:0D004600E58229F582E5833AF583E49322F3
:10005300F8BB010DE58229F582E5833AF583E8F0E3
:10006300225006E92582C8F622BBFE05E92582C88F
:02007300F22277
:10032F00C2D5E830E70FB2D5E4C39BFBE49AFAE4F9
:10033F0099F9E498F8EC30E717B2D512036512007B
:10034F00B1E4C39BFBE49AFAE499F9E498F88003CB
:10035F001200B130D50DE4C39FFFE49EFEE49DFD76
:04036F00E49CFC22EC
:1001F0000204A1E493A3F8E493A34003F68001F280
:1002000008DFF48029E493A3F85407240CC8C3330F
:10021000C4540F4420C8834004F456800146F6DFDE
:10022000E4800B01020408102040809004ACE47EBE
:10023000019360BCA3FF543F30E509541FFEE493D3
:10024000A360010ECF54C025E060A840B8E493A39A
:10025000FAE493A3F8E493A3C8C582C8CAC583CAC5
:10026000F0A3C8C582C8CAC583CADFE9DEE780BE7D
:0104B4000047
:1000750075F008758200EF2FFFEE33FECD33CDCC42
:1000850033CCC58233C5829BED9AEC99E5829840C5
:100095000CF582EE9BFEED9AFDEC99FC0FD5F0D6A2
:1000A500E4CEFBE4CDFAE4CCF9A88222B800C1B9CC
:1000B5000059BA002DEC8BF084CFCECDFCE5F0CB0A
:1000C500F97818EF2FFFEE33FEED33FDEC33FCEB43
:1000D50033FB10D703994004EB99FB0FD8E5E4F9FE
:1000E500FA227818EF2FFFEE33FEED33FDEC33FCEB
:1000F500C933C910D7059BE99A4007EC9BFCE99ADF
:10010500F90FD8E0E4C9FAE4CCFB2275F010EF2F23
:10011500FFEE33FEED33FDCC33CCC833C810D70723
:100125009BEC9AE899400AED9BFDEC9AFCE899F85E
:0E0135000FD5F0DAE4CDFBE4CCFAE4C8F922F1
:00000001FF
