:020000040800F2
:1000000040190020790400087D0200087F020008E2
:1000100083020008870200088B020008000000002D
:100020000000000000000000000000008F02000837
:1000300091020008000000009302000895020008E9
:100040009304000893040008930400089304000834
:1000500093040008930400088B2D0008CB2D0008A2
:100060004B2D0008930400086F2C0008930400082F
:100070009304000893040008930400089304000804
:1000800093040008930400089304000893040008F4
:10009000930400089304000893040008F92C000856
:1000A00093040008930400089304000893040008D4
:1000B00093040008930400089304000893040008C4
:1000C00093040008930400089304000893040008B4
:1000D000930400085F2100089304000893040008BB
:1000E0009304000893040008930400089304000894
:1000F0009304000893040008930400089304000884
:100100009304000893040008B32A0008930400082D
:100110009304000893040008930400089304000863
:100120009304000893040008930400089304000853
:1001300000F002F800F063F80AA090E8000C824496
:100140008344AAF10107DA4501D100F058F8AFF273
:10015000090EBAE80F0013F0010F18BFFB1A43F0A5
:1001600001031847743000009430000010F8013B80
:100170000A4413F0030408BF10F8014B1D1108BF17
:1001800010F8015B641E05D010F8016B641E01F8C5
:10019000016BF9D1002D15D010F8014B03F00C03C1
:1001A0000C2BA1EB04040ABF10F8013BA4EB831451
:1001B000A4EB032405F1010314F8016B5B1E01F8A5
:1001C000016BF9D5914238BF10F8013BD1D370478C
:1001D0000023002400250026103A28BF78C1FBD850
:1001E000520728BF30C148BF0B607047642902F036
:1001F000D786002070471FB51FBD10B510BD02F097
:1002000097FF1146FFF7F7FF00F016F802F0B5FF71
:1002100003B4FFF7F2FF03BC01F046FF10B5012164
:10022000084600F061FD0121124800F072FB012137
:10023000114800F06EFB10BD4FF4165001F043FF63
:1002400001F0C8FE4FF4A06000F036F9082142F634
:10025000C54001F0C9FFFFF7E1FF02F03FFC02F0EB
:100260005BFC02F0CBF802F057F902F0E3FD00BFAF
:10027000FEE700000002300000043000704700BFBD
:10028000FEE700BFFEE700BFFEE700BFFEE77047E6
:1002900070477047704700000CB500200190009037
:1002A0006C48006840F480306A49086000BF6948C3
:1002B000006800F4003000900198401C0190009804
:1002C00018B90198B0F5A06FF1D16248006800F448
:1002D000003010B10120009001E000200090009853
:1002E000012843D15C48006840F010005A4908607A
:1002F0000846006820F0030008600846006840F0E7
:100300000200086053484068524948600846406807
:1003100048600846406840F480604860084640688D
:1003200020F47C1048600846406840F4E8104860BB
:100330000846006840F08070086000BF45480068CB
:1003400000F000700028F9D04248406820F0030017
:10035000404948600846406840F00200486000BFDD
:100360003C48406800F00C000828F9D10CBD10B5DD
:10037000FFF792FF10BD10B53648006840F001004D
:1003800034490860084640683449084031494860AB
:1003900008460068324908402E490860084600684F
:1003A00020F4802008600846406820F4FE00486081
:1003B0004FF41F008860FFF7DAFF4FF00060294913
:1003C000086010BD10B5002100200022214B5B68A1
:1003D00003F00C0121B1042906D0082928D107E037
:1003E000214B224C236027E01F4B204C236023E04D
:1003F000184B5B6803F47010164B5B6803F4803293
:10040000022303EB904022B9194B4343174C23605E
:100410000DE0104B5B6803F4003323B1144B4343EE
:10042000124C236003E0104B4343104C236003E065
:100430000D4B0E4C236000BF00BF064B5B68C3F33F
:1004400003130C4CE15C094B1B68CB40074C236049
:1004500010BD000000100240002002400000FFF824
:10046000FFFFF6FE08ED00E000127A000000002019
:1004700000093D0004000020094880470948004762
:10048000FEE7FEE7FEE7FEE7FEE7FEE7FEE7FEE744
:10049000FEE7FEE704480549054A064B70470000A1
:1004A00077030008310100084013002040190020A4
:1004B000401500204015002031490143314A1160A8
:1004C000704770B5002100230F22C47804B32D4C6F
:1004D000246804F4E064C4F5E064210AC1F1040373
:1004E000CA40447804FA03F1847814402143090196
:1004F000254C0678A155047804F01F050124AC4072
:1005000005786D11AD0005F1E025C5F8004109E061
:10051000047804F01F050124AC401C4D06787611C8
:1005200045F8264070BD1A4A0A400243154B1B1F6E
:100530001A60704739B1134A121D12680243114BF9
:100540001B1D1A6006E00F4A121D126882430D4BF4
:100550001B1D1A607047042808D14FF0E02109697B
:1005600041F004014FF0E022116107E04FF0E0217B
:10057000096921F004014FF0E02211617047000089
:100580000000FA050CED00E000E400E080E100E08E
:1005900080FFFF1F002044490860091D0860091DF5
:1005A0000860091D086041483F49143108607047E0
:1005B00000213D498279002A3AD00A461268036830
:1005C0009A430B461A600A1D126803689A430B1D72
:1005D0001A60027911440A6803681A430A60324AB1
:1005E0000832126803689A432F4B08331A601A1DA9
:1005F000126803689A432C4B0C331A604279102A14
:100600000ED11A1F126803681A43274B08331A6069
:100610001A1D126803681A43234B0C331A600DE04D
:100620002149427911440A6803681A430A6005E0C7
:10063000027911440A6803689A430A6070470021EE
:10064000016001710C2141710021817170471649CF
:10065000103109680143144A103211607047014695
:100660000020114A143212680A400AB1012000E049
:10067000002070470C491431086070470146002083
:100680000022094B1B6803EA0102074B14331B6865
:100690000B4013B10AB1012000E00020704702496D
:1006A000143108607047000000040140FFFF0F0094
:1006B00010B50446CC48844208D10121042000F042
:1006C0002DFB0021042000F029FB46E0C7488442AE
:1006D00008D10121082000F021FB0021082000F0B2
:1006E0001DFB3AE0C248844208D10121102000F0ED
:1006F00015FB0021102000F011FB2EE0BD488442C4
:1007000008D10121202000F009FB0021202000F069
:1007100005FB22E0B848844208D10121402000F0C6
:10072000FDFA0021402000F0F9FA16E0B3488442B7
:1007300008D10121802000F0F1FA0021802000F092
:10074000EDFA0AE0AE48844207D10121801500F09D
:10075000E5FA0021A01500F0E1FA10BD10B5012165
:10076000084600F0DBFA0021012000F0D7FA10BDA6
:100770002DE9F04102460025002600200023002438
:10078000002791F803C00CF00F0591F803C00CF09E
:10079000100CBCF1000F03D091F802C04CEA050523
:1007A00091F800C0BCF1000F31D0146800202BE09C
:1007B0004FF0010C0CFA00F3B1F800C00CEA03068C
:1007C0009E4220D183004FF00F0C0CFA03F7BC437C
:1007D00005FA03FC4CEA040491F803C0BCF1280FAD
:1007E00006D14FF0010C0CFA00FCC2F814C00AE06C
:1007F00091F803C0BCF1480F05D14FF0010C0CFA81
:1008000000FCC2F810C0401C0828D1D31460B1F815
:1008100000C0BCF1FF0F34DD546800202EE000F171
:10082000080C4FF0010808FA0CF3B1F800C00CEA0C
:1008300003069E4221D183004FF00F0C0CFA03F700
:10084000BC4305FA03FC4CEA040491F803C0BCF174
:10085000280F05D100F1080C08FA0CF8C2F8148032
:1008600091F803C0BCF1480F07D100F1080C4FF01C
:10087000010808FA0CF8C2F81080401C0828CED3F2
:100880005460BDE8F0814FF6FF7101800221817054
:100890000421C17070470246002093680B400BB1E1
:1008A000012000E0002070470146886880B2704750
:1008B00002460020D3680B400BB1012000E000206D
:1008C00070470146C86880B2704701617047416156
:1008D00070470AB1016100E041617047C160704733
:1008E0004FF480320A438261816182618269826948
:1008F000704702460020434B18684FF6807318403B
:1009000040EA021008433F4B186070473E49C861F7
:100910007047F0B50A46002300240021002500F0AE
:100920000046B6F1004F02D1364EF16901E0354E76
:100930007168C0F3034583B200F44016B6F5401F5A
:1009400008D121F070612F4E766826F070662D4F29
:100950007E6012E000F48016B6F5801F06D10326F3
:1009600006FA05F4A14341F0706106E0460D360138
:1009700003FA06F6B14341F0706122B1460D36012B
:1009800003FA06F6314300F00046B6F1004F02D1FB
:100990001C4EF16101E01B4E7160F0BD30B50022CC
:1009A0008B071C0F0F2303FA04F2164B08338C102D
:1009B00053F824309343134C08348D1044F82530F9
:1009C00023468C1053F824308C07240F00FA04F4CB
:1009D00023430C4C08348D1044F8253030BD0A49AF
:1009E000DC3108607047000000080140000C014045
:1009F000001001400014014000180140001C01409B
:100A0000002001400000014000002042DF48006853
:100A100040F00100DD49086008464068DC490840B4
:100A2000DA49486008460068DA490840D749086052
:100A30000846006820F4802008600846406820F4DA
:100A4000FE0048604FF41F0088607047CF49096876
:100A500021F48031CD4A11601146096821F48021CA
:100A60001160B0F5803F03D0B0F5802F0ED106E0C5
:100A7000C649096841F48031C44A116007E0C3499E
:100A8000096841F4A021C14A116000E000BF00BF25
:100A9000704710B501460022002300204A11012AA8
:100AA00002D1BA4C236806E0022A02D1B74C236A6D
:100AB00001E0B64C636A01F01F02012494401C401F
:100AC0000CB1012000E0002010BD38B500200090DE
:100AD0000024002500BF3120FFF7DBFF054600980A
:100AE000401C00900098B0F5A06F01D0002DF2D00E
:100AF0003120FFF7CEFF08B1012400E0002420469A
:100B000038BD01460020A14A106820F0F80040EAF4
:100B1000C10010607047A04908607047024600207D
:100B20009A4B586820F47C1042EA01031843974B13
:100B30005860704798490866704701460020934AFC
:100B4000506820F003000843506070478F484068A9
:100B500000F00C007047014600208C4A506820F0DD
:100B6000F00008435060704701460020874A5068F3
:100B700020F4E06008435060704701460020834A3B
:100B8000506820F4605040EAC1005060704729B1BD
:100B90007E4A527A02437D4B5A7204E07B4A527A73
:100BA00082437A4B5A7270477B49D831086070474C
:100BB00001460020754A506820F4404008435060C8
:100BC00070470021714A20321170704A82F820105B
:100BD000012802D004280AD104E001216B4A203206
:100BE000117005E00521694A2032117000E000BF54
:100BF00000BF70476949086070476449096A01434A
:100C0000624A11627047654944390860704730B5DF
:100C100000210022002400235C4D6D6805F00C01CA
:100C200021B1042905D0082923D105E05C4D0560D8
:100C300022E05B4D05601FE0544D6D6805F47012B5
:100C4000524D6D6805F48034022505EB92421CB9C3
:100C5000544D554305600BE04C4D6D6805F400356F
:100C60001DB1504D5543056002E04D4D55430560A3
:100C700002E04B4D056000BF00BF444D6D6805F0BC
:100C8000F0010909484D6B5C0568DD4045603F4D4A
:100C90006D6805F4E061090A434D6B5C4568DD4011
:100CA00085603A4D6D6805F46051C90A3E4D6B5C34
:100CB0004568DD40C560354D6D6805F44041890BE0
:100CC0003A4D6B5CC568B5FBF3F5056130BD29B1E4
:100CD0002E4A526902432D4B5A6104E02B4A526955
:100CE00082432A4B5A61704729B1284A92690243CC
:100CF000264B9A6104E0254A92698243234B9A610C
:100D0000704729B1214AD2690243204BDA6104E0DD
:100D10001E4AD26982431D4BDA61704729B11B4AD2
:100D2000D2680243194BDA6004E0184AD268824361
:100D3000164BDA60704729B1144A12690243134B0B
:100D40001A6104E0114A12698243104B1A6170471C
:100D500012494039086070470F49C86470470B4911
:100D6000C87170470948406A40F08070074948627E
:100D7000704701460020054A92680A400AB10120E6
:100D800000E000207047014988727047001002405F
:100D90000000FFF8FFFFF6FE0000424280044242DE
:100DA00000127A0000093D001400002024000020F9
:100DB00010B50446FE48844208D10121C014FFF753
:100DC000ADFF0021E014FFF7A9FFC4E0B4F1804FAC
:100DD00008D101210846FFF7AEFF00210120FFF7EF
:100DE000AAFFB8E0F348844208D101210220FFF7AE
:100DF000A2FF00210220FFF79EFFACE0EE488442F4
:100E000008D101210420FFF796FF00210420FFF7FD
:100E100092FFA0E0E948844208D101210820FFF7B1
:100E20008AFF00210820FFF786FF94E0E44884420F
:100E300008D101211020FFF77EFF00211020FFF7CD
:100E40007AFF88E0DF48844208D101212020FFF7A3
:100E500072FF00212020FFF76EFF7CE0DA48844219
:100E600008D101214014FFF759FF00216014FFF75A
:100E700055FF70E0D548844209D10121C804FFF72D
:100E80004DFF00214FF40020FFF748FF63E0D048FA
:100E9000844209D101210805FFF740FF00214FF4EA
:100EA0008010FFF73BFF56E0CA48844209D1012178
:100EB0004805FFF733FF00214FF40010FFF72EFF26
:100EC00049E0C548844208D101214020FFF733FFA3
:100ED00000214020FFF72FFF3DE0C048844208D1A9
:100EE00001218020FFF727FF00218020FFF723FF4B
:100EF00031E0BB48844208D101218015FFF71BFF78
:100F00000021A015FFF717FF25E0B648844209D15C
:100F100001210804FFF702FF00214FF48030FFF7A2
:100F2000FDFE18E0B048844209D101214804FFF7D2
:100F3000F5FE00214FF40030FFF7F0FE0BE0AB4868
:100F4000844208D101218804FFF7E8FE00214FF414
:100F50008020FFF7E3FE10BD00220288944B9842E8
:100F60000ED0994B98420BD0B0F1804F08D0914BE6
:100F7000984205D0904B984202D0904B984204D1B1
:100F80004FF68F731A404B881A438D4B984207D007
:100F90008C4B984204D04FF6FF431A40CB881A433B
:100FA00002808B8883850B880385814B98420BD008
:100FB000854B984208D08B4B984205D08A4B98427B
:100FC00002D08A4B984201D10B7A03860123838297
:100FD000704770B5002400220023058C4FF6FE7682
:100FE00035400584028C8388048B4FF68F752C4026
:100FF000B51E2C400D882C43751E2A400D892A43AE
:101000004D882A436A4DA8420BD06F4DA84208D0A4
:10101000744DA84205D0744DA84202D0734DA84229
:1010200013D14FF6F7752A404D892A434FF6FB75C9
:101030002A408D882A434FF6FF652B404FF6FF5517
:101040002B408D892B43CD892B4383800483CD880E
:101050008586028470BD70B5002400220023058CB3
:101060004FF6EF7635400584028C8388048B48F672
:10107000FF752C404FF6FF452C400D884FF6FF764C
:1010800006EA05252C434FF6DF752A400D8906EA4E
:1010900005152A434D8806EA05152A43444DA84202
:1010A00002D0494DA8421DD14FF67F752A404D8987
:1010B0004FF6FF7606EA05152A434FF6BF752A401C
:1010C0008D8806EA05152A434FF6FF352B404FF26F
:1010D000FF752B408D8906EA85052B43CD8906EAED
:1010E00085052B4383800483CD880587028470BDEA
:1010F00070B5002400220023058C4FF6FF663540B2
:101100000584028C8388848B4FF68F752C404FF6B4
:10111000FC752C400D882C434FF6FF552A400D8955
:101120004FF6FF7606EA05252A434D8806EA05258F
:101130002A431F4DA84202D0234DA8421DD14FF291
:10114000FF752A404D894FF6FF7606EA05252A43AA
:101150004FF6FF352A408D8806EA05252A434EF6CC
:10116000FF752B404DF6FF752B408D8906EA05155E
:101170002B43CD8906EA05152B4383808483CD88D4
:101180008587028470BD70B5002200230024058C81
:101190004EF6FF7635400584038C8488828B48F6B2
:1011A000FF752A404FF6FF452A400D8820E00000D9
:1011B000002C01400004004000080040000C0040EA
:1011C000001000400014004000340140004C014079
:1011D000005001400054014000180040001C004035
:1011E0000020004000400140004401400048014010
:1011F0004FF6FF7606EA05252A434DF6FF752B408C
:101200000D8906EA05352B434D8806EA05352B4343
:10121000FA4DA84202D0FA4DA84208D14BF6FF750C
:101220002C408D894FF6FF7606EA85152C43848085
:101230008283CD88A0F84050038470BD828B4FF22A
:10124000FF331A408283828B4FF6FF7303EA012338
:101250001A4382837047F0B50C46154600220021E0
:101260000026078C4EF6FF7C07EA0C070784828B6A
:10127000018C4FF6FF7707EA043640F6FF473A4005
:101280004FF6FF7707EA05273A434FF6FF7707EA5D
:1012900003373A43D94FB8420ED0D94FB8420BD09A
:1012A000B0F1804F08D0D74FB84205D0D64FB842E2
:1012B00002D0D64FB84206D14DF6FF77394046F4FA
:1012C0008057394305E047F6FF57394044F48057CB
:1012D000394382830184F0BD828B4FF6F3731A4049
:1012E0008283828B0A4382837047F0B50C46154691
:1012F000002200210026078C4FF6FF6C07EA0C073E
:101300000784828B018C4FF6FF7707EA04264FF69D
:101310000C773A404FF6FF7707EA03172F433A431B
:10132000B64FB8420ED0B64FB8420BD0B0F1804F96
:1013300008D0B44FB84205D0B34FB84202D0B34F33
:10134000B84206D14FF6FF57394046F4807739430B
:1013500005E04FF2FF57394044F4807739438283E8
:101360000184F0BD028B4FF2FF331A400283028BDF
:101370004FF6FF7303EA01231A4302837047F0B567
:101380000C461546002200210026078C4FF6EF7C04
:1013900007EA0C070784028B018C4FF6FF7707EAF8
:1013A000041640F6FF473A404FF6FF7707EA033747
:1013B0003A434FF6FF7707EA05273A438F4FB84283
:1013C0000ED08F4FB8420BD0B0F1804F08D08D4F68
:1013D000B84205D08C4FB84202D08C4FB84206D1EB
:1013E0004FF6DF77394046F01007394305E04FF6F6
:1013F0005F77394044F01007394302830184F0BD20
:10140000028B4FF6F3731A400283028B0A43028366
:101410007047F0B50C46154600220021068C4FF6A9
:10142000FE773E400684028B018C4FF60C763240EC
:101430007E1C06EA03162E433243704EB0420ED095
:101440006F4EB0420BD0B0F1804F08D06D4EB0421D
:1014500005D06D4EB04202D06C4EB04206D14FF670
:10146000FD76314044F00106314305E04FF6F57654
:10147000314044F00106314302830184F0BD70B570
:1014800005460C465D4885420ED05D4885420BD02E
:10149000B5F1804F08D05B48854205D05A48854257
:1014A00002D05A48854200D100E000BF208850B9E0
:1014B0002389A28861882846FFF7ABFFE188284688
:1014C000FFF79EFF25E0208804280AD12389A288FF
:1014D00061882846FFF753FFE1882846FFF742FF5F
:1014E00017E0208808280AD12389A2886188284625
:1014F000FFF7FBFEE1882846FFF7EEFE09E02389AF
:10150000A28861882846FFF7A6FEE1882846FFF7F3
:1015100095FE70BD2DE9F04105460C4600260127D9
:10152000608808B9022600E00026A088012801D1C1
:10153000022700E001272088A0B92389A2886188BA
:101540002846FFF766FFE1882846FFF759FF238901
:101550003A4631462846FFF712FFE1882846FFF752
:1015600001FF13E02389A28861882846FFF707FF5F
:10157000E1882846FFF7F6FE23893A463146284699
:10158000FFF747FFE1882846FFF73AFFBDE8F08103
:101590000A884B881A438B881A43CB881A430B89D5
:1015A0001A434B891A438B891A43A0F84420704789
:1015B0004FF6FF71818000210180C180418001725E
:1015C00070470021018041808180C180018141817B
:1015D0008181C1817047002101804180012181808A
:1015E0000021C180018170470021018041808180FC
:1015F000C18001814181818170470000002C014040
:10160000003401400004004000080040000C00408D
:1016100021B1028842F00102028004E002884FF604
:10162000FE731A400280704731B1B0F8442042F492
:101630000042A0F8442005E0B0F84420C2F30E02B6
:10164000A0F8442070471AB183890B43838102E0DC
:1016500083898B43838170478182704741EA02030B
:10166000A0F8483070471AB183890B43838102E0A8
:1016700083898B438381704701894FF6F87211404B
:10168000018170470A46002101894FF68F73194086
:1016900011430181704730B504460D462946204666
:1016A000FFF7F0FF208940F00700208130BD2DE9D1
:1016B000F04104460D4616461F46602D06D13B46B6
:1016C000012231462046FFF75AFE05E03B46012243
:1016D00031462046FFF79DFE29462046FFF7D2FF00
:1016E000208940F007002081BDE8F08130B50C462C
:1016F00000210189C9B24FF6FF7505EA032515439C
:1017000025432943018130BD2DE9F04105460E46B0
:1017100017469846002443463A4631462846FFF786
:10172000E5FF2C894FF6F870044044F007044FF6AB
:101730008F70044044F070042C81BDE8F081F0B556
:1017400004460D4616461F463B463246294620466D
:10175000FFF7CCFF208940F480402081F0BD018557
:10176000828270470A46002101884FF68F73194024
:10177000114301807047F0B50C4615461E46002106
:10178000002200230189028B038C4FF6F877394041
:1017900021434FF6FC473A4040F201173A434FF6D7
:1017A000DD773B404FF6FF7707EA06172F433B43B1
:1017B000018102830384F0BD0A460021018B4FF6AC
:1017C0008F7319401143018370470A460021018B32
:1017D00048F6FF7319404FF6FF7303EA02231943DB
:1017E000018370470A460021818B4FF68F731940A1
:1017F0001143818370470A460021818B48F6FF73AD
:1018000019404FF6FF7303EA02231943818370479F
:1018100021B1028842F08002028004E002884FF683
:101820007F731A400280704721B1828842F004021F
:10183000828004E082884FF6FB731A4082807047F2
:1018400021B1828842F00802828004E082884FF64B
:10185000F7731A408280704721B1828842F00102FA
:10186000828004E082884FF6FE731A4082807047BF
:101870000A460021018B4FF6F7731940114301838B
:1018800070470A460021018B4FF2FF7319404FF653
:10189000FF7303EA02231943018370470A460021BC
:1018A000818B4FF6F77319401143818370470A46C5
:1018B0000021818B4FF2FF7319404FF6FF7303EA4B
:1018C00002231943818370470A460021018B4FF69A
:1018D000FB7319401143018370470A460021018BB5
:1018E0004FF6FF3319404FF6FF7303EA0223194303
:1018F000018370470A460021818B4FF6FB73194024
:101900001143818370470A460021818B4FF6FF33D4
:1019100019404FF6FF7303EA02231943818370478E
:101920000A460021018B4FF67F7319401143018352
:1019300070470A460021018BC1F30E014FF6FF7379
:1019400003EA02231943018370470A460021818B71
:101950004FF67F7319401143818370470A46002177
:10196000818BC1F30E014FF6FF7303EA0223194383
:10197000818370470A460021018C4FF6FD731940A0
:101980001143018470470A460021018C4FF6F7731A
:1019900019401143018470470A460021018C4FF61B
:1019A000DF7319404FF6FF7303EA021319430184F2
:1019B00070470A460021018C4FF67F7319404FF69D
:1019C000FF7303EA02131943018470470A4600219A
:1019D000018C4FF6FF5319404FF6FF7303EA0223C1
:1019E0001943018470470A460021018C4FF2FF73AE
:1019F00019404FF6FF7303EA02231943018470472D
:101A00000A460021018C4DF6FF7319404FF6FF7313
:101A100003EA023319430184704730B500230124DF
:101A20008C40A3B2048C9C430484048C02FA01F51C
:101A3000ADB22C43048430BD30B5002304248C4067
:101A4000A3B2048C9C430484048C02FA01F5ADB269
:101A50002C43048430BD70B5034600200024184692
:101A6000183001258D40ACB21D8CA5431D8409B1F1
:101A7000082909D100EB6100056825F070050560B3
:101A80000568154305600EE00D1FC5F34E0528449B
:101A9000056825F4E045056005684FF6FF7606EA1F
:101AA00002263543056070BD21B1028842F0020272
:101AB000028004E002884FF6FD731A4002807047EE
:101AC00021B1028842F00402028004E002884FF64D
:101AD000FB731A400280704721B1828842F0800275
:101AE000828004E082884FF67F731A4082807047BC
:101AF00002884FF6F7731A40028002880A43028078
:101B0000704782884FF68F731A40828082880A431A
:101B10008280704702894FF6F8731A400281028969
:101B20000A430281704702894FF67F731A4002818F
:101B300002890A430281704781847047818570471A
:101B4000818670470187704781877047A0F84010F1
:101B5000704702884FF6FF431A40028002880A430A
:101B6000028070470146888E70470146088F704793
:101B70000146888F70470146B1F840007047014622
:101B8000888C70470146088D704702460020138AF2
:101B90000B400BB1012000E000207047CA430282D5
:101BA000704730B50246002000230024158A05EA5C
:101BB0000103958905EA010413B10CB1012000E08D
:101BC000002030BDCA4302827047000010B50446B1
:101BD000FB48844209D101218803FFF79FF80021C7
:101BE0004FF48040FFF79AF832E0F648844209D17A
:101BF00001214804FFF79FF800214FF40030FFF760
:101C00009AF825E0F048844209D101218804FFF7C1
:101C100092F800214FF48020FFF78DF818E0EB4890
:101C2000844209D10121C804FFF785F800214FF44F
:101C30000020FFF780F80BE0E548844208D101213D
:101C40000805FFF778F800214FF48010FFF773F8CC
:101C500010BD2DE9F04786B005460E460024A24689
:101C600000BFA1460027B08900B100BF2F462C8AD3
:101C70004CF6FF700440F08804432C82AC894EF689
:101C8000F3100440B0883189084371890843044344
:101C9000AC81AC8A4FF6FF400440B0890443AC826B
:101CA00001A8FEF7B4FFC648874202D1DDF810A0B4
:101CB00001E0DDF80CA0A88900F4004040B10AEB77
:101CC000CA0000EB0A1031684900B0FBF1F807E0E8
:101CD0000AEBCA0000EB0A1031688900B0FBF1F88A
:101CE0006420B8FBF0F004012009642101FB108995
:101CF000A88900F4004040B1322000EBC900B0FBDD
:101D0000F1F000F00700044308E0322000EB091076
:101D10006421B0FBF1F000F00F0004432C8106B009
:101D2000BDE8F0874FF41651016000218180C18029
:101D300001810C21418100218181704710B502464B
:101D40000020108A4FF2FF0318400B884C88234371
:101D50008C882343CC8823431843108210BD002174
:101D6000018041808180C180704721B1828942F425
:101D70000052828104E082894DF6FF731A4082810D
:101D80007047F0B50346002400260025002040F6E9
:101D90006A17B94200D100BF1846C1F3421401F0DE
:101DA0001F06012707FA06F5012C01D10C3004E0CB
:101DB000022C01D1103000E014301AB107682F4313
:101DC000076002E00768AF430760F0BD1AB1838A7D
:101DD0000B43838202E0838A8B4383827047028AAB
:101DE0004FF6F0731A400282028A0A430282704759
:101DF00082894FF2FF731A40828182890A4382816D
:101E0000704721B1828942F00202828104E0828916
:101E10004FF6FD731A4082817047028A4FF6DF73D6
:101E20001A400282028A0A430282704721B1028A62
:101E300042F48042028204E0028A4BF6FF731A40A9
:101E400002827047C1F30802828070470146888889
:101E5000C0F308007047818941F00101818170471A
:101E6000028BD2B20283028B42EA012202837047C4
:101E7000028B02F47F420283028B0A430283704783
:101E800021B1828A42F02002828204E0828A4FF6E7
:101E9000DF731A408282704721B1828A42F01002B9
:101EA000828204E0828A4FF6EF731A408282704782
:101EB00021B1828A42F00802828204E0828A4FF6CF
:101EC000F7731A408282704721B1828942F400423E
:101ED000828103E08289C2F30E028281704721B1C0
:101EE000828A42F40062828204E0828A4FF2FF73A7
:101EF0001A4082827047828A4FF6FB731A408282B0
:101F0000828A0A438282704721B1828A42F00202A9
:101F1000828204E0828A4FF6FD731A408282704703
:101F200002460020B1F5007F00D100BF13880B40AE
:101F30000BB1012000E00020704701F40072B2F5FF
:101F4000007F00D100BFCA430280704770B50246CF
:101F5000002400230025002040F66A16B14200D17B
:101F600000BFC1F3421501F01F03012606FA03F377
:101F7000012D02D19689334006E0022D02D1168A46
:101F8000334001E0968A33400C12012606FA04F42D
:101F90001688344013B10CB1012000E0002070BD60
:101FA00010B50022002340F66A14A14200D100BF00
:101FB0000A1201249440A3B2DC43048010BD000047
:101FC000003801400044004000480040004C004000
:101FD0000050004010B56FF00400FEF7BCFA2E4828
:101FE00000682E49B0FBF1F02D49087008460078D2
:101FF00000EB4001C1EBC0104FF6FF7101EAC000D9
:102000002849088010BD0146254A12784A434FF0FE
:10201000E0235A6100229A611A46126942F00102D5
:102020001A6100BF4FF0E022106900F001021AB1FE
:1020300000F48032002AF5D04FF0E022126922F03D
:1020400001024FF0E0231A6100229A6170470146B5
:10205000144A12884A434FF0E0235A6100229A61E1
:102060001A46126942F001021A6100BF4FF0E022E5
:10207000106900F001021AB100F48032002AF5D094
:102080004FF0E022126922F001024FF0E0231A61C2
:1020900000229A61704700000000002000127A00C0
:1020A000280000202A000020014600BF704700BF22
:1020B000494A128802F04002002AF9D0C2B2464BC7
:1020C0001B1D1A80704710B586B00446012144F2EA
:1020D0000400FEF709FE4FF40070ADF81400032071
:1020E0008DF8160018208DF8170005A93B48FEF75B
:1020F0003FFB4FF48060ADF8140004208DF817000A
:1021000005A93648FEF734FB25208DF80000032092
:102110008DF801008DF8020001208DF8030068465B
:10212000FEF7CFF901940020ADF80800ADF80A00E1
:10213000ADF80C00ADF810000C20ADF80E0001A9B0
:102140002548FFF786FD012240F225512248FFF77E
:1021500018FE01212048FFF708FE06B010BD10B59B
:1021600040F225511C48FFF7F1FE10B31A48FFF763
:102170006DFEC4B21A48008800F40040C8B918487F
:10218000008800F4804060B10A2C03D0002014497C
:10219000088020E01248008840F400401049088080
:1021A00019E00D2C06D10E48008840F480400C49FF
:1021B000088010E00A480088C0F30D0009490C545B
:1021C00007480088401C0649088008460088C72840
:1021D00001DD0020088010BD0038014000080140EA
:1021E000300000201812002030B589B005460C469A
:1021F00001210220FEF785FD01210420FEF774FD78
:102200000020ADF81E00ADF81A00ADF81C50ADF876
:10221000184006A91648FEF79FFE18208DF81700F3
:102220004020ADF8140003208DF8160005A91148D0
:10223000FEF79EFA7020ADF804000120ADF806000C
:102240000020ADF80A007020ADF80C0001A9084884
:10225000FEF7BFFE08210648FFF70AFB01210448EC
:10226000FFF7D6FA01210248FFF7D2F909B030BDD5
:10227000000400400008014070B504467A2C03DDDC
:1022800044F62060844207DD00215348FFF7C0F97F
:1022900001205249087019E050480078012806D101
:1022A00001214D48FFF7B4F900204C4908704C4813
:1022B00090FBF4F0451E48492C310D806420B5FB9D
:1022C000F0F086B231464448FFF73AFC70BDF8B5ED
:1022D0000546002474E043480078012806D103E055
:1022E0004048007800B900E0FAE700BF3E480078B7
:1022F000012803D10A3C00203B4908703B48007884
:10230000012803D10A34002038490870384951F8AF
:10231000251031F8241088B2FFF7AEFF344951F888
:10232000251001EB8401498888B2FFF790FE4FF633
:10233000FF70802376227D2100900A2000F046FA6B
:10234000C4EB0410C0EBC0002A4931F8151090FB13
:10235000F1F00A3086B27F21304600F052FBC4EB28
:102360000410C0EBC000234931F8151090FBF1F0C8
:102370000A30C6B24FF6FF70862332467F210090A6
:102380000A2000F023FAC4EB0410C0EBC000194986
:1023900031F8151090FBF1F00D30C6B244F2082070
:1023A000862376227F210090304600F00FFA641CCD
:1023B00011480078012803D100200F490870F8BDAA
:1023C0000C4830F81500A04285DC00210248FFF7D8
:1023D0001FF900BFF3E700000004004033000020B5
:1023E00000127A00FB060020FD060020FC060020FB
:1023F000B8110020AC1100203200002008B50121E6
:102400000420FEF771FC10208DF803004FF4784093
:10241000ADF8000003208DF802006946FE48FEF783
:10242000A7F908BD70B50446002500BF1BE004F005
:10243000800028B14FF40061F748FEF746FA04E047
:102440004FF40061F448FEF742FA4FF48051F2482D
:10245000FEF73DFA4FF48051EF48FEF736FA60067A
:10246000040E681CC5B2082DE1DB70BD10B5044632
:102470004FF40051E848FEF72AFA4FF40041E648CD
:10248000FEF725FA2046FFF7CDFF4FF40051E24852
:10249000FEF71BFA10BD10B504464FF40051DE489C
:1024A000FEF715FA4FF40041DB48FEF70EFA20461E
:1024B000FFF7B8FF4FF40051D748FEF706FA10BDFA
:1024C00010B504464FF40051D348FEF700FA4FF41C
:1024D0000041D148FEF7F9F92012FFF7A3FFE0B25F
:1024E000FFF7A0FF4FF40051CB48FEF7EEF910BD07
:1024F00010B54FF48041C848FEF7E9F94FF47A70FF
:10250000FFF7A5FD4FF48041C348FEF7DEF94FF415
:102510007A70FFF79CFD10BD10B5FFF7E9FF1120A1
:10252000FFF7A4FF7820FFF792FDB120FFF79EFF91
:102530000120FFF7B0FF2C20FFF7ADFF2D20FFF7A4
:10254000AAFFB220FFF792FF0120FFF7A4FF2C2083
:10255000FFF7A1FF2D20FFF79EFFB320FFF786FFB7
:102560000120FFF798FF2C20FFF795FF2D20FFF7A4
:1025700092FF0120FFF78FFF2C20FFF78CFF2D200B
:10258000FFF789FFB420FFF771FF0720FFF783FFF4
:10259000C020FFF76BFFA220FFF77DFF0220FFF7AF
:1025A0007AFF8420FFF777FFC120FFF75FFFC52088
:1025B000FFF771FFC220FFF759FF0A20FFF76BFFFB
:1025C0000020FFF768FFC320FFF750FF8A20FFF7C6
:1025D00062FF2A20FFF75FFFC420FFF747FF8A2032
:1025E000FFF759FFEE20FFF756FFC520FFF73EFF2C
:1025F0000E20FFF750FF3620FFF738FFC020FFF70F
:102600004AFFE020FFF732FF0F20FFF744FF1A20B8
:10261000FFF741FF0F20FFF73EFF1820FFF73BFFBA
:102620002F20FFF738FF2820FFF735FF2020FFF786
:1026300032FF2220FFF72FFF1F20FFF72CFF1B2068
:10264000FFF729FF2320FFF726FF3720FFF723FF9F
:102650000020FFF720FF0720FFF71DFF0220FFF7F4
:102660001AFF1020FFF717FFE120FFF7FFFE0F20F2
:10267000FFF711FF1B20FFF70EFF0F20FFF70BFFE7
:102680001720FFF708FF3320FFF705FF2C20FFF787
:1026900002FF2920FFF7FFFE2E20FFF7FCFE30206F
:1026A000FFF7F9FE3020FFF7F6FE3920FFF7F3FEC3
:1026B0003F20FFF7F0FE0020FFF7EDFE0720FFF7B9
:1026C000EAFE0320FFF7E7FE1020FFF7E4FE0920F3
:1026D000FFF7CCFE6420FFF7BAFC6020FFF7DBFEBB
:1026E0006120FFF7D8FE0020FFF7D5FE0020FFF79E
:1026F000D2FE2A20FFF7BAFE0020FFF7CCFE022010
:10270000FFF7C9FE0020FFF7C6FE8220FFF7C3FED9
:102710002B20FFF7ABFE0020FFF7BDFE0320FFF7E5
:10272000BAFE0020FFF7B7FE8320FFF7B4FEF020CB
:10273000FFF79CFE0120FFF7AEFEF620FFF796FEA6
:102740000020FFF7A8FE3A20FFF790FE0520FFF7D4
:10275000A2FE2920FFF78AFE10BD2DE9F0410746B1
:102760000C4615461E462A20FFF780FE0020FFF784
:1027700092FE3846FFF78FFE0020FFF78CFE2846BA
:10278000FFF789FE2B20FFF771FE0020FFF783FE85
:102790002046FFF780FE0020FFF77DFE3046FFF762
:1027A0007AFE2C20FFF762FEBDE8F08170B504468A
:1027B0000D461646681CC3B2601CC2B229462046AC
:1027C000FFF7CBFF3046FFF77BFE70BD2DE9F047EA
:1027D00004460D4616461F46DDF820A03B4632460D
:1027E00029462046FFF7B9FF4FF0000810E04FF0F0
:1027F000000906E05046FFF763FE09F1010000F012
:10280000FF09781B4845F5DA08F1010000F0FF08E0
:10281000301B4045EBDA01E000080140BDE8F087DD
:1028200070B50646002400259F237F22002108461C
:10283000FFF793FF00BF0AE0002504E03046FFF7F2
:102840003FFE681CC5B2A02DF8DB601CC4B2802C12
:10285000F2DB70BD2DE9F84F06460F4690469946CB
:10286000DDF828B03420009007F10F0C0CF0FF03C6
:1028700006F1070C0CF0FF02F9B2F0B2FFF76DFFA2
:10288000002434E004EB04106F49085C58452CD157
:10289000002528E004EB04106B4A1044401C415D05
:1028A0006AA000F03DFB4FF0000A17E004EB0410B3
:1028B00065490844401C415D802040FA0AF001400F
:1028C00019B14046FFF7FCFD04E0C84502D0484678
:1028D000FFF7F6FD0AF1010000F0FF0ABAF1080F58
:1028E000E4DB681CC5B2102DD4DB601C84B20098F8
:1028F0008442C7D3BDE8F88F2DE9F84304460E465D
:1029000017469846089D4FF03409494650A000F0FC
:1029100007FB13E0287843463A46314600902046AC
:10292000FFF798FF6D1C04F1080084B2802C05DBD2
:10293000A4F1800084B206F1100086B22878002845
:10294000E8D1BDE8F8832DE9F84F05460F469246D9
:102950009B460A9E192000904EE0002449E0307802
:1029600004EB04113B4A12F8111088423FD17078F1
:1029700004EB041102EB41014978884237D107F199
:102980000F0C0CF0FF0305F10F0C0CF0FF02F9B275
:10299000E8B2FFF7E2FE4FF0000821E04FF0000937
:1029A00017E004EB04102B4901EB4000801C10F8E9
:1029B0000800802141FA09F1084018B15046FFF79C
:1029C0007FFD02E05846FFF77BFD09F1010000F0B2
:1029D000FF09B9F1080FE4DB08F1010000F0FF087E
:1029E000B8F1200FDADBB61C05F1100085B2601CCF
:1029F000C4B200988442B2DB30780028ADD1BDE883
:102A0000F88F2DE9F04104460D4605F1070C0CF056
:102A1000FF0304F1030C0CF0FF02E9B2E0B2FFF790
:102A20009CFE00260BE0002705E04FF6FF70FFF745
:102A300047FD781CC7B2072FF7DD701CC6B2032E06
:102A4000F1DDBDE8F08100003400002025640A00BB
:102A500025640000A80300207FB505460C4601212F
:102A60000820FEF74EF90020ADF80A00ADF8060088
:102A7000ADF80850ADF8044001A91748FEF76CFA0C
:102A8000012211461448FEF7DEFD32208DF80000C9
:102A900001208DF8030000208DF8010003208DF83F
:102AA00002006846FDF70DFD01210B48FEF7B0FD61
:102AB0007FBD10B501210848FFF773F858B14FF6F4
:102AC000E070FFF7ADFE4FF47840FFF7A9FE01215B
:102AD0000148FFF777F810BD000C004008B5012150
:102AE0001C20FEF701F948208DF803003420ADF8D2
:102AF00000006946C548FDF73BFE0220ADF8000026
:102B00006946C348FDF734FE0120ADF80000694670
:102B1000C048FDF72DFE08BD0EB5FFF7DFFF012110
:102B20000846FEF7E1F804210020FDF737FF1020EA
:102B3000019000208DF808000C208DF8090001207C
:102B40008DF80A0001A8FDF733FD05210020FDF7EF
:102B500025FF2020019000208DF808000C208DF822
:102B6000090001208DF80A0001A8FDF721FD0221CE
:102B70000020FDF713FF0420019000208DF80800CD
:102B80000C208DF8090001208DF80A0001A8FDF73E
:102B90000FFD00210220FDF701FF01200190002020
:102BA0008DF808000C208DF8090001208DF80A002E
:102BB00001A8FDF7FDFC01210846FDF7EFFE02200C
:102BC000019000208DF808000C208DF809000120EC
:102BD0008DF80A0001A8FDF7EBFC17208DF8000026
:102BE00002208DF8010000208DF8020001208DF8F0
:102BF00003006846FDF765FC0A208DF80000002000
:102C00008DF801008DF8020001208DF80300684660
:102C1000FDF757FC08208DF8000001208DF8010019
:102C200000208DF8020001208DF803006846FDF7B2
:102C300048FC06208DF8000000208DF801000120DE
:102C40008DF802008DF803006846FDF73AFC072076
:102C50008DF8000000208DF8010002208DF80200A0
:102C600001208DF803006846FDF72BFC0EBD70B502
:102C70000A20FFF7ECF91020FDF700FD00283AD0FC
:102C800010216248FDF707FEB0B96348007898B993
:102C9000002507E010215D48FDF7FDFD00B9002586
:102CA000681CC5B2642DF5DB00215C48FEF7B0FC62
:102CB0000120594908701BE010215448FDF7EBFD35
:102CC000B0B955480078012812D1002407E010213E
:102CD0004E48FDF7E0FD00B90024601CC4B2642C2E
:102CE000F5DB01214D48FEF793FC00204A490870AE
:102CF0001020FDF7D4FC70BD10B50A20FFF7A7F92E
:102D00002020FDF7BBFCF8B120214048FDF7C3FDB2
:102D1000B8B915E001214148FEF77AFC404909782D
:102D200001EB41013F4A52F8210000F0C5F83C4850
:102D30000078FFF7CCFA3A480078401C3849087010
:102D4000E8E72020FDF7ABFC10BD10B50A20FFF727
:102D50007EF90420FDF792FCB0B104212B48FDF769
:102D60009AFD70B9002407E004212848FDF793FD7F
:102D700000B90024601CC4B2642CF5DB01202A4990
:102D800008700420FDF78BFC10BD10B50A20FFF77A
:102D90005EF90120FDF772FCB0B101211D48FDF77D
:102DA0007AFD70B9002407E001211A48FDF773FD90
:102DB00000B90024601CC4B2642CF5DB01201B495F
:102DC00008700120FDF76BFC10BD10B50A20FFF75D
:102DD0003EF90220FDF752FCB0B102210C48FDF78C
:102DE0005AFD70B9002407E002210948FDF753FDA0
:102DF00000B90024601CC4B2642CF5DB01200C492E
:102E000008700220FDF74BFC10BD000000080140D7
:102E1000000C014000100140FB06002000040040AF
:102E2000FA060020D011002032000020FC0600200D
:102E3000FD06002008B544F20820FFF7F1FC26A0AB
:102E400044F208234FF6FF72002100900846FFF776
:102E50007AFD24A044F208234FF6FF72102100905F
:102E60000020FFF770FD22A044F208234FF6FF7206
:102E7000202100900020FFF766FD1FA044F20823E8
:102E80004FF6FF72302100900020FFF75CFD1CA080
:102E900044F208234FF6FF72402100900020FFF714
:102EA00052FD1AA044F208234FF6FF725021009001
:102EB0000020FFF748FD08BD38B5044644F208205D
:102EC000FFF7AEFC44F208234FF6FF72642108209E
:102ED0000094FFF738FD38BDCEB4CEC5BBA8C3FB08
:102EE00000000000CCECBFD5D6AEB3C70000000098
:102EF000C9FAC8D5B8E80000CDAFC4EA00000000A8
:102F0000C1BDD6BBC0CFBBA200000000CAC0C9CFA4
:102F1000D6BBD3D0C2E8C2E8BAC3000070470000F5
:102F20000FB4044910B503AA029800F0D3F810BCFE
:102F30005DF814FB2C0000202DE9F0410E460446FC
:102F4000002020622046E168884730B3252805D05C
:102F5000D4E901219047206A401CF2E7E16820464D
:102F600000278847050018D0A5F14100192802D88C
:102F700020354FF400673246294620462760FDF78A
:102F800035F940B1012804D0F61D26F007060836B1
:102F9000D8E7361DD6E72846DAE7206ABDE8F08193
:102FA0002DE9F0410646002410687529314616A522
:102FB00010D0AFF30080002802DA404213A507E0EA
:102FC00031688A0701D512A502E0490704D511A589
:102FD000012401E0AFF3008000210A2206F124075A
:102FE00009E0B0FBF2FCB0FBF2F302FB1C00303056
:102FF00078541846491C0028F3D123462A46304607
:10300000BDE8F04100F00CB8000000002D00000009
:103010002B00000020000000704770477047704789
:103020002DE9F0470D4699469246044600F12408E2
:103030000168880604D5E06921F01001216000E0F4
:103040000120A84201DD471B00E00027A1697A1991
:1030500002EB0900081AA0612078C00602D42046BD
:10306000AFF30080002608E0D4E901211AF8060039
:103070009047206A401C761C20624E45F4DB207885
:10308000C0060AD52046AFF3008006E0D4E901214E
:1030900030209047206A401C2062381EA7F10107AB
:1030A000F4DC07E0D4E9012118F805009047206A14
:1030B000401C2062281EA5F10105F3DC2046AFF379
:1030C00000802078000602D50220BDE8F0870120AC
:1030D000FBE70000074B70B50D467B4400F011F88C
:1030E0000446284600F020F810B14FF0FF3070BDC4
:1030F000204670BDD1EFFFFF01694A1C02610878CC
:10310000704700B58FB0CDE9013100210591054927
:103110007944CDE9031011466846FFF70DFF0FB063
:1031200000BD0000E5FFFFFF007B00F0800070475E
:10313000754600F02BF8AE4605006946534620F070
:103140000700854618B020B5FDF7A4F9BDE820407A
:103150004FF000064FF000074FF000084FF0000B53
:1031600021F00701AC46ACE8C009ACE8C009ACE806
:10317000C009ACE8C0098D46704710B50446AFF3EE
:1031800000802046BDE81040FDF742B80048704777
:10319000E0120020C1BDD6BBC0CFBBA20000000022
:1031A000CAC0C9CFD6BBD3D0C2E8C2E8BAC30000F8
:1031B000CCECBFD5D6AEB3C700000000C9FAC8D565
:1031C000B8E80000CDAFC4EA00000000CEB4CEC520
:1031D000BBA8C3FB00000000F8310008000000207D
:1031E000181200006C010008B839000818120020FD
:1031F00028070000D0010008500600A24A04000180
:10320000600901020304060708090C611090060218
:103210000406080001124104100F10101828282479
:103220003C444242E7000042151006F8444444780A
:103230000F10074244F80000432620053E4242801A
:103240000130074244380000442242420121221248
:103250004533900FFC424848784848404242FC00C1
:10326000004611100C4040E00000470000344C8242
:1032700043100D8E8484844C340000480000EE65B9
:1032800023447C05700A44EE00004900007C1001D4
:1032900010057C00004A76520801200788887000DB
:1032A000004B333008484850605048483350064C73
:1032B0000000E0400113424477400C4D0000C6443A
:1032C0006C6C6C5454545550184E0000CE446464D9
:1032D0006454544C4C4C44E400004F000038448289
:1032E0000121CC5250CB4004447840AA9251221084
:1032F0000ABA443C0200520000F0702004444870B6
:10330000061016E600005300003C44828040300C5A
:103310000202824478000054BB635492BB115552A0
:1033200055DD4101111152561112280111E52004F9
:10333000000057CC325401211430040000582221DF
:103340001E332828BB525911622855100F5A00000D
:103350007E44840808102020408284EE4661C11417
:103360000F7884047C84848C760000620000C06F37
:10337000275864981264524663E3273844BC218876
:10338000140A6400000C040404344C866007844C66
:103390003600006544100684FC808084CC300A66C8
:1033A000000018242020F8200115764A67271A3AD1
:1033B000116008807C82827C00686665BA2A694157
:1033C0007004000030FFB26A1140059060006B335A
:1033D000365CBC2133526C1E3611ED4005390000BD
:1033E0006D882004ACD292014005D600006EDD63EA
:1033F00058E466626FCC65BA42703322D8EE176427
:1034000058BB4271EE2236DD44074C34040E007284
:1034100021636C30CC5273EE24068884601884BA21
:103420001274306220EE40062418000075553AC62A
:10343000DB4006463A00007666658B700400007734
:103440001135BB1580612225BC21AA927933400732
:103450001010A0C0007ADD24077E4488102042BAF4
:103460004005D6D001000260053FF8210802210C7A
:1034700061181013B9FA00007FFC400440045FF4A7
:10348000410441044FE40620064441245FF4142122
:103490001A1004CCEC003E61301009FFFE0100025E
:1034A00080028031100D40082010102008C006BF97
:1034B000D5024A20077FFE400288241260050000E2
:1034C0001FF0781118218822AE22160179100B7F87
:1034D000F800100020004000804818110004001877
:1034E00000240043FE0000B3C720282010601D27E1
:1034F000FE2420FC20242427A424A424A824A83CBF
:1035000090E692492A08461082CEB4CA618A200DFC
:1035100003800540092011102108C1069C3008CE07
:10352000C5200017FC00CC4005444447C4041007E4
:1035300044745FC44044021029544008BBA80820CA
:103540000820FFFE082000000888089010A030C066
:1035500050809180128214821082107E1000C3FB72
:103560000298100A07F008101420624002A65C06B8
:1035700006001FF8E81F04300A0FF80808C9FA010E
:103580000011021C043FFC21D604928194252024C2
:10359000050000C8D5028D6404A10C410E2425B895
:1035A000E80020FF2002207A7E4A427A840010FF41
:1035B0001002107A104A284A287A2802440A440441
:1035C00082CDAF5420073FF8082004405440051F27
:1035D000F011100445021406FFFEC4EA104B200D42
:1035E0001FFC2080208040801FF810800211806224
:1035F00080021004C1BD002825AA4C0504407FFCB0
:10360000280420084AA44A9451144213C0061440C6
:1036100008D6BBAA41AC151C2005200810107B144D
:103620000404C0CF103408083FD002200240FC142C
:1036300009000C1018E02F00483F1C0408080794EC
:103640000517BBA28E1192150E1C080421602F884D
:103650002108D50350130023E022202220442448CF
:1036600024901CCAC00220120263FFFE0A2313E04A
:10367000C021C220040000C9667102A303F80E36FF
:1036800002540120AA43D3D02C1A0456160FC0208E
:103690000918102FF0481088100C11023409500836
:1036A00020C2E8100013982004FD1025021414FC19
:1036B00024044804280413F4280444048428001033
:1036C000BAC3541809FC10041008FC10248F1A25E2
:1036D0008E1A48991A109D1805442084A0B85DCE12
:1036E00006100CE204BA02380110033801700421FC
:1036F0000C20051704A9030C2009100371021704FC
:103700007102082118124B0420057003A9030C4311
:1037100093023832931840057102930224214832F3
:103720000B0C2138415412A44052A40C52106403D3
:103730002C1003784164413C120B7C1DA3051168D9
:1037400001347C2005BA025307F8419C217841E8F6
:1037500081041004380197042108413CC37102041C
:10376000611861544174E51061B021D09610004594
:103770005C013680E17C8174564B900516881610EA
:10378000BC0611100809FF0009F900162AD4366E8C
:10379000D043A90308180471023F68166ED01006C2
:1037A0009F0171022A185C06EE0138012A68034362
:1037B000EE01181006B801A9039F184BB801742533
:1037C0009C211821F8126E34211843B801482104B5
:1037D0002300004C011A6C21402168011670490039
:1037E0002138526E1C32E44041482D1004612052B1
:1037F0002A74213C522A7C2D8C031AE44C1E3FC0B3
:103800000441384DD4031EDCC00352E4D81006E452
:10381000029C009304526E086DC403616821AC8160
:10382000C421D84570214056932821B02DA80321EA
:1038300060411841E4011038052668000516710240
:103840004A01F841500116F86DEC0321906DCC054A
:1038500032DCF401101C3E97040563E20434800757
:10386000200671022705341A70B02D2C04837505CB
:103870001861346104016E702DC40365F821042DB4
:10388000C0065EDCD0052DC0052F2705C80545E420
:1038900041EC27E20430011E2820052705E204142C
:1038A000127504100620063801E09C251061FC21E9
:1038B0002C419441706D140641544D9005610845AA
:1038C0006C4540011AA4210C216C217C0124282381
:1038D0005307A063E006D805200021D82D28030156
:1038E00010DC41EC0136DC250476550C2D28034113
:1038F000046D180452E4042D34068D8803C1206140
:10390000105E3F88082904A10C0110644D0C0301CE
:1039100016186DD403E10C01AAAC5E70B0052D44FD
:10392000046D5003DA70CC8DDC074D08042D2C0794
:103930002D18092D9805413C2D24091C04E2044B47
:103940009405DE938C082D880541302DBC03412061
:10395000A14021082F880128090184881C06000144
:10396000770038B30F2E564F111E077C0D1C110B1C
:103970000020DC0C0020BC0D0020440F00209C9097
:103980000D4C04CC3100AC11112012B00C2DAA0D3D
:10399000212812BC0C1D250622003012C40C1E0367
:1039A000B30E213812940C2D0112214012A00C1ECE
:0839B00005530F21480000003F
:0400000508000131BD
:00000001FF
