:101C6E00D3EF9400EE940040147D657C18ED1D704A
:0D1C7E00011CED4C70F7EF1F70E61E80E3B7
:011C8B002236
:101D1800EF1FAA0670011E4A600BE4FDEDC3947B19
:051D280050EE0D80F7F4
:011D2D002293
:081942009000CEEEF0A3EFF0DF
:10194A00121D557FA0121A9F400280169000CEE009
:10195A00FF121A9F4002800A9000CFE0FF121A9FDE
:10196A004006121D2E7FEE22121D557FA1121A9FCC
:10197A004006121D2E7F0022121B739000D0EFF03A
:08198A00121D2E9000D0E0FFB9
:011992002232
:101A2400900114EEF0A3EFF0A3EDF0121D557FA08A
:101A3400121A9F40028022900114E0FF121A9F4064
:101A4400028016900115E0FF121A9F4002800A904E
:101A54000116E0FF121A9F4005121D2EC322121D0B
:031A64002ED3225C
:10172800900100EEF0A3EFF0A3EBF0A3EAF0A3E939
:01173800F0C0
:10173900A3E0FFD394405003EF7002C322121D555A
:101749007FA0121A9F40028016900100E0FF121A32
:101759009F4002800A900101E0FF121A9F40051282
:101769001D2EC322E4900106F0900105E0FFA3E0DD
:10177900FEC39F501F900102E0FBA3E0FAA3E0F92A
:101789008E82758300120C66FF121A9F900106E083
:0817990004F080D5121D2ED3CF
:0117A1002225
:10141600900107EEF0A3EFF0A3EBF0A3EAF0A3E947
:01142600F0D5
:10142700A3E0FFD394405003EF7002C322121D556F
:101437007FA0121A9F40028022900107E0FF121A34
:101447009F40028016900108E0FF121A9F40028019
:101457000A121D557FA1121A9F4005121D2EC32285
:10146700E490010DF090010CE014FFA3E0C39F503E
:1014770023121BA6900109E0FBA3E0FAA3E0F99071
:10148700010DE0F582758300EF120C9390010DE0DA
:1014970004F080D1121B7390010CE024FFFDE434AB
:1014A700FFFC900109E0FBA3E0FAA3E0F98D828C31
:0914B70083EF120C93121D2ED3D9
:0114C0002209
:101D5500D297D29600000000C29700000000C296FC
:011D6500225B
:101D2E00C296C29700000000D29600000000D29723
:051D3E0000000000227E
:101A9F007E80EE601B5F7004C2978002D2970000B9
:101AAF000000D29600000000C296EEC313FE80E243
:101ABF00D29700000000D296A297920D000000006E
:051ACF00C296A20DB358
:011AD40022EF
:101B7300D2977E80EE601D00000000D2962097056C
:101B8300F45FFF8003EF4EFF00000000C296EEC338
:101B930013FE80E0D29700000000D2960000000000
:021BA300C296E8
:011BA500221D
:101BA600D2977E80EE601800000000D29620970340
:101BB600F45FFF00000000C296EEC313FE80E5C28C
:0D1BC6009700000000D29600000000C296BB
:011BD30022EF
:101D4300121D55EF25E0FF121A9F920E121D2EA2AF
:011D53000E81
:011D5400226C
:10160400F88BF95BFA14FA66FB03FB8FFC0BFC43C3
:10161400FCABFD08FD33FD81FDC7FE05FB21FE5536
:10162400FE84FE99FEC0FEE3FF0201060125014986
:10163400015D018801B801EE020B024A029202B96F
:10164400030F036F03DB0415049305240571061BC4
:1016540006DB07B33F8000003F0000003E8000002F
:101664003E0000003D8000003D0106253C80000056
:10167400000000C001800240030003C00480054054
:10168400060006C007800840090009C00A800B4014
:081694000C000CC00D800E409B
:0E1C27004400C7402000004400013F000000C0
:10001E0057656C636F6D6520746F206D79005B4D55
:10002E00555349435D000000000000000000002F02
:10003E00000000000700070000147F147F14002446
:10004E002A7F2A1200626408132300364955225073
:10005E0000000503000000001C22410000004122A8
:10006E001C000014083E08140008083E0808000092
:10007E0000A060000008080808080000606000008A
:10008E00002010080402003E5149453E0000427F08
:10009E004000004261514946002141454B31001854
:1000AE0014127F10002745454539003C4A49493016
:1000BE0000017109050300364949493600064949D0
:1000CE00291E0000363600000000563600000008DB
:1000DE0014224100001414141414000041221408B8
:1000EE0000020151090600324959513E007C12119D
:1000FE00127C007F49494936003E41414122007F32
:10010E004141221C007F49494941007F09090901EB
:10011E00003E4149497A007F0808087F0000417F70
:10012E004100002040413F01007F08142241007F22
:10013E0040404040007F020C027F007F0408107F89
:10014E00003E4141413E007F09090906003E4151F2
:10015E00215E007F091929460046494949310001AF
:10016E00017F0101003F4040403F001F2040201F03
:10017E00003F4038403F00631408146300070870C6
:10018E00080700615149454300007F414100005579
:10019E002A552A55000041417F0000040201020445
:1001AE000040404040400000010204000020545432
:1001BE005478007F48444438003844444420003882
:1001CE004444487F00385454541800087E090102F4
:1001DE000018A4A4A47C007F080404780000447DC9
:1001EE004000004080847D00007F10284400000005
:1001FE00417F4000007C04180478007C08040478D9
:10020E0000384444443800FC2424241800182424C4
:10021E0018FC007C080404080048545454200004C0
:10022E003F444020003C4040207C001C2040201CCD
:10023E00003C4030403C004428102844001CA0A044
:10024E00A07C004464544C44141414141414000080
:10025E000000000000000000000000000000000090
:10026E0000F8000000000000003330000000001015
:10027E000C06100C0600000000000000000040C03C
:10028E007840C0784000043F04043F04040000702E
:10029E0088FC08300000001820FF211E0000F00826
:1002AE00F000E018000000211C031E211E0000F0CB
:1002BE000888700000001E21232419272110101613
:1002CE000E00000000000000000000000000000012
:1002DE0000E0180402000000000718204000000291
:1002EE000418E00000000040201807000000404005
:1002FE0080F0804040000202010F01020200000067
:10030E0000F0000000000101011F010101000000CA
:10031E0000000000000080B070000000000000002F
:10032E0000000000000000010101010101010000B8
:10033E00000000000000003030000000000000004F
:10034E00000080601804006018060100000000E044
:10035E0010080810E000000F102020100F000010F1
:10036E0010F8000000000020203F20200000007048
:10037E000808088870000030282422213000003040
:10038E000888884830000018202020110E00000038
:10039E00C02010F8000000070424243F240000F8B9
:1003AE000888880808000019212020110E0000E09E
:1003BE00108888180000000F112020110E00003840
:1003CE000808C83808000000003F00000000007058
:1003DE00880808887000001C222121221C0000E0E1
:1003EE0010080810E0000000312222110F0000005A
:1003FE0000C0C0000000000000303000000000000F
:10040E00008000000000000080600000000000007E
:10041E008040201008000001020408102000404017
:10042E00404040404000040404040404040000085A
:10043E00102040800000002010080402010000700F
:10044E0048080808F0000000003036010000C030F7
:10045E00C828E810E0000718272423140B0000001A
:10046E00C038E0000000203C23020227382008F8A4
:10047E00888888700000203F202020110E00C03098
:10048E00080808083800071820202010080008F86F
:10049E0008080810E000203F202020100F0008F868
:1004AE008888E8081000203F20202320180008F834
:1004BE008888E8081000203F200003000000C030AC
:1004CE0008080838000007182020221E020008F82D
:1004DE0008000008F808203F210101213F200008F4
:1004EE0008F8080800000020203F2020000000002F
:1004FE000808F8080800C08080807F00000008F817
:10050E0088C028180800203F20012638200008F84F
:10051E00080000000000203F20202020300008F8B6
:10052E00F800F8F80800203F003F003F200008F8D0
:10053E0030C00008F808203F200007183F00E010E8
:10054E0008080810E0000F10202020100F0008F8F7
:10055E0008080808F000203F210101010000E0100A
:10056E0008080810E0000F18242438504F0008F82F
:10057E00888888887000203F2000030C302000708F
:10058E008808080838000038202121221C0018088D
:10059E0008F8080818000000203F2000000008F8A6
:1005AE0008000008F808001F202020201F000878EF
:1005BE00880000C83808000007380E010000F8084F
:1005CE0000F80008F800033C0700073C0300081879
:1005DE0068808068180820302C03032C30200838DF
:1005EE00C800C83808000000203F20000000100896
:1005FE000808C838080020382621202018000000DE
:10060E0000FE020202000000007F40404000000C8D
:10061E0030C000000000000000010638C0000002DB
:10062E000202FE000000004040407F00000000007B
:10063E00040202020400000000000000000000009E
:10064E00000000000000808080808080808000029A
:10065E000204000000000000000000000000000086
:10066E008080808000000019242222223F2008F87A
:10067E00008080000000003F112020110E000000BD
:10068E00008080800000000E11202020110000004C
:10069E0000808088F800000E112020103F200000FE
:1006AE00808080800000001F222222221300008002
:1006BE0080F0888888180020203F2020000000004D
:1006CE00808080808000006B94949493600008F882
:1006DE00008080800000203F210000203F2000800D
:1006EE009898000000000020203F2020000000000D
:1006FE0000809898000000C08080807F000008F87D
:10070E00000080808000203F24022D302000000851
:10071E0008F8000000000020203F2020000080800C
:10072E00808080808000203F20003F20003F80801E
:10073E00008080800000203F210000203F2000002C
:10074E00808080800000001F202020201F008080DD
:10075E0000808000000080FFA12020110E0000000C
:10076E00008080808000000E112020A0FF808080FD
:10077E0080008080800020203F21200001000000AA
:10078E00808080808000003324242424190000807F
:10079E0080E0808000000000001F2020000080808C
:1007AE00000000808000001F202020103F2080804D
:1007BE0080000080808000010E30080601008080DD
:1007CE000080008080800F300C030C300F00008002
:1007DE008000808080000020312E0E31200080802D
:1007EE0080000080808080818E701806010000805D
:1007FE008080808080000021302C2221300000007B
:10080E000000807C020200000000003F404000001B
:10081E000000FF00000000000000FF0000000002CA
:10082E00027C800000000040403F000000000006F7
:10083E00010102020404000000000000000000009C
:10084E00000000000000FF0C187000000000000007
:10085E0000307878783E0100000000000000303053
:10086E00303030303030000000000000000000FF5B
:10087E00183C7EFF00000000FF7E3C18FF0000FFCA
:0E088E00FF0000FFFF000000FF7E3C1800008E
:101C00009000EAE0FF2408FB9000DE7407F0A37464
:101C1000FFF0A37408F0A3746CF07D071217A29074
:071C200000EAE02408F022B5
:101A6700E49000EAF09000DAF09000DAE0C39480A6
:101A77005025E0FF2408FB9000DE7407F0A374FFF5
:101A8700F0A37408F0A37474F07D071217A29000F6
:071A9700DAE02408F080D220
:011A9E002225
:101CE2009000DE7406F0A374FFF0A37408F0A374EE
:0B1CF2008CF07B407D067F380217A2BB
:101CFD009000DE7406F0A374FFF0A37408F0A374D3
:0B1D0D0094F07B407D067F380217A297
:1018EF00E49000CBF0A3F0A3F0A3F09000CBE0FEC8
:1018FF00A3E0FF2405F58274003EF583E0FB603220
:10190F00C3EF940EEE940050299000CDA3E0FF7D1D
:10191F00031214C19000CCE004F070069000CBE0ED
:10192F0004F09000CEE02408F09000CDE03400F0F9
:02193F0080B96D
:011941002283
:101181009000DE7401F0A374FFF0A37408F0A3745F
:101191004CF07B10E4FDFF1217A27B53E4FD7F109E
:1011A1001214C17B6FE4FD7F181214C17B6EE4FD44
:1011B1007F201214C17B67E4FD7F281214C17B3AA2
:1011C100E4FD7F301214C17B30E4FD7F381214C17D
:1011D1007B31E4FD7F401214C17B707D067F1812C4
:1011E10018907B727D067F1E1218907B657D067FAD
:1011F100241218909000DE7406F0A374FFF0A3741B
:1012010008F0A3747CF07B387D067F301217A29022
:1012110000DE7406F0A374FFF0A37408F0A3748CCD
:10122100F07B407D067F381217A29000DE7406F035
:10123100A374FFF0A37408F0A37484F07B487D06C7
:101241007F401217A27B6E7D067F4C1218907B6542
:101251007D067F521218907B787D067F5812189078
:091261007B747D067F5E0218908B
:101BD4009000C5E0FF75F00A849000CBE5F0F0EFCB
:101BE40075F00A842430FBE4FD7F381214C19000A0
:0C1BF400CBE02430FBE4FD7F400214C174
:10156A009000CC740CF0E49000CBF09000CBE0FE3D
:10157A00C3940D501DA3E0FFEE90001E93FB7D0166
:10158A001214C19000CCE02408F09000CBE004F0E3
:10159A0080D99000CC7424F0E49000CBF09000CB7A
:1015AA00E0FEC39407501DA3E0FFEE90002C93FBCE
:1015BA007D041214C19000CCE02408F09000CBE026
:1015CA0004F080D99000DE7405F0A374FFF0A374D0
:1015DA0008F0A3744CF07B207D047F101217A290B0
:1015EA0000DE7405F0A374FFF0A37408F0A3744C32
:0A15FA00F07B707D047F600217A2F1
:101AD500E4900117F0A3F0900117E0FEA3E0FFC327
:101AE500940FEE9400501DEF75F008A4FF7B207D48
:101AF500031214C1900118E004F070DB900117E0A7
:041B050004F080D395
:011B090022B9
:10126A007FAE121C4EE4FDFCFFFE121C52121C4CF7
:10127A00E4FDFC7F40FE121C52E4FDFC7FB0FE122E
:10128A001C52E4FDFC7F81FE121C52E4FDFC7FFF30
:10129A00FE121C52E4FDFC7FA1FE121C52E4FDFC6E
:1012AA007FA6FE121C52E4FDFC7FA8FE121C52E42B
:1012BA00FDFC7F3FFE121C52E4FDFC7FC8FE121C9F
:1012CA0052E4FDFC7FD3FE121C52E4FDFCFFFE1229
:1012DA001C52E4FDFC7FD5FE121C52E4FDFC7F800B
:1012EA00FE121C52E4FDFC7FD8FE121C52E4FDFCE7
:1012FA007F05FE121C52E4FDFC7FD9FE121C52E44B
:10130A00FDFC7FF1FE121C52E4FDFC7FDAFE121C8A
:10131A0052E4FDFC7F12FE121C52E4FDFC7FDBFE50
:10132A00121C52E4FDFC7F30FE121C52E4FDFC7FCD
:10133A008DFE121C52E4FDFC7F14FE121C52E4FDC9
:07134A00FC7FAFFE021C5204
:061C4C007F10E4FDFCFE28
:101C52009000E7EEF0A3EFF0ED4C9000E76006A3F2
:0C1C6200E0FF021CA9A3E0FF121C8C2272
:101C8C009000E9EFF0121D557F78121A9FE4FF12B5
:0D1C9C001A9F9000E9E0FF121A9F021D2E12
:101CA9009000E9EFF0121D557F78121A9F7F4012BC
:0D1CB9001A9F9000E9E0FF121A9F021D2EF5
:10199300E49000CBF09000CBE0FFC39408503BEF02
:1019A30024B0FFE433FEE4FDFC121C52E4FDFCFF13
:1019B300FE121C52121C4CE49000CCF07D017C0002
:1019C300E4FFFE121C529000CCE004F0E0C39480CC
:0A19D30040EA9000CBE004F080BB76
:0119DD0022E7
:101B0A009000E6EFF0ED24B0FFE433FEE4FDFC12B2
:101B1A001C529000E6E054F0C4540F7E004410FFBB
:101B2A00E4FDFC121C529000E6E0540FFF7E00E434
:051B3A00FDFC021C523D
:04189000A907AA05F5
:10189400EB24E0FFE434FFFE7C007D06120CB590DF
:1018A40000CCEEF0A3EFF0AF01AE02AD06121B0ABE
:1018B400E49000CBF09000CBE0FFC39406502B9053
:1018C40000CDE02FFF9000CCE03400FE74342FF5FF
:1018D4008274003EF583E493FF7E007D017C001258
:0A18E4001C529000CBE004F080CB12
:0118EE0022D7
:0914C1009000CFEFF0FCA3EDF068
:1014CA00EB24E0FFE434FFFEEFC4F8540FC868FFD2
:1014DA00EEC454F048A3F0A3EFF0AF04121B0AE4E1
:1014EA009000D3F09000D3E0FFC39408502B9000F3
:1014FA00D2E02FFF9000D1E03400FE745C2FF58219
:10150A0074023EF583E493FF7E007D017C00121C89
:10151A00529000D3E004F080CB9000CFE0FFA3E02C
:10152A0004FD121B0AE49000D3F09000D3E0FFC33D
:10153A009408502B9000D2E02FFF9000D1E03400A5
:10154A00FE74642FF58274023EF583E493FF7E00F5
:0F155A007D017C00121C529000D3E004F080CB86
:01156900225F
:0A17A2009000DBEFF09000DDEBF0AB
:1017AC00E49000E2F0A3F09000E5EDF09000DEE0B4
:1017BC00FF9000E5E0FDD39F50529000DBE0FF125C
:1017CC001B0A9000DBE09000E4F09000DDE0FF905D
:1017DC0000E4E0C39F502D9000DFE0FBA3E0FAA3F0
:1017EC00E0F9A3E475F001120D1C85F082F583126B
:1017FC000C66FF7E007D017C00121C529000E4E020
:0C180C0004F080C69000E5E004F080A02D
:0118180022AD
:101C350041010EFF41010F00C181C18AC18BC184E1
:061C4500C187C188C180C7
:1019DE00D2AF75891112126A12000E121D661219FB
:1019EE0093121CC612156A7FF47E01121C6EE490CF
:1019FE0000C5F090011004F0121993121181121308
:101A0E0051121BD41218EF120D991218197FC87E9D
:061A1E0000121C6E80E2C4
:100D99009000CC120D5C000000009000D0120D5C98
:100DA900000000009000D47410F0C20CD203C209F4
:100DB900C206E4900112F0A3F0121A67900014E041
:100DC900FCE4120BB1E4FBFAF97842120A9D900097
:100DD900EB120D50E49000CBF09000CBE0FFC394F0
:100DE90010503FEF2401FDE433FCE4120BAC9000FA
:100DF900EBE0F8A3E0F9A3E0FAA3E0FB120994E41D
:100E0900FBFAF9783F1208A3120BE59000CBE02416
:100E1900EFF582E43400F583EFF09000CBE004F0C5
:100E290080B7E49000FFF0300203021080300C0319
:100E390002108030060A3003EEC203121CFD80E75F
:100E4900200305D203121CE230054B900111E0FF8B
:100E5900B404159000D4E0C3941A50057410F080BE
:100E6900079000D4E024F6F0EFB405079000D4E031
:100E7900240AF0C205E4900111F0A3F0A3F0C2091D
:100E89009000CC120D5C000000009000D0120D5CA7
:100E9900000000008091300921900112E0FCA3E0DC
:100EA900FDE4120BAC9000D0E0F8A3E0F9A3E0FA5E
:100EB900A3E0FB120B3A5002C209900112E0FCA315
:100EC900E0FDE4120BAC9000CCE0F8A3E0F9A3E05C
:100ED900FAA3E0FB120B3A60054003020E30E490DE
:100EE9000112F0A3F09000D4E0FF2405F582E43468
:100EF90000F583E0FE9000D5F074062FF582E43406
:100F090000F583E09000D6F09000D4E02402F0EEE2
:100F190070149000D6E0700ED20C90010E74FFF0A0
:100F2900E4A3F0020E309000D5E0FD75F00A84E5E7
:100F3900F0149000D7F0ED75F00A8414A3F0900036
:100F4900D6E0FF75F00A849000D9E5F0F0EF75F06E
:100F59006484FF70249000D6E025E025E02458F54C
:100F690082E43416F583120D409000C7E0F8A3E03F
:100F7900F9A3E0FAA3E0FB802C9000D9E025E02555
:100F8900E02458F582E43416F583120D409000C729
:100F9900E0F8A3E0F9A3E0FAA3E0FB120994E4FB6B
:100FA900FA79C0783F120994C004C005C006C00789
:100FB9009000D8E075F00EA4242EF582E43416F5DD
:100FC90083C083C0829000D7E0D082D08375F002BD
:100FD900120D8DE493FC740193FDE4120BACD00364
:100FE900D002D001D0001209949000CC120D50907B
:100FF9000001E0FCA3E0FDA3E0FEA3E0FF9000CC2C
:10100900E0F8A3E0F9A3E0FAA3E0FB120994900049
:10101900D0120D509000D8E075F00EA42404F5828A
:10102900E43416F583C083C0829000D7E0D082D023
:101039008375F002120D8DE493FC740193FDEC901D
:10104900010EF0A3EDF0D2099000D4E024F0FFE402
:1010590034FFC313EF13FF9000FFE024EFF582E4A0
:101069003400F583E06F6003020E309000FFE00466
:0E107900F0121C00020E30C209E49000FFF0DD
:011087002246
:03000B00021B3F96
:101B3F00C0E0C083C08290010EE0F58CA3E0F58A6F
:101B4F0020061A200517900113E004F0700690018B
:101B5F0012E004F0300904B2958002D295D082D001
:041B6F0083D0E0320D
:03001B0002108848
:10108800C0E0C0F0C083C082C0D075D000C000C02E
:1010980001C002C003C004C005C006C007758D8822
:1010A800758B00D292D293D291D290D294D2B1D2EF
:1010B800B030010C209209200604D2068002C20634
:1010C800300B0B209308D2029001117402F0300A01
:1010D8000B209108D2029001117403F030040B2008
:1010E8009008D2059001117404F030070B20940881
:1010F800D2059001117405F030082220B11F90002C
:10110800C7E0FCA3E0FDA3E0FEA3E0FF7BCD7ACC23
:10111800794C783E1208A39000C7120D5030002277
:1011280020B01F9000C7E0FCA3E0FDA3E0FEA3E011
:10113800FF7BCD7ACC794C783E12089F9000C7127D
:101148000D50A2929201A291920AA293920BA290A0
:101158009204A2949207A2949208A2949200D007B3
:10116800D006D005D004D003D002D001D000D0D012
:09117800D082D083D0F0D0E03227
:08000300C202E4900111F02299
:101CC6009000C674EEF09000C6E0B4EE0E7411FFFC
:0C1CD600FE1219429000C6EFF080EB22D5
:1018190020022C900110E0FB70199000C5E0240112
:10182900FFE433FE9000C6E0FD7C00120CC7900077
:10183900C5EDF0EB640170479000C5E0F080409081
:101849000111E0FBB402199000C5E02401FFE43363
:10185900FE9000C6E0FD7C00120CC79000C5EDF0BB
:10186900EBB4031B9000C6E0FD7C009000C5E02DA1
:10187900FFE433CF24FFCF34FFFE120CC7EDF0C2D3
:0718890002E4900111F022BE
:10135100E49000CBF09000CBE0FFC394C050147434
:10136100052FF582E43400F583E4F09000CBE0042E
:10137100F080E27BEE9000C5E025E02474F582E484
:101381003416F583E493FF7401939000CCCFF0A35E
:10139100EFF0EBB4EE159000CDE0240FFF9000CC00
:1013A100E03400FE121942AB0780E7EB701B90009E
:1013B100C5E02401FFE433FE9000C6E0FD7C00128D
:1013C1000CC79000C5EDF080AAE49000CBF07BEE55
:1013D100EBB4EE0F9000CCE0FEA3E0FF121942AB9C
:1013E1000780ED9000CBE02405F582E43400F5831D
:1013F100EBF09000CDE004F070069000CCE004F03A
:101401009000CBE004F0E0C394C040C2900014E02F
:04141100900000F057
:0114150022B4
:0B000E00758CFFE4F58AD2A9D28C2289
:0B1D6600758DB8E4F58BD2ABD28E2255
:10089C00020C51E86480F8E933E83360110460F02D
:1008AC00ED33EC337009E8FCE9FDEAFEEBFF2204C2
:1008BC0060DED3EB9FEA9EE99DE8C2E78CF0C2F7BD
:1008CC0095F0400CE8CCF8E9CDF9EACEFAEBCFFB89
:1008DC00120C1C85D0F05804700320D5B3E80470BA
:1008EC00075002B2D5020C5B92D5EC0460F7E4CC55
:1008FC00C0E0C398F8603B94186008400DD0E0FB52
:10090C00020C33E4FBFAC9FC8028E830E406E4C9A5
:10091C00FBE4CAFCE830E305E4C9CACBFCE85407A5
:10092C006010F8C3E913F9EA13FAEB13FBEC13FCB0
:10093C00D8F130F52FC3E49CFCEF9BFFEE9AFEED53
:10094C0099FDD0E0FBEF4E4D4C701222DB03020CF4
:10095C0058EC2CFCEF33FFEE33FEED33FDED30E7BE
:10096C00EB020C33EF2BFFEE3AFEED39FDD0E0FB42
:10097C0050130BBB0003020C5BED13FDEE13FEEFEB
:08098C0013FFEC13FC020C3315
:10099400EC4D6011E8497017ED33EC3304600DE45D
:1009A400FCFFFEFD22E933E8330470F8020C511217
:1009B4000C1C58046009E4CC248150062850090218
:1009C4000C5B284003020C58C0E0EB4A7044B98029
:1009D40006D0E0FB020C47EF4E701CBD8008EBFF15
:1009E400EAFEE9FD80EBE98DF0A4FEE5F0020A7D64
:1009F400E9CDF9EAFEEBFFEF89F0A4FCE5F0CE893E
:100A0400F0A42EFFE435F0CD89F0A42DFEE435F0FA
:100A14008067EF4E7005BD80D780C3EF8BF0A4AC28
:100A2400F0EE8BF0A42CFCE435F0F8EF8AF0A42C63
:100A3400E5F038FCE433CB8DF0A42CFCE5F03BF876
:100A4400EE8AF0A42CFCE5F038F8E433CF89F0A466
:100A54002CFCE5F038CF3400CE89F0A42FFFE5F06C
:100A64003EFEE433C98DF0A42EFEE5F039CD8AF0C4
:100A7400A42FFFE5F03EFEE43DFD33D0E0FB50073C
:100A84000BBB000F020C5BEC2CFCEF33FFEE33FED0
:060A9400ED33FD020C33FE
:100A9A00020C5BEC5D046005E859047003020C511A
:100AAA00120C1C580460F6EC4860F2EC7004FDFE6F
:100ABA00FF22C860DB2481C85009C398600250062F
:100ACA00020C589850CAF582E9294B4A7005AB8244
:100ADA00020C4775F0007C1A7880C3EF9BEE9AED02
:100AEA0099400DC3EF9BFFEE9AFEED99FDE842F0A7
:100AFA00DC23ACF0D0E0FFD0E0FED0E0FDAB8220FA
:100B0A00E7101BEB60BAEC2CFCEF33FFEE33FEED83
:100B1A0033FD020C33E803F830E705C0F075F00046
:100B2A00EF2FFFEE33FEED33FD40B830E7C280AA67
:100B3A0074F8CC6480CCC86480C8F582046043C36E
:100B4A00EB9FF5F0EA9E42F0E99D42F0E89C45F001
:100B5A0060305018E5825FFFE582F42B5582FB5026
:100B6A00210ABA001D09B90019088016E5825BFB43
:100B7A00E582F42F5582FF50090EBE00050DBD0017
:100B8A00010CC3EB9FF5F0EA9E42F0E99D42F0E8C2
:0D0B9A009C45F06007CC4820E701B3EC2239
:100BA70075F020800E75F010800575F0087D007EC9
:100BB700007F003392D530D503120D32EC3340104D
:100BC700EF33FFEE33FEED33FDEC33FCD5F0ED22D2
:0E0BD700E5F0247EA2D513CC92E7CDCEFF220E
:100BE500EDD2E7CD33EC3392D524814006E4FFFE08
:100BF500FDFC22FCE4CFCECDCC24E0501174FF8067
:100C0500EDC3CC13CCCD13CDCE13CECF13CF047003
:070C1500F030D5DE020D32C4
:100C1C00E9D2E7C933E833F892D5EDD2E7CD33EC1E
:070C2C0033FC5002B2D52297
:100C3300EC30E7100FBF000C0EBE00080DBD000422
:100C43000BEB6014A2D5EB13FCED92E7FD2274FFCE
:100C5300FCFDFEFF22E480F8A2D574FF13FC7D8027
:030C6300E480EF3B
:0300000002169C49
:0C169C00787FE4F6D8FD7581210216E38A
:100C6600BB010CE58229F582E5833AF583E0225043
:100C760006E92582F8E622BBFE06E92582F8E2228D
:0D0C8600E58229F582E5833AF583E49322A7
:100C9300F8BB010DE58229F582E5833AF583E8F097
:100CA300225006E92582C8F622BBFE05E92582C843
:020CB300F2222B
:100CB500EF8DF0A4A8F0CF8CF0A428CE8DF0A42E53
:020CC500FE220D
:100CC700BC000BBE0029EF8DF084FFADF022E4CC11
:100CD700F875F008EF2FFFEE33FEEC33FCEE9DECDA
:100CE700984005FCEE9DFE0FD5F0E9E4CEFD22ED20
:100CF700F8F5F0EE8420D21CFEADF075F008EF2F6A
:100D0700FFED33FD4007985006D5F0F222C398FD5A
:050D17000FD5F0EA22F7
:100D1C00A3F8E0C5F025F0F0E5821582700215838A
:060D2C00E0C838F0E822E7
:0E0D3200C3E49FFFE49EFEE49DFDE49CFC22D2
:100D4000E493FC740193FD740293FE740393FF22F9
:0C0D5000ECF0A3EDF0A3EEF0A3EFF02216
:100D5C00A8828583F0D083D082120D73120D73128A
:100D6C000D73120D73E473E493A3C583C5F0C583AF
:100D7C00C8C582C8F0A3C583C5F0C583C8C582C8E1
:010D8C002244
:0C0D8D00A42582F582E5F03583F5832271
:1016A8000219DEE493A3F8E493A34003F68001F261
:1016B80008DFF48029E493A3F85407240CC8C33343
:1016C800C4540F4420C8834004F456800146F6DF12
:1016D800E4800B0102040810204080901C27E47E5F
:1016E800019360BCA3FF543F30E509541FFEE49307
:1016F800A360010ECF54C025E060A840B8E493A3CE
:10170800FAE493A3F8E493A3C8C582C8CAC583CAF8
:10171800F0A3C8C582C8CAC583CADFE9DEE780BEB0
:011C4B000098
:00000001FF
