:080BF50090002FEEF0A3EFF0D9
:100BFD00120DEA7FA0120CCD4002801690002FE05E
:100C0D00FF120CCD4002800A900030E0FF120CCD97
:100C1D004006120DC37FEE22120DEA7FA1120CCDFC
:100C2D004006120DC37F0022120D03900031EFF02C
:080C3D00120DC3900031E0FF2D
:010C4500228C
:100C8A0090001CEEF0A3EFF0A3EDF0120DEA7FA0A6
:100C9A00120CCD4002802290001CE0FF120CCD40C5
:100CAA0002801690001DE0FF120CCD4002800A90CF
:100CBA00001EE0FF120CCD4005120DC3C322120D17
:030CCA00C3D3226F
:100B7B0090001CEEF0A3EFF0A3EBF0A3EAF0A3E9D7
:010B8B00F079
:100B8C00A3E0FFD394405003EF7002C322120DEA8E
:100B9C007FA0120CCD4002801690001CE0FF120CBE
:100BAC00CD4002800A90001DE0FF120CCD400512D2
:100BBC000DC3C322E4900022F0900021E0FFA3E0DB
:100BCC00FEC39F501F90001EE0FBA3E0FAA3E0F9C8
:100BDC008E82758300120829FF120CCD900022E042
:080BEC0004F080D5120DC3D303
:010BF40022DE
:100A4400900023EEF0A3EFF0A3EBF0A3EAF0A3E908
:010A5400F0B1
:100A5500A3E0FFD394405003EF7002C322120DEAC6
:100A65007FA0120CCD40028022900023E0FF120CE3
:100A7500CD40028016900024E0FF120CCD4002808C
:100A85000A120DEA7FA1120CCD4005120DC3C32237
:100A9500E4900029F0900028E014FFA3E0C39F50E4
:100AA50023120D36900025E0FBA3E0FAA3E0F990B0
:100AB5000029E0F582758300EF120856900029E0C1
:100AC50004F080D1120D03900028E024FFFDE434EA
:100AD500FFFC900025E0FBA3E0FAA3E0F98D828CF2
:090AE50083EF120856120DC3D371
:010AEE0022E5
:100DEA00D297D29600000000C29700000000C29677
:010DFA0022D6
:100DC300C296C29700000000D29600000000D2979E
:050DD3000000000022F9
:100CCD007E80EE601B5F7004C2978002D297000099
:100CDD000000D29600000000C296EEC313FE80E223
:100CED00D29700000000D296A29792020000000059
:050CFD00C296A202B343
:010D020022CE
:100D0300D2977E80EE601D00000000D296209705EA
:100D1300F45FFF8003EF4EFF00000000C296EEC3B6
:100D230013FE80E0D29700000000D296000000007E
:020D3300C29666
:010D3500229B
:100D3600D2977E80EE601800000000D296209703BE
:100D4600F45FFF00000000C296EEC313FE80E5C20A
:0D0D56009700000000D29600000000C29639
:010D6300226D
:100DD800120DEAEF25E0FF120CCD9200120DC3A20E
:010DE800000A
:010DE90022E7
:100964000000000000000000000000000000000083
:100974000000000000000000000000000000000073
:100984000000000000000000000000000000000063
:100994000000000000000000000000000000000053
:1009A400000000C001800240030003C00480054031
:1009B400060006C007800840090009C00A800B40F1
:1009C4000C000CC00D800E4000100040008000D0D0
:1009D40001000140019001C002000250028002C0E7
:1009E40003100340038003D004000440049004C0B7
:1009F40005000550058005C006100640068006D097
:100A040007000740079007C008000850088008C086
:100A140009100940098009D00A000A400A900AC056
:100A24000B000B500B800BC00C100C400C800CD036
:100A34000D000D400D900DC00E000E500E800EC026
:020D8C00C101A3
:1004ED00D2AF7F807E25120D64E490002AF0A3F038
:1004FD00900018F0A3F0900018E0FEA3E0FFC39465
:10050D003CEE9400503FEF7806C333CE33CED8F98E
:10051D00FF90002AEEF0A3EFF090002AE0FEA3E09A
:10052D00FF7BFF7A0979649000217440F0120B7BF8
:10053D0050E7120003900019E004F070B990001814
:10054D00E004F080B1E4900018F0A3F0900018E002
:10055D00FEA3E0FFC39406EE94004003020815EFDE
:10056D0025E0FFEE33FE74A42FF58274093EF5836A
:10057D00E493FF74019390002ACFF0A3EFF0900065
:10058D0018E0FCA3E0FD90000675F00312088AEC5C
:10059D0075F003A42583F583E0FBA3E0FAA3E0F94E
:1005AD0090002AE0FEA3E0FFED90006793900021FC
:1005BD00F0120B7B50C8900018A3E02400F582E4E4
:1005CD003400F583E0FF90001AE4F0A3EFF0120081
:1005DD000390002BE0240EFF90002AE03400FE90E3
:1005ED000018A3E090006793FD120C8A50E3900071
:1005FD002BE0240FFF90002AE03400FE900018A39A
:10060D00E02400F582E43400F583E0FD120C8A50FD
:10061D00DD900018E0FEA3E0FF9009CC75F0061206
:10062D00088AEE75F006A42583F583E493FD740125
:10063D009390002ACDF0A3EDF07C007DC0120878D8
:10064D00746D2FF974003EFAA374FFF0A3EAF0A3C2
:10065D00E9F0C390001BE0943090001AE094004044
:10066D002C90002AE0FEA3E0FFA3E0FBA3E0FAA399
:10067D00E0F99000217430F0120B7B50E490001BD8
:10068D00E024D0F090001AE034FFF0802490002A8E
:10069D00E0FEA3E0FFA3E0FBA3E0FAA3E0F99000E6
:1006AD001AA3E0900021F0120B7B50030208048086
:1006BD00DC120003900018E0FEA3E0FF9009CE7558
:1006CD00F00612088AEE75F006A42583F583E493EF
:1006DD00FD74019390002ACDF0A3EDF07C007DC058
:1006ED00120878749D2FF974003EFAA374FFF0A3DD
:1006FD00EAF0A3E9F0C390001BE0944090001AE0EB
:10070D009400402C90002AE0FEA3E0FFA3E0FBA3A1
:10071D00E0FAA3E0F99000217440F0120B7B50E455
:10072D0090001BE024C0F090001AE034FFF080240C
:10073D0090002AE0FEA3E0FFA3E0FBA3E0FAA3E014
:10074D00F990001AA3E0900021F0120B7B500302E8
:10075D00080480DC120003900018E0FEA3E0FF9077
:10076D0009D075F00612088AEE75F006A42583F5FA
:10077D0083E493FD74019390002ACDF0A3EDF07CFA
:10078D00007DC012087874DD2FF974003EFAA37451
:10079D00FFF0A3EAF0A3E9F0C390001BE0944090B2
:1007AD00001AE09400402C90002AE0FEA3E0FFA385
:1007BD00E0FBA3E0FAA3E0F99000217440F0120BE6
:1007CD007B50E490001BE024C0F090001AE034FF51
:1007DD00F0802190002AE0FEA3E0FFA3E0FBA3E060
:1007ED00FAA3E0F990001AA3E0900021F0120B7B20
:1007FD00400580DF120003900019E004F0700690B0
:10080D000018E004F00205597D067411FFFE120C6C
:0C081D008A400512000380F0D20180FE2A
:100D640075985053890F438920AB07AA06E4F9F814
:100D74007F807E70FDFC120C46EFF404F58D858DAA
:080D84008BC2ABD2ACD28E226F
:040003007F0A7E00F2
:10000700EF1FAA0670011E4A600BE4FDEDC3947B47
:0500170050EE0D80F722
:01001C0022C1
:03002300020DAD1E
:100DAD0030980DC2983001057599FF80037599EE45
:060DBD00309902C29932D8
:100026007477696E6B6C65537461720074776F5484
:100036006967657273006F6465546F4A6F79006112
:100046006C77617973576974684D65004A696E67A4
:100056006C6542656C6C004368726973746D61739C
:10006600000B09080C0A0915021502190219021AD1
:10007600021A0219011802180217021702160216AE
:1000860002150119021902180218021702170216A0
:100096000119021902180218021702170216011591
:1000A600021502190219021A021A02190118021877
:1000B60002170217021602160215010000000000C0
:1000C600000000000000000000000000000000002A
:1000D600000000000000000000000000000000001A
:1000E600000000000000000000000000000000000A
:1000F60000000000000000000000000000000000FA
:1001060000000000000000000000000000000000E9
:1001160000000000000000000000000000000000D9
:100126000000000000000015021602170215021555
:1001360002160217021502170218021901170218F1
:1001460002190119031A03190318031702150219D4
:10015600031A03190318031702150216020F0215D4
:100166000116020F02150100000000000000000049
:100176000000000000000000000000000000000079
:100186000000000000000000000000000000000069
:100196000000000000000000000000000000000059
:1001A6000000000000000000000000000000000049
:1001B6000000000000000000000000000000000039
:1001C6000000000000000000000000000000000029
:1001D6000000000000000000000000000000000019
:1001E6000000000000000017021702180219021989
:1001F6000218021702160215021502160217021736
:1002060066160316011702170218021902190218B8
:1002160002170216021502150216021702166615B5
:100226000315011602160217021502160217031805
:1002360003170215021602170318031702160215F2
:100246000216020F011702170218021902190218E4
:100256000217021602150215021602170216661575
:10026600031501000000000000000000000000006F
:100276000000000000000000000000000000000078
:100286000000000000000000000000000000000068
:100296000000000000000000000000000000000058
:1002A60000000000000000150316031703150319CC
:1002B60066170316021902160215031003176615B0
:1002C600031101110210021102150316030F021584
:1002D600021603170318021803170316031503164D
:1002E60001150316031703150319661703160219DA
:1002F600021602150310031002110315030F010F56
:10030600030F0310021102150316030F021502163E
:100316000317031802180317031603150315010024
:1003260000000000000000000000000000000000C7
:1003360000000000000000000000000000000000B7
:1003460000000000000000000000000000000000A7
:100356000000000000000000000000000000000097
:10036600000000000000001702170217011702170D
:10037600021701170219021566160317001802184C
:1003860002180117021702170117021602160215A4
:100396000216011901170217021701170217021791
:1003A600011702190215661603170018021802181B
:1003B600021802170217021701190219021802166B
:1003C600021501000000000000000000000000000F
:1003D6000000000000000000000000000000000017
:1003E6000000000000000000000000000000000007
:1003F60000000000000000000000000000000000F7
:1004060000000000000000000000000000000000E6
:1004160000000000000000000000000000000000D6
:10042600000000000000000F021702160215020F5E
:10043600000F02170216021502100010021802170A
:100446000216021100190219021802160217000FED
:10045600021702160215020F000F021702160215E6
:1004660002100010021802170216021902190219C8
:10047600011A0219021802160215010000000000F6
:100486000000000000000000000000000000000066
:100496000000000000000000000000000000000056
:1004A6000000000000000000000000000000000046
:1004B6000000000000000000000000000000000036
:1004C6000000000000000000000000000000000026
:1004D6000000000000000000000000000000000016
:0704E600000000000000000F
:100D8E00520006FF0026FF0032FF003CFF0045FF29
:0E0D9E000052FF005D46000056427E7C5E560D
:03000000020AEF02
:0C0AEF00787FE4F6D8FD758120020B36FC
:10082900BB010CE58229F582E5833AF583E0225084
:1008390006E92582F8E622BBFE06E92582F8E222CE
:0D084900E58229F582E5833AF583E49322E8
:10085600F8BB010DE58229F582E5833AF583E8F0D8
:10086600225006E92582C8F622BBFE05E92582C884
:02087600F2226C
:10087800EF8DF0A4A8F0CF8CF0A428CE8DF0A42E94
:02088800FE224E
:100C4600C2D5E830E70FB2D5E4C39BFBE49AFAE4D9
:100C560099F9E498F8EC30E717B2D5120C7C120833
:100C6600D2E4C39BFBE49AFAE499F9E498F880038A
:100C76001208D230D50DE4C39FFFE49EFEE49DFD2D
:040C8600E49CFC22CC
:0C088A00A42582F582E5F03583F5832279
:100AFB000204EDE493A3F8E493A34003F68001F220
:100B0B0008DFF48029E493A3F85407240CC8C333FB
:100B1B00C4540F4420C8834004F456800146F6DFCA
:100B2B00E4800B0102040810204080900D8CE47EC1
:100B3B00019360BCA3FF543F30E509541FFEE493BF
:100B4B00A360010ECF54C025E060A840B8E493A386
:100B5B00FAE493A3F8E493A3C8C582C8CAC583CAB1
:100B6B00F0A3C8C582C8CAC583CADFE9DEE780BE69
:010DAC000046
:1008960075F008758200EF2FFFEE33FECD33CDCC19
:1008A60033CCC58233C5829BED9AEC99E58298409C
:1008B6000CF582EE9BFEED9AFDEC99FC0FD5F0D679
:1008C600E4CEFBE4CDFAE4CCF9A88222B800C1B9A3
:1008D6000059BA002DEC8BF084CFCECDFCE5F0CBE1
:1008E600F97818EF2FFFEE33FEED33FDEC33FCEB1A
:1008F60033FB10D703994004EB99FB0FD8E5E4F9D5
:10090600FA227818EF2FFFEE33FEED33FDEC33FCC1
:10091600C933C910D7059BE99A4007EC9BFCE99AB5
:10092600F90FD8E0E4C9FAE4CCFB2275F010EF2FFA
:10093600FFEE33FEED33FDCC33CCC833C810D707FA
:100946009BEC9AE899400AED9BFDEC9AFCE899F835
:0E0956000FD5F0DAE4CDFBE4CCFAE4C8F922C8
:00000001FF
