:1021A000D3EF9400EE940040147D657C18ED1D7013
:0D21B000011CED4C70F7EF1F70E61E80E380
:0121BD0022FF
:10224A00EF1FAA0670011E4A600BE4FDEDC3947BE2
:05225A0050EE0D80F7BD
:01225F00225C
:081E3A009001A7EEF0A3EFF008
:101E42001222877FA0121FCC400280169001A7E0C9
:101E5200FF121FCC4002800A9001A8E0FF121FCCA3
:101E620040061222607FEE221222877FA1121FCC2F
:101E720040061222607F00221220A29001A9EFF0F8
:081E82001222609001A9E0FFAB
:011E8A002235
:101F1A00900198EEF0A3EFF0A3EDF01222877FA0D4
:101F2A00121FCC40028022900198E0FF121FCC4081
:101F3A00028016900199E0FF121FCC4002800A909D
:101F4A00019AE0FF121FCC4005122260C32212221E
:031F5A0060D3222F
:101B600090019DEEF0A3EFF0A3EBF0A3EAF0A3E960
:011B7000F084
:101B7100A3E0FFD394405003EF7002C322122287E7
:101B81007FA0121FCC4002801690019DE0FF121F22
:101B9100CC4002800A90019EE0FF121FCC4005124A
:101BA1002260C322E49001A3F09001A2E0FFA3E030
:101BB100FEC39F501F90019FE0FBA3E0FAA3E0F951
:101BC1008E82758300120C84FF121FCC9001A3E05A
:081BD10004F080D5122260D35C
:011BD90022E9
:1017B4009001D9EEF0A3EFF0A3EBF0A3EAF0A3E9D4
:0117C400F034
:1017C500A3E0FFD394405003EF7002C32212228797
:1017D5007FA0121FCC400280229001D9E0FF121F8A
:1017E500CC400280169001DAE0FF121FCC40028047
:1017F5000A1222877FA1121FCC4005122260C32244
:10180500E49001DFF09001DEE014FFA3E0C39F50F8
:10181500231220D59001DBE0FBA3E0FAA3E0F990C9
:1018250001DFE0F582758300EF120CB19001DFE076
:1018350004F080D11220A29001DEE024FFFDE43403
:10184500FFFC9001DBE0FBA3E0FAA3E0F98D828CBD
:0918550083EF120CB1122260D3E2
:01185E002267
:10228700D297D29600000000C29700000000C296C5
:012297002224
:10226000C296C29700000000D29600000000D297EC
:05227000000000002247
:101FCC007E80EE601B5F7004C2978002D297000087
:101FDC000000D29600000000C296EEC313FE80E211
:101FEC00D29700000000D296A29792110000000038
:051FFC00C296A211B322
:0120010022BC
:1020A200D2977E80EE601D00000000D29620970538
:1020B200F45FFF8003EF4EFF00000000C296EEC304
:1020C20013FE80E0D29700000000D29600000000CC
:0220D200C296B4
:0120D40022E9
:1020D500D2977E80EE601800000000D2962097030C
:1020E500F45FFF00000000C296EEC313FE80E5C258
:0D20F5009700000000D29600000000C29687
:0121020022BA
:10227500122287EF25E0FF121FCC9212122260A2D4
:012285001246
:012286002235
:101A3C00F88BF95BFA14FA66FB03FB8FFC0BFC4387
:101A4C00FCABFD08FD33FD81FDC7FE05FB21FE55FA
:101A5C00FE84FE99FEC0FEE3FF020106012501494A
:101A6C00015D018801B801EE020B024A029202B933
:101A7C00030F036F03DB0415049305240571061B88
:101A8C0006DB07B33F8000003F0000003E800000F3
:101A9C003E0000003D8000003D0106253C8000001A
:101AAC00000000C001800240030003C00480054018
:101ABC00060006C007800840090009C00A800B40D8
:081ACC000C000CC00D800E405F
:0E1F9500440193402000004400CD3F000000B6
:1000260057656C636F6D6520746F206D79005B4D4D
:10003600555349435D00436F6D6D756E6963617419
:10004600696E670055415254696E670000000000F2
:1000560000000000002F0000000007000700001449
:100066007F147F1400242A7F2A1200626408132357
:1000760000364955225000000503000000001C22EE
:100086004100000041221C000014083E081400082C
:10009600083E0808000000A06000000808080808DC
:1000A600000060600000002010080402003E514974
:1000B600453E0000427F4000004261514946002112
:1000C60041454B31001814127F100027454545392C
:1000D600003C4A4949300001710905030036494987
:1000E600493600064949291E000036360000000040
:1000F600563600000008142241000014141414148B
:100106000000412214080002015109060032495933
:10011600513E007C1211127C007F49494936003E4F
:1001260041414122007F4141221C007F494949410A
:10013600007F09090901003E4149497A007F080804
:10014600087F0000417F4100002040413F01007FC1
:1001560008142241007F40404040007F020C027F8D
:10016600007F0408107F003E4141413E007F09099F
:100176000906003E4151215E007F091929460046C5
:10018600494949310001017F0101003F4040403F9C
:10019600001F2040201F003F4038403F00631408E6
:1001A60014630007087008070061514945430000C1
:1001B6007F41410000552A552A55000041417F00E4
:1001C60000040201020400404040404000000102D9
:1001D6000400002054545478007F484444380038C2
:1001E6004444442000384444487F0038545454184A
:1001F60000087E0901020018A4A4A47C007F08045C
:1002060004780000447D4000004080847D00007F2B
:10021600102844000000417F4000007C0418047848
:10022600007C0804047800384444443800FC242444
:1002360024180018242418FC007C0804040800482C
:100246005454542000043F444020003C4040207C4D
:10025600001C2040201C003C4030403C004428103C
:100266002844001CA0A0A07C004464544C441414F0
:100276001414141400000000000000000000000028
:1002860000000000000000F800000000000000333D
:100296003000000000100C06100C060000000000E4
:1002A6000000000040C07840C0784000043F0404CD
:1002B6003F040400007088FC08300000001820FF8E
:1002C600211E0000F008F000E018000000211C03C9
:1002D6001E211E0000F00888700000001E21232445
:1002E6001927211010160E00000000000000000063
:1002F60000000000000000E01804020000000007F3
:100306001820400000020418E000000000402018F9
:1003160007000000404080F0804040000202010FCC
:1003260001020200000000F0000000000101011FB0
:1003360001010100000000000000000080B0700014
:1003460000000000000000000000000000010101A4
:100356000101010100000000000000000030300033
:10036600000000000000000080601804006018060D
:100376000100000000E010080810E000000F102047
:1003860020100F00001010F8000000000020203F91
:10039600202000000070080808887000003028241B
:1003A60022213000003008888848300000182020BC
:1003B60020110E000000C02010F8000000070424E1
:1003C600243F240000F80888880808000019212026
:1003D60020110E0000E0108888180000000F112080
:1003E60020110E0000380808C83808000000003F39
:1003F600000000000070880808887000001C222198
:1004060021221C0000E010080810E0000000312244
:1004160022110F00000000C0C000000000000030E4
:100426003000000000000080000000000000806036
:1004360000000000000080402010080000010204B7
:10044600081020004040404040404000040404049E
:10045600040404000008102040800000002010085A
:1004660004020100007048080808F000000000308F
:1004760036010000C030C828E810E000071827241D
:1004860023140B000000C038E0000000203C2302CB
:100496000227382008F8888888700000203F20202E
:1004A60020110E00C0300808080838000718202060
:1004B6002010080008F808080810E000203F202057
:1004C60020100F0008F88888E8081000203F202038
:1004D6002320180008F88888E8081000203F20002C
:1004E60003000000C0300808083800000718202064
:1004F600221E020008F808000008F808203F210123
:1005060001213F20000808F8080800000020203FCD
:100516002020000000000808F8080800C08080803D
:100526007F00000008F888C028180800203F200136
:100536002638200008F8080000000000203F202090
:100546002020300008F8F800F8F80800203F003FA7
:10055600003F200008F830C00008F808203F2000BF
:1005660007183F00E01008080810E0000F102020D0
:1005760020100F0008F808080808F000203F2101A5
:1005860001010000E01008080810E0000F182424FC
:1005960038504F0008F8888888887000203F20006F
:1005A600030C302000708808080838000038202125
:1005B60021221C00180808F8080818000000203F2F
:1005C6002000000008F808000008F808001F202096
:1005D60020201F000878880000C838080000073867
:1005E6000E010000F80800F80008F800033C0700B8
:1005F600073C0300081868808068180820302C0320
:10060600032C30200838C800C83808000000203FF6
:100616002000000010080808C838080020382621E5
:1006260020201800000000FE020202000000007FE9
:1006360040404000000C30C00000000000000001F7
:100646000638C00000020202FE00000000404040E2
:100656007F00000000000402020204000000000007
:100666000000000000000000000000008080808084
:10067600808080800002020400000000000000006C
:100686000000000000008080808000000019242205
:1006960022223F2008F8008080000000003F112041
:1006A60020110E000000008080800000000E112046
:1006B60020201100000000808088F800000E112024
:1006C60020103F200000808080800000001F222232
:1006D60022221300008080F0888888180020203F9E
:1006E600202000000000808080808000006B9494B1
:1006F6009493600008F8008080800000203F21006D
:1007060000203F2000809898000000000020203F35
:1007160020200000000000809898000000C0808023
:10072600807F000008F8000080808000203F2402BF
:100736002D302000000808F8000000000020203FAF
:10074600202000008080808080808000203F200064
:100756003F20003F8080008080800000203F2100F5
:1007660000203F200000808080800000001F2020A5
:1007760020201F00808000808000000080FFA120D4
:1007860020110E000000008080808000000E1120E5
:1007960020A0FF80808080008080800020203F2174
:1007A6002000010000008080808080000033242427
:1007B60024241900008080E0808000000000001FD3
:1007C600202000008080000000808000001F202084
:1007D60020103F20808080000080808000010E3045
:1007E6000806010080800080008080800F300C03A6
:1007F6000C300F0000808000808080000020312EA9
:100806000E312000808080000080808080818E7084
:100816001806010000808080808080000021302C36
:100826002221300000000000807C0202000000004F
:10083600003F404000000000FF00000000000000F4
:10084600FF0000000002027C800000000040403FE4
:10085600000000000006010102020404000000007E
:10086600000000000000000000000000FF0C1870EF
:1008760000000000000000307878783E010000009B
:1008860000000000303030303030303000000000E2
:100896000000000000FF183C7EFF00000000FF7E05
:1008A6003C18FF0000FFFF0000FFFF000000FF7E76
:0408B6003C180000EA
:101908009001A5740CF0E49001A4F09001A4E0FE0D
:10191800C3940D501DA3E0FFEE90003C93FB7D01A6
:1019280012185F9001A5E02408F09001A4E004F0EB
:1019380080D99001A57424F0E49001A4F09001A44A
:10194800E0FEC39407501DA3E0FFEE90004A93FB0E
:101958007D0412185F9001A5E02408F09001A4E02E
:1019680004F080D99001B77405F0A374FFF0A37454
:1019780008F0A3746AF07B207D047F10121BDA90B4
:1019880001B77405F0A374FFF0A37408F0A3746A98
:0A199800F07B707D047F60021BDA13
:102157009001C3E0FF2408FB9001B77407F0A37454
:10216700FFF0A37408F0A3748AF07D07121BDA90BE
:0721770001C3E02408F0227F
:101F5D00E49001C3F09001B3F09001B3E0C394801D
:101F6D005025E0FF2408FB9001B77407F0A374FF20
:101F7D00F0A37408F0A37492F07D07121BDA9001A0
:071F8D00B3E02408F080D24C
:011F9400222A
:102214009001B77406F0A374FFF0A37408F0A374DC
:0B222400AAF07B407D067F38021BDA29
:10222F009001B77406F0A374FFF0A37408F0A374C1
:0B223F00B2F07B407D067F38021BDA06
:101DE700E49001A4F0A3F0A3F0A3F09001A4E0FE17
:101DF700A3E0FF24D1F58274003EF583E0FB603257
:101E0700C3EF940EEE940050299001A6A3E0FF7D46
:101E17000312185F9001A5E004F070069001A4E09A
:101E270004F09001A7E02408F09001A6E03400F048
:021E370080B970
:011E39002286
:10151F009001B77401F0A374FFF0A37408F0A374E3
:10152F006AF07B10E4FDFF121BDA7B53E4FD7F10A2
:10153F0012185F7B6FE4FD7F1812185F7B6EE4FD5E
:10154F007F2012185F7B67E4FD7F2812185F7B3ABC
:10155F00E4FD7F3012185F7B30E4FD7F3812185F97
:10156F007B31E4FD7F4012185F7B707D067F181280
:10157F001D297B727D067F1E121D297B657D067FCF
:10158F0024121D299001B77406F0A374FFF0A37401
:10159F0008F0A3749AF07B387D067F30121BDA9027
:1015AF0001B77406F0A374FFF0A37408F0A374AA34
:1015BF00F07B407D067F38121BDA9001B77406F07E
:1015CF00A374FFF0A37408F0A374A2F07B487D0608
:1015DF007F40121BDA7B6E7D067F4C121D297B65C7
:1015EF007D067F52121D297B787D067F58121D299B
:0915FF007B747D067F5E021D294C
:10210300900191E0FF75F00A849001A4E5F0F0EFEF
:1021130075F00A842430FBE4FD7F3812185F9001C8
:0C212300A4E02430FBE4FD7F4002185FC4
:1019A2009001A5740CF0E49001A4F09001A4E0FE73
:1019B200C3940D501DA3E0FFEE90002693FB7D0122
:1019C20012185F9001A5E02408F09001A4E004F051
:1019D20080D99001A57424F0E49001A4F09001A4B0
:1019E200E0FEC39407501DA3E0FFEE90003493FB8A
:1019F2007D0412185F9001A5E02408F09001A4E094
:101A020004F080D99001B77405F0A374FFF0A374B9
:101A120008F0A3746AF07B207D047F10121BDA9019
:101A220001B77405F0A374FFF0A37408F0A3746AFD
:0A1A3200F07B707D047F60021BDA78
:10203800E49001E0F0A3F09001E0E0FEA3E0FFC32C
:10204800940FEE9400501DEF75F008A4FF7B207DDF
:102058000312185F9001E1E004F070DB9001E0E00A
:0420680004F080D32D
:01206C002251
:101608007FAE122180E4FDFCFFFE12218412217EB0
:10161800E4FDFC7F40FE122184E4FDFC7FB0FE1255
:101628002184E4FDFC7F81FE122184E4FDFC7FFF20
:10163800FE122184E4FDFC7FA1FE122184E4FDFC5E
:101648007FA6FE122184E4FDFC7FA8FE122184E41B
:10165800FDFC7F3FFE122184E4FDFC7FC8FE1221C1
:1016680084E4FDFC7FD3FE122184E4FDFCFFFE121E
:101678002184E4FDFC7FD5FE122184E4FDFC7F80FB
:10168800FE122184E4FDFC7FD8FE122184E4FDFCD7
:101698007F05FE122184E4FDFC7FD9FE122184E43B
:1016A800FDFC7FF1FE122184E4FDFC7FDAFE1221AD
:1016B80084E4FDFC7F12FE122184E4FDFC7FDBFE46
:1016C800122184E4FDFC7F30FE122184E4FDFC7FBE
:1016D8008DFE122184E4FDFC7F14FE122184E4FDBA
:0716E800FC7FAFFE0221842C
:06217E007F10E4FDFCFEF1
:102184009001C0EEF0A3EFF0ED4C9001C06006A307
:0C219400E0FF0221DBA3E0FF1221BE22CD
:1021BE009001C2EFF01222877F78121FCCE4FF123B
:0D21CE001FCC9001C2E0FF121FCC02226066
:1021DB009001C2EFF01222877F78121FCC7F401242
:0D21EB001FCC9001C2E0FF121FCC02226049
:101E8B00E49001A4F09001A4E0FFC39408503BEF51
:101E9B0024B0FFE433FEE4FDFC122184E4FDFCFFDF
:101EAB00FE12218412217EE49001A5F07D017C00BD
:101EBB00E4FFFE1221849001A5E004F0E0C39480BE
:0A1ECB0040EA9001A4E004F080BB9F
:011ED50022EA
:10206D009001BFEFF0ED24B0FFE433FEE4FDFC1270
:10207D0021849001BFE054F0C4540F7E004410FF42
:10208D00E4FDFC1221849001BFE0540FFF7E00E4BB
:05209D00FDFC0221849E
:041D2900A907AA0557
:101D2D00EB24E0FFE434FFFE7C007D06120CD39023
:101D3D0001A5EEF0A3EFF0AF01AE02AD0612206DDE
:101D4D00E49001A4F09001A4E0FFC39406502B9001
:101D5D0001A6E02FFF9001A5E03400FE74522FF58F
:101D6D008274003EF583E493FF7E007D017C0012BA
:0A1D7D0021849001A4E004F080CB63
:011D87002239
:09185F009001A8EFF0FCA3EDF0EC
:10186800EB24E0FFE434FFFEEFC4F8540FC868FF30
:10187800EEC454F048A3F0A3EFF0AF0412206DE4D7
:101888009001ACF09001ACE0FFC39408502B90019C
:10189800ABE02FFF9001AAE03400FE747A2FF582A6
:1018A80074023EF583E493FF7E007D017C001221E3
:1018B800849001ACE004F080CB9001A8E0FFA3E0A5
:1018C80004FD12206DE49001ACF09001ACE0FFC380
:1018D8009408502B9001ABE02FFF9001AAE0340050
:1018E800FE74822FF58274023EF583E493FF7E0036
:0F18F8007D017C001221849001ACE004F080CBD4
:0119070022BD
:0A1BDA009001B4EFF09001B6EBF0BB
:101BE400E49001BBF0A3F09001BEEDF09001B7E0EA
:101BF400FF9001BEE0FDD39F50529001B4E0FF126C
:101C0400206D9001B4E09001BDF09001B6E0FF902A
:101C140001BDE0C39F502D9001B8E0FBA3E0FAA3FF
:101C2400E0F9A3E475F001120D3A85F082F5831210
:101C34000C84FF7E007D017C001221849001BDE0B4
:0C1C440004F080C69001BEE004F080A017
:011C50002271
:101FA3004100CB00C102410001FF41000300C18198
:101FB300C18DC18EC185C189C18AC180C18C4100D7
:081FC300C4064100C600C1067E
:101CC800D2AF75891112160812000E1222A8121E20
:101CD8008B1221F81219A27FF47E011221A0E49040
:101CE8000191F09000C504F09000CBE0B4011420FD
:101CF80002F6121E8B121908D2027F807E2512214D
:101D08002F80E5121E8B12151F1216EF12210312D7
:101D18001DE7120E85121C517FC87E001221A0807B
:011D2800C7F3
:10212F0075985053890F438920AB07AA06E4F9F835
:10213F007F807E70FDFC121ED6EFF404F58D858D29
:08214F008BC2ABD2ACD28E2290
:10229800E4F598758911758D88F58BC2ACD2AB229F
:101429009000C4E025E024ACF582E4341AF583E4A5
:1014390093FF74019390019BCFF0A3EFF090019873
:101449007401F0A37400F0A37404F090019BE0FE12
:10145900A3E0FF900198E0FBA3E0FAA3E0F9900173
:10146900A27440F0121B6050E27F057E0012224AEE
:101479009000C4E025E024ACF582E4341AF58374C5
:1014890001932440FEE493340090019BF0A3CEF035
:101499009001987401F0A37400F0A37444F09001D2
:1014A9009BE0FEA3E0FF900198E0FBA3E0FAA3E034
:1014B900F99001A27440F0121B6050E27F057E0092
:1014C90012224A9000C4E025E024ACF582E4341AE3
:1014D900F5837401932480FEE493340090019BF01A
:1014E900A3CEF09001987401F0A37400F0A3748462
:1014F900F090019BE0FEA3E0FF900198E0FBA3E0E0
:10150900FAA3E0F99001A27440F0121B6050E27F47
:06151900057E0002224ADB
:101D8800900000E025E024ACF582E4341AF583E401
:101D980093FD740193900199CDF0A3EDF0E49001C7
:101DA80098F07FEEEFB4EE0D900199E0FEA3E0FF0E
:101DB800121E3A80EF900198E02404F582E4340082
:101DC800F583EFF090019AE004F07006900199E035
:0E1DD80004F0900198E004F0E0C394C040C411
:011DE60022DA
:0300230002117A4D
:10117A00C0E0C0F0C083C082C0D075D000C000C03B
:0D118A0001C002C003C004C005C006C007BC
:1011970020980302129CC298900197E599F0E0B459
:1011A7009903122298900197E0FFB4FA059000C8BE
:1011B700E4F0EFB4FC069000C87402F0EFB4FD064B
:1011C7009000C87406F09000C8E014604314607C77
:1011D70014700302125B24FE60251470030212854B
:1011E7002406600302129C9000C87405F07FC0902B
:1011F7000004E4F0A3DFFC900002E4F002129C90EC
:101207000197E09000C4F09000C87401F002129CAE
:10121700900197E0B4FF19121429900192E004F0AD
:10122700900192E0FD7411FFFE121F1A50F2805FC9
:10123700900197E0FF900002E02404F582E4340077
:10124700F583EFF0900002E004F080499000C87445
:1012570003F08041900197E0B4FF199000C874042F
:10126700F0759901D206900002E4F09000C6F012E2
:101277001D888021900197E0900000F080177FEE95
:10128700EFB4EE097411FFFE121E3A80F38F9990A6
:1012970000C87404F0309955C29930065090000286
:1012A700E0FF2404F582E43400F583E0900197F031
:1012B700EFB40F05E09000C6F09000C6E06015247B
:1012C70010FFE433FE900002E0C39FEE6480F874E1
:1012D70080985017900002E0C394C0500E90019779
:0D12E700E0F599900002E004F08002C206DC
:1012F400D007D006D005D004D003D002D001D0004E
:0B130400D0D0D082D083D0F0D0E032F7
:100E85009001A5120D7A000000009001A9120D7ABB
:100E9500000000009001AD7410F0C210D204C20B26
:100EA500C208E49000C9F0A3F0121F5D9000E0E0D5
:100EB500FCE4120BCFE4FBFAF97842120ABB90016D
:100EC500C4120D6EE49001A4F09001A4E0FFC39458
:100ED50010503FEF2401FDE433FCE4120BCA9001EE
:100EE500C4E0F8A3E0F9A3E0FAA3E0FB1209B2E439
:100EF500FBFAF9783F1208C1120C039001A4E02413
:100F0500C8F582E43401F583EFF09001A4E004F024
:100F150080B7E49001D8F03003030211723010035A
:100F250002117230080A3004EEC20412222F80E743
:100F3500200405D20412221430074D9000C7E0FFAB
:100F4500B404159001ADE0C3941A50057410F080F7
:100F5500079001ADE024F6F0EFB405079001ADE090
:100F6500240AF0C207E49000C7F09000C9F0A3F08E
:100F7500C20B9001A5120D7A000000009001A91284
:100F85000D7A00000000808F300B219000C9E0FC35
:100F9500A3E0FDE4120BCA9001A9E0F8A3E0F9A3D0
:100FA500E0FAA3E0FB120B585002C20B9000C9E017
:100FB500FCA3E0FDE4120BCA9001A5E0F8A3E0F95B
:100FC500A3E0FAA3E0FB120B5860054003020F1CD7
:100FD500E49000C9F0A3F09001ADE0FF24D1F582C3
:100FE500E43400F583E0FE9001AEF074D22FF58273
:100FF500E43400F583E09001AFF09001ADE0240208
:10100500F0EE70169001AFE07010D21090000174F0
:10101500FFF0E4900003F0020F1C9001AEE0FD75B7
:10102500F00A84E5F0149001B0F0ED75F00A84142F
:10103500A3F09001AFE0FF75F00A849001B2E5F0EE
:10104500F0EF75F06484FF70249001AFE025E02592
:10105500E02490F582E4341AF583120D5E90019335
:10106500E0F8A3E0F9A3E0FAA3E0FB802C9001B23D
:10107500E025E025E02490F582E4341AF583120D8D
:101085005E900193E0F8A3E0F9A3E0FAA3E0FB1278
:1010950009B2E4FBFA79C0783F1209B2C004C00571
:1010A500C006C0079001B1E075F00EA42466F58274
:1010B500E4341AF583C083C0829001B0E0D082D0B9
:1010C5008375F002120DABE493FC740193FDE412F9
:1010D5000BCAD003D002D001D0001209B29001A5ED
:1010E500120D6E9000CDE0FCA3E0FDA3E0FEA3E0B1
:1010F500FF9001A5E0F8A3E0F9A3E0FAA3E0FB1255
:1011050009B29001A9120D6E9001B1E075F00EA41F
:10111500243CF582E4341AF583C083C0829001B083
:10112500E0D082D08375F002120DABE493FC74011C
:1011350093FDEC900001F0900003EDF0D20B9001CF
:10114500ADE024F0FFE434FFC313EF13FF9001D8A3
:10115500E024C8F582E43401F583E06F6003020FF3
:101165001C9001D8E004F0122157020F1CC20BE4B9
:041175009001D8F01D
:011179002253
:03000B00022002CE
:10200200C0E0C083C082900001E0F58C900003E044
:10201200F58A20081A2007179000CAE004F070061B
:102022009000C9E004F0300B04B2958002D295D042
:0620320082D083D0E032F1
:03001B0002130FBE
:10130F00C0E0C0F0C083C082C0D075D000C000C0A4
:10131F0001C002C003C004C005C006C007758D8898
:10132F00758B00D292D293D291D290D294D2B1D265
:10133F00B0D2B2300C1820B2159000CBE07006047A
:10134F00F0C20280079000CBE4F0D202D20330014A
:10135F000C209209200804D2088002C208300E0B1C
:10136F00209308D2039000C77402F0300D0B209128
:10137F0008D2039000C77403F030050B209008D2F9
:10138F00079000C77404F030090B209408D207901F
:10139F0000C77405F0300A2220B11F900193E0FCC2
:1013AF00A3E0FDA3E0FEA3E0FF7BCD7ACC794C78E0
:1013BF003E1208C1900193120D6E30002220B01F13
:1013CF00900193E0FCA3E0FDA3E0FEA3E0FF7BCD43
:1013DF007ACC794C783E1208BD900193120D6EA213
:1013EF00929201A291920DA293920EA2909205A2B7
:1013FF00949209A2B1920AA2B09200A2B2920CD01A
:10140F0007D006D005D004D003D002D001D000D031
:0A141F00D0D082D083D0F0D0E032AC
:08000300C203E49000C7F022E3
:1021F80090019274EEF0900192E0B4EE0E7411FF2B
:0C220800FE121E3A900192EFF080EB22D3
:101C510020032C9000C5E0FB7019900191E0240154
:101C6100FFE433FE900192E0FD7C00120CE590014F
:101C710091EDF0EB64017047900191E0F0804090AC
:101C810000C7E0FBB40219900191E02401FFE433A5
:101C9100FE900192E0FD7C00120CE5900191EDF0C7
:101CA100EBB4031B900192E0FD7C00900191E02DCB
:101CB100FFE433CF24FFCF34FFFE120CE5EDF0C279
:071CC10003E49000C7F022CC
:1016EF00E49001A4F09001A4E0FFC394C0501474DF
:1016FF00D12FF582E43400F583E4F09001A4E004E7
:10170F00F080E27BEE900191E025E024ACF582E4DD
:10171F00341AF583E493FF7401939001A5CFF0A3DE
:10172F00EFF0EBB4EE159001A6E0240FFF9001A5AA
:10173F00E03400FE121E3AAB0780E7EB701B9001FE
:10174F0091E02401FFE433FE900192E0FD7C001252
:10175F000CE5900191EDF080AAE49001A4F07BEEEE
:10176F00EBB4EE0F9001A5E0FEA3E0FF121E3AAB23
:10177F000780ED9001A4E024D1F582E43400F583D5
:10178F00EBF09001A6E004F070069001A5E004F0E4
:10179F009001A4E004F0E0C394C040C29000E0E0E8
:0417AF009000CCF0EA
:0117B3002213
:0B000E00758CFFE4F58AD2A9D28C2289
:0B22A800758DB8E4F58BD2ABD28E220E
:1008BA00020C6FE86480F8E933E83360110460F0F1
:1008CA00ED33EC337009E8FCE9FDEAFEEBFF2204A4
:1008DA0060DED3EB9FEA9EE99DE8C2E78CF0C2F79F
:1008EA0095F0400CE8CCF8E9CDF9EACEFAEBCFFB6B
:1008FA00120C3A85D0F05804700320D5B3E804707E
:10090A00075002B2D5020C7992D5EC0460F7E4CC18
:10091A00C0E0C398F8603B94186008400DD0E0FB33
:10092A00020C51E4FBFAC9FC8028E830E406E4C969
:10093A00FBE4CAFCE830E305E4C9CACBFCE8540787
:10094A006010F8C3E913F9EA13FAEB13FBEC13FC92
:10095A00D8F130F52FC3E49CFCEF9BFFEE9AFEED35
:10096A0099FDD0E0FBEF4E4D4C701222DB03020CD6
:10097A0076EC2CFCEF33FFEE33FEED33FDED30E782
:10098A00EB020C51EF2BFFEE3AFEED39FDD0E0FB06
:10099A0050130BBB0003020C79ED13FDEE13FEEFAF
:0809AA0013FFEC13FC020C51D9
:1009B200EC4D6011E8497017ED33EC3304600DE43F
:1009C200FCFFFEFD22E933E8330470F8020C6F12DB
:1009D2000C3A58046009E4CC2481500628500902DC
:1009E2000C79284003020C76C0E0EB4A7044B980CF
:1009F20006D0E0FB020C65EF4E701CBD8008EBFFD9
:100A0200EAFEE9FD80EBE98DF0A4FEE5F0020A9B27
:100A1200E9CDF9EAFEEBFFEF89F0A4FCE5F0CE891F
:100A2200F0A42EFFE435F0CD89F0A42DFEE435F0DC
:100A32008067EF4E7005BD80D780C3EF8BF0A4AC0A
:100A4200F0EE8BF0A42CFCE435F0F8EF8AF0A42C45
:100A5200E5F038FCE433CB8DF0A42CFCE5F03BF858
:100A6200EE8AF0A42CFCE5F038F8E433CF89F0A448
:100A72002CFCE5F038CF3400CE89F0A42FFFE5F04E
:100A82003EFEE433C98DF0A42EFEE5F039CD8AF0A6
:100A9200A42FFFE5F03EFEE43DFD33D0E0FB50071E
:100AA2000BBB000F020C79EC2CFCEF33FFEE33FE94
:060AB200ED33FD020C51C2
:100AB800020C79EC5D046005E859047003020C6FC0
:100AC800120C3A580460F6EC4860F2EC7004FDFE33
:100AD800FF22C860DB2481C85009C3986002500611
:100AE800020C769850CAF582E9294B4A7005AB8208
:100AF800020C6575F0007C1A7880C3EF9BEE9AEDC6
:100B080099400DC3EF9BFFEE9AFEED99FDE842F088
:100B1800DC23ACF0D0E0FFD0E0FED0E0FDAB8220DB
:100B2800E7101BEB60BAEC2CFCEF33FFEE33FEED65
:100B380033FD020C51E803F830E705C0F075F0000A
:100B4800EF2FFFEE33FEED33FD40B830E7C280AA49
:100B580074F8CC6480CCC86480C8F582046043C350
:100B6800EB9FF5F0EA9E42F0E99D42F0E89C45F0E3
:100B780060305018E5825FFFE582F42B5582FB5008
:100B8800210ABA001D09B90019088016E5825BFB25
:100B9800E582F42F5582FF50090EBE00050DBD00F9
:100BA800010CC3EB9FF5F0EA9E42F0E99D42F0E8A4
:0D0BB8009C45F06007CC4820E701B3EC221B
:100BC50075F020800E75F010800575F0087D007EAB
:100BD500007F003392D530D503120D50EC33401011
:100BE500EF33FFEE33FEED33FDEC33FCD5F0ED22B4
:0E0BF500E5F0247EA2D513CC92E7CDCEFF22F0
:100C0300EDD2E7CD33EC3392D524814006E4FFFEE9
:100C1300FDFC22FCE4CFCECDCC24E0501174FF8048
:100C2300EDC3CC13CCCD13CDCE13CECF13CF0470E5
:070C3300F030D5DE020D5088
:100C3A00E9D2E7C933E833F892D5EDD2E7CD33EC00
:070C4A0033FC5002B2D52279
:100C5100EC30E7100FBF000C0EBE00080DBD000404
:100C61000BEB6014A2D5EB13FCED92E7FD2274FFB0
:100C7100FCFDFEFF22E480F8A2D574FF13FC7D8009
:030C8100E480EF1D
:03000000021AD40D
:0C1AD400787FE4F6D8FD758122021B1B10
:100C8400BB010CE58229F582E5833AF583E0225025
:100C940006E92582F8E622BBFE06E92582F8E2226F
:0D0CA400E58229F582E5833AF583E4932289
:100CB100F8BB010DE58229F582E5833AF583E8F079
:100CC100225006E92582C8F622BBFE05E92582C825
:020CD100F2220D
:100CD300EF8DF0A4A8F0CF8CF0A428CE8DF0A42E35
:020CE300FE22EF
:100CE500BC000BBE0029EF8DF084FFADF022E4CCF3
:100CF500F875F008EF2FFFEE33FEEC33FCEE9DECBC
:100D0500984005FCEE9DFE0FD5F0E9E4CEFD22ED01
:100D1500F8F5F0EE8420D21CFEADF075F008EF2F4B
:100D2500FFED33FD4007985006D5F0F222C398FD3C
:050D35000FD5F0EA22D9
:100D3A00A3F8E0C5F025F0F0E5821582700215836C
:060D4A00E0C838F0E822C9
:101ED600C2D5E830E70FB2D5E4C39BFBE49AFAE437
:101EE60099F9E498F8EC30E717B2D5121F0C120DE9
:101EF600F3E4C39BFBE49AFAE499F9E498F88003C7
:101F0600120DF330D50DE4C39FFFE49EFEE49DFD64
:041F1600E49CFC2229
:0E0D5000C3E49FFFE49EFEE49DFDE49CFC22B4
:100D5E00E493FC740193FD740293FE740393FF22DB
:0C0D6E00ECF0A3EDF0A3EEF0A3EFF022F8
:100D7A00A8828583F0D083D082120D91120D911230
:100D8A000D91120D91E473E493A3C583C5F0C58355
:100D9A00C8C582C8F0A3C583C5F0C583C8C582C8C3
:010DAA002226
:0C0DAB00A42582F582E5F03583F5832253
:101AE000021CC8E493A3F8E493A34003F68001F238
:101AF00008DFF48029E493A3F85407240CC8C33307
:101B0000C4540F4420C8834004F456800146F6DFD5
:101B1000E4800B0102040810204080901F95E47EB1
:101B2000019360BCA3FF543F30E509541FFEE493CA
:101B3000A360010ECF54C025E060A840B8E493A391
:101B4000FAE493A3F8E493A3C8C582C8CAC583CABC
:101B5000F0A3C8C582C8CAC583CADFE9DEE780BE74
:011FCB000015
:100DB70075F008758200EF2FFFEE33FECD33CDCCF3
:100DC70033CCC58233C5829BED9AEC99E582984076
:100DD7000CF582EE9BFEED9AFDEC99FC0FD5F0D653
:100DE700E4CEFBE4CDFAE4CCF9A88222B800C1B97D
:100DF7000059BA002DEC8BF084CFCECDFCE5F0CBBB
:100E0700F97818EF2FFFEE33FEED33FDEC33FCEBF3
:100E170033FB10D703994004EB99FB0FD8E5E4F9AE
:100E2700FA227818EF2FFFEE33FEED33FDEC33FC9B
:100E3700C933C910D7059BE99A4007EC9BFCE99A8F
:100E4700F90FD8E0E4C9FAE4CCFB2275F010EF2FD4
:100E5700FFEE33FEED33FDCC33CCC833C810D707D4
:100E67009BEC9AE899400AED9BFDEC9AFCE899F80F
:0E0E77000FD5F0DAE4CDFBE4CCFAE4C8F922A2
:00000001FF
