:1012F500D3EF9400EE940040147D657C18ED1D70CD
:0D130500011CED4C70F7EF1F70E61E80E339
:0113120022B8
:10134D00EF1FAA0670011E4A600BE4FDEDC3947BEE
:05135D0050EE0D80F7C9
:011362002268
:1005ED0040490FDA3F800000800000003F7EC4725A
:1005FD00BDC8BD233F7B14BABE47C5AC3F74FA05D9
:10060D00BE94A03C3F6C8366BEC3EF073F61C593AC
:10061D00BEF15AF33F54DB38BF0E39D63F45E3FCEC
:10062D00BF2267943F3504F7BF3504F73F22679427
:10063D00BF45E3FC3F0E39D6BF54DB383EF15AF3CC
:10064D00BF61C5933EC3EF07BF6C83663E94A03C6C
:10065D00BF74FA053E47C5ACBF7B14BA3DC8BD2378
:10066D00BF7EC47200000000BF800000BDC8BD2366
:10067D00BF7EC472BE47C5ACBF7B14BABE94A03C4E
:10068D00BF74FA05BEC3EF07BF6C8366BEF15AF3A4
:10069D00BF61C593BF0E39D6BF54DB38BF226794F7
:1006AD00BF45E3FCBF3504F7BF3504F7BF45E3FC99
:1006BD00BF226794BF54DB38BF0E39D6BF61C593D7
:1006CD00BEF15AF3BF6C8366BEC3EF07BF74FA0564
:1006DD00BE94A03CBF7B14BABE47C5ACBF7EC472EE
:1006ED00BDC8BD23BF80000080000000BF7EC47266
:1006FD003DC8BD23BF7B14BA3E47C5ACBF74FA05D8
:10070D003E94A03CBF6C83663EC3EF07BF61C593AB
:10071D003EF15AF3BF54DB383F0E39D6BF45E3FCEB
:10072D003F226794BF3504F73F3504F7BF22679426
:10073D003F45E3FCBF0E39D63F54DB38BEF15AF3CB
:10074D003F61C593BEC3EF073F6C8366BE94A03C6B
:10075D003F74FA05BE47C5AC3F7B14BABDC8BD2377
:10076D003F7EC472800000003F8000003DC8BD2365
:10077D003F7EC4723E47C5AC3F7B14BA3E94A03C4D
:10078D003F74FA053EC3EF073F6C83663EF15AF3A3
:10079D003F61C5933F0E39D63F54DB383F226794F6
:1007AD003F45E3FC3F3504F73F3504F73F45E3FC98
:1007BD003F2267943F54DB383F0E39D63F61C593D6
:1007CD003EF15AF33F6C83663EC3EF283F74FA0542
:1007DD003E94A03C3F7B14BA3E47C5AC3F7EC472ED
:0407ED003DC8BD2323
:1012B100900300EFF0AF05AC07E4120323900300A5
:1012C100E075F008A42400F582E5F03400F583020E
:0212D10005987E
:10127D00E4FB75F008EBA42404F582E5F03400F5E9
:10128D00831205A40000000075F008EBA42400F5FE
:10129D0082E5F03400F5831205A4000000000BEB8D
:0312AD00B440CF7B
:0112B000221B
:100F7300900306EFF075F008A42404F582E5F0343D
:100F830000F583E0FCA3E0FDA3E0FEA3E0FFA804DB
:100F9300A905AA06FB120106C004C005C006C007C6
:100FA300900306E075F008A42400F582E5F0340010
:100FB300F583E0FCA3E0FDA3E0FEA3E0FFA804A902
:100FC30005AA06FB120106D003D002D001D00012FD
:060FD3000015120DC822FA
:1007F100E4900301F0A3F0A3F0A3F0120C21E49024
:100801000301F0900301E0FFC3940640030209ECE9
:100811007401A807088002C333D8FC900304F0E4F4
:10082100900302F0900302E0C3944040030209E305
:10083100E4A3F0900304E0FF900303E0FEC39F40B4
:10084100030209D3EEFD900302E02DFDE433FC7EAB
:1008510000ED2FFFEE3CFEEF7803C333CE33CED84D
:10086100F92400F974003EFA7B01781D7C037D01B7
:100871007E007F081204CB900303E075F040A4FFD3
:10088100E5F0C313EF13FFA3E0FEEF8EF08475F0E4
:1008910008A424F1F9740535F0FA7BFF78257C036F
:1008A1007D017E007F081204CB90032D7401F0A31B
:1008B1007403F0A37415F0120D03900303E0FF908D
:1008C1000302E02FFFE433FEEF7803C333CE33CED0
:1008D100D8F92400F974003EFA7B01781D7C037D70
:1008E100017E007F081204CB78257C037D017B010A
:1008F1007A0379157E007F081204CB90032D7401D1
:10090100F0A37403F0A37405F012103A900303E00E
:10091100FF900302E02FFFE433FEEF7803C333CEF1
:1009210033CED8F92400F974003EFA7B01781D7C9E
:10093100037D017E007F081204CB78257C037D01B5
:100941007B017A0379157E007F081204CB90032D79
:100951007401F0A37403F0A3740DF01210979003C7
:1009610003E0FF900302E02FFFE433FEEF7803C3BF
:1009710033CE33CED8F92400F974003EA801FC7DB2
:10098100017B017A0379057E007F081204CB900375
:1009910003E0FF900302E02FFFE433FE900304E045
:1009A1007C002FFFEC3EFEEF7803C333CE33CED86D
:1009B100F92400F974003EA801FC7D017B017A0352
:1009C100790D7E007F081204CB900303E004F0024E
:1009D1000834900304E025E0FF900302E02FF002C9
:0B09E1000825900301E004F002080468
:0109EC0022E8
:100C2100E4900325F0A3F0A3F0900325F0900325B1
:100C3100E0FFC394404003020D02900327EFF0E46C
:100C4100900326F09003281205A440C000009003F1
:100C5100287F007E007D807CBF12038EE4FBFAF9C1
:100C6100F81202AC5019900326E025E0FFF0A3E052
:100C7100FE54014F900326F0EEC313A3F080CF90F2
:100C81000325E0FFA3E0D39F406EEF75F008A42495
:100C910000F9740035F0FA7B01781D7C037D017E3B
:100CA100007F081204CB900326E075F008A424000D
:100CB100F9740035F0FA7B01C001900325E075F06D
:100CC10008A42400F9740035F0A801FC7D01D001CD
:100CD1007E007F081204CB900326E075F008A4245F
:100CE10000F9740035F0A801FC7D017B017A0379DC
:100CF1001D7E007F081204CB900325E004F0020C56
:010D01002EC3
:010D020022CE
:10103A00900325E0FCA3E0FDA3E0FEA3E0FF9003FC
:10104A001DE0F8A3E0F9A3E0FAA3E0FB1200159073
:10105A00032DE0FBA3E0FAA3E0F91205429003296D
:10106A00E0FCA3E0FDA3E0FEA3E0FF900321E0F88B
:10107A00A3E0F9A3E0FAA3E0FB12001590032DE028
:0D108A00FBA3E0FAA3E0F990000402055C6E
:100D0300900329E0FCA3E0FDA3E0FEA3E0FF900332
:100D130021E0F8A3E0F9A3E0FAA3E0FB120106C087
:100D230004C005C006C007900325E0FCA3E0FDA3B3
:100D3300E0FEA3E0FF90031DE0F8A3E0F9A3E0FACF
:100D4300A3E0FB120106D003D002D001D0001200B1
:100D53001190032DE0FBA3E0FAA3E0F91205429002
:100D63000325E0FCA3E0FDA3E0FEA3E0FF90032145
:100D7300E0F8A3E0F9A3E0FAA3E0FB120106C00444
:100D8300C005C006C007900329E0FCA3E0FDA3E073
:100D9300FEA3E0FF90031DE0F8A3E0F9A3E0FAA3AC
:100DA300E0FB120106D003D002D001D000120015DF
:100DB30090032DE0FBA3E0FAA3E0F9900004020501
:010DC3005CD3
:10109700900325E0F8A3E0F9A3E0FAA3E0FB9003AF
:1010A7001DE0FCA3E0FDA3E0FEA3E0FF120011900A
:1010B700032DE0FBA3E0FAA3E0F912054290032910
:1010C700E0F8A3E0F9A3E0FAA3E0FB900321E0FC3A
:1010D700A3E0FDA3E0FEA3E0FF12001190032DE0C3
:0D10E700FBA3E0FAA3E0F990000402055C11
:10137800D297D29600000000C29700000000C296E3
:011388002242
:10136300C296C29700000000D29600000000D297F8
:05137300000000002253
:101212007E80EE601B5F7004C2978002D29700004E
:101222000000D29600000000C296EEC313FE80E2D8
:10123200D29700000000D296A2979201000000000F
:05124200C296A201B3F9
:011247002284
:100B3A007FAE1212D5E4FDFCFFFE1212D91212D3B7
:100B4A00E4FDFC7F40FE1212D9E4FDFC7FB0FE12E8
:100B5A0012D9E4FDFC7F81FE1212D9E4FDFC7FFF6D
:100B6A00FE1212D9E4FDFC7FA1FE1212D9E4FDFCAB
:100B7A007FA6FE1212D9E4FDFC7FA8FE1212D9E468
:100B8A00FDFC7F3FFE1212D9E4FDFC7FC8FE121263
:100B9A00D9E4FDFC7FD3FE1212D9E4FDFCFFFE125C
:100BAA0012D9E4FDFC7FD5FE1212D9E4FDFC7F8048
:100BBA00FE1212D9E4FDFC7FD8FE1212D9E4FDFC24
:100BCA007F05FE1212D9E4FDFC7FD9FE1212D9E488
:100BDA00FDFC7FF1FE1212D9E4FDFC7FDAFE12124F
:100BEA00D9E4FDFC7F12FE1212D9E4FDFC7FDBFE84
:100BFA001212D9E4FDFC7F30FE1212D9E4FDFC7F0B
:100C0A008DFE1212D9E4FDFC7F14FE1212D9E4FD06
:070C1A00FC7FAFFE0212D9BE
:0612D3007F10E4FDFCFEAB
:1012D900900314EEF0A3EFF0ED4C9003146006A315
:0C12E900E0FF021330A3E0FF12131322F9
:10131300900316EFF01213787F78121212E4FF1283
:0D1323001212900316E0FF12121202136363
:10133000900316EFF01213787F781212127F40128A
:0D1340001212900316E0FF12121202136346
:10114200E4900301F0900301E0FFC39408503BEFE9
:1011520024B0FFE433FEE4FDFC1212D9E4FDFCFFEF
:10116200FE1212D91212D3E4900302F07D017C0028
:10117200E4FFFE1212D9900302E004F0E0C394806F
:0A11820040EA900301E004F080BB96
:01118C002240
:10124800900313EFF0ED24B0FFE433FEE4FDFC124D
:1012580012D9900313E054F0C4540F7E004410FFD9
:10126800E4FDFC1212D9900313E0540FFF7E00E452
:05127800FDFC0212D98B
:0A0EFC00900308EFF090030AEBF0FA
:100F0600E490030FF0A3F0900312EDF090030BE0D2
:100F1600FF900312E0FDD39F5052900308E0FF12AA
:100F26001248900308E0900311F090030AE0FF9046
:100F36000311E0C39F502D90030CE0FBA3E0FAA33E
:100F4600E0F9A3E475F00112051E85F082F583121F
:100F560004F1FF7E007D017C001212D9900311E09E
:0C0F660004F080C6900312E004F080A0AC
:010F7200225C
:04000300410339007C
:10118D00D2AFE4FFE4FEEF75F008A42400F582E48D
:10119D003402F583E5822EF582E43583F583E4F0A0
:1011AD000EEEB408E10FEFB420DA121389120B3AE8
:1011BD00121142900339E0C3944040F7E4F0120756
:0911CD00F11209ED12127D80EA15
:0E138900758901758CFF758A48D2A9D28C2215
:03000B00020FD908
:100FD900C0E0C0F0C083C082C0D075D000C000C0DE
:100FE90001C002C003C004C005C006C007758CFF5C
:100FF900758A80D2B230B204D2008002C200900356
:1010090039E0FFC39440500EA200E433FD1212B13F
:10101900900339E004F0D007D006D005D004D003FE
:10102900D002D001D000D0D0D082D083D0F0D0E08F
:011039003284
:0C139700E0E0E000EEEEEE0000000000E0
:1011D600E4900307F0900306F0900306E0C3942022
:1011E6005029A3E0FF2404FBE490030BF0A374FF53
:1011F600F0A37413F0A37497F0E4FD120EFC9003B1
:0B12060006E004F0A3E02404F080CE1A
:0112110022BA
:1009ED00E4900304F0A3F01211D6E4900301F0900B
:1009FD000301E0FFC394204003020B39120F73E48F
:100A0D00FBFAF9784012020F120357900303EFF02F
:100A1D00D3940840037408F09003027401F090031E
:100A2D0003E0FF900302E0FED39F506B900305E0BF
:100A3D0075F008A42400F582E43402F583E5822ED6
:100A4D00F582E43583F583E07045900304E0FF9073
:100A5D000302E0FDEF2404FB90030BEDF0A374FF04
:100A6D00F0A37413F0A3749BF0120EFC900302E03C
:100A7D00FF900305E075F008A42400F582E434022C
:100A8D00F583E5822FF582E43583F5837401F090CB
:100A9D000302E004F08087900303E004900302F06A
:100AAD00900302E0FFC39408506C900305E075F0CD
:100ABD0008A42400F582E43402F583E5822FF58243
:100ACD00E43583F583E064017044900304E0FF9006
:100ADD000302E0FDEF2404FB90030BEDF0A374FF84
:100AED00F0A37413F0A3749FF0120EFC900302E0B8
:100AFD00FF900305E075F008A42400F582E43402AC
:100B0D00F583E5822FF582E43583F583E4F09003D8
:100B1D0002E004F0808A900305E004F0900304E005
:0C0B2D002404F0900301E004F00209FC35
:010B39002299
:0610F40090033012059884
:1010FA00900334E0FCA3E0FDA3E0FEA3E0FF90032D
:10110A0030E0F8A3E0F9A3E0FAA3E0FB1202AC6036
:10111A000740059003308003900334E0FCA3E0FD10
:10112A00A3E0FEA3E0FF120357900338EFF0900309
:07113A0038E0FCE41203237E
:01114100228B
:10000E000203E6E86480F8E933E83360110460F037
:10001E00ED33EC337009E8FCE9FDEAFEEBFF220458
:10002E0060DED3EB9FEA9EE99DE8C2E78CF0C2F753
:10003E0095F0400CE8CCF8E9CDF9EACEFAEBCFFB1F
:10004E001203B185D0F05804700320D5B3E80470C4
:10005E00075002B2D50203F092D5EC0460F7E4CC5F
:10006E00C0E0C398F8603B94186008400DD0E0FBE8
:10007E000203C8E4FBFAC9FC8028E830E406E4C9B0
:10008E00FBE4CAFCE830E305E4C9CACBFCE854073C
:10009E006010F8C3E913F9EA13FAEB13FBEC13FC47
:1000AE00D8F130F52FC3E49CFCEF9BFFEE9AFEEDEA
:1000BE0099FDD0E0FBEF4E4D4C701222DB03020394
:1000CE00EDEC2CFCEF33FFEE33FEED33FDED30E7C0
:1000DE00EB0203C8EF2BFFEE3AFEED39FDD0E0FB4D
:1000EE0050130BBB00030203F0ED13FDEE13FEEFF6
:0800FE0013FFEC13FC0203C820
:10010600EC4D6011E8497017ED33EC3304600DE4F3
:10011600FCFFFEFD22E933E8330470F80203E61221
:1001260003B158046009E4CC248150062850090222
:1001360003F02840030203EDC0E0EB4A7044B980A7
:1001460006D0E0FB0203DCEF4E701CBD8008EBFF1F
:10015600EAFEE9FD80EBE98DF0A4FEE5F00201EF91
:10016600E9CDF9EAFEEBFFEF89F0A4FCE5F0CE89D4
:10017600F0A42EFFE435F0CD89F0A42DFEE435F091
:100186008067EF4E7005BD80D780C3EF8BF0A4ACBF
:10019600F0EE8BF0A42CFCE435F0F8EF8AF0A42CFA
:1001A600E5F038FCE433CB8DF0A42CFCE5F03BF80D
:1001B600EE8AF0A42CFCE5F038F8E433CF89F0A4FD
:1001C6002CFCE5F038CF3400CE89F0A42FFFE5F003
:1001D6003EFEE433C98DF0A42EFEE5F039CD8AF05B
:1001E600A42FFFE5F03EFEE43DFD33D0E0FB5007D3
:1001F6000BBB000F0203F0EC2CFCEF33FFEE33FEDB
:06020600ED33FD0203C808
:10020C000203F0EC5D046005E8590470030203E698
:10021C001203B1580460F6EC4860F2EC7004FDFE79
:10022C00FF22C860DB2481C85009C39860025006C5
:10023C000203ED9850CAF582E9294B4A7005AB824E
:10024C000203DC75F0007C1A7880C3EF9BEE9AED0C
:10025C0099400DC3EF9BFFEE9AFEED99FDE842F03D
:10026C00DC23ACF0D0E0FFD0E0FED0E0FDAB822090
:10027C00E7101BEB60BAEC2CFCEF33FFEE33FEED1A
:10028C0033FD0203C8E803F830E705C0F075F00051
:10029C00EF2FFFEE33FEED33FD40B830E7C280AAFE
:1002AC0074F8CC6480CCC86480C8F582046043C305
:1002BC00EB9FF5F0EA9E42F0E99D42F0E89C45F098
:1002CC0060305018E5825FFFE582F42B5582FB50BD
:1002DC00210ABA001D09B90019088016E5825BFBDA
:1002EC00E582F42F5582FF50090EBE00050DBD00AE
:1002FC00010CC3EB9FF5F0EA9E42F0E99D42F0E859
:0D030C009C45F06007CC4820E701B3EC22CF
:1003190075F020800E75F010800575F0087D007E5F
:10032900007F003392D530D503120534EC334010E9
:10033900EF33FFEE33FEED33FDEC33FCD5F0ED2268
:0E034900E5F0247EA2D513CC92E7CDCEFF22A4
:10035700EDD2E7CD33EC3392D524814006E4FFFE9E
:10036700FDFC22FCE4CFCECDCC24E0501174FF80FD
:10037700EDC3CC13CCCD13CDCE13CECF13CF04709A
:07038700F030D5DE02053461
:10038E007D80E4FEFFC083C08212058C120015D062
:10039E0082D083E0CCF0A3E0CDF0A3E0CEF0A3E0DA
:0303AE00CFF0226B
:100DC4000203E622EDA2E7D2E7F9EC3340F260F346
:100DD400B4FF08ED547F70E80203F0F82481C2E008
:100DE400C0E0F40428FAC313FCED92E7FD90030776
:100DF400120598EEA2E7E9BA7F02C3133400940007
:100E0400FA75F091A4E5F013F494FE8AF0A433E5A6
:100E1400F033248CD313FDE492E7FE7F007C3F750E
:100E24008302ECC0E0F8EDC0E0F9EEC0E0FAEFC0F8
:100E3400E0FB8583F090030712058085F08312029E
:100E44000FD0E0FBD0E0FAD0E0F9D0E0F8120015C2
:100E5400ED6480FD30E7011CD583C7ED33CC33F856
:0C0E6400D0E0A2E71328C313CC13FD223A
:1003B100E9D2E7C933E833F892D5EDD2E7CD33EC92
:0703C10033FC5002B2D5220B
:1003C800EC30E7100FBF000C0EBE00080DBD000496
:1003D8000BEB6014A2D5EB13FCED92E7FD2274FF42
:1003E800FCFDFEFF22E480F8A2D574FF13FC7D809B
:0303F800E480EFAF
:03000000020E707D
:0C0E7000787FE4F6D8FD758120020EB7F3
:1003FB00E709F608DFFA8046E709F208DFFA803EE4
:10040B0088828C83E709F0A3DFFA8032E309F608D0
:10041B00DFFA8078E309F208DFFA807088828C8338
:10042B00E309F0A3DFFA806489828A83E0A3F608EC
:10043B00DFFA805889828A83E0A3F208DFFA804CC6
:10044B0080D280FA80C680D4806980F2803380109D
:10045B0080A680EA809A80A880DA80E280CA803306
:10046B0089828A83ECFAE493A3C8C582C8CCC5837E
:10047B00CCF0A3C8C582C8CCC583CCDFE9DEE7804E
:10048B000D89828A83E493A3F608DFF9ECFAA9F0CD
:10049B00EDFB2289828A83ECFAE0A3C8C582C8CC23
:1004AB00C583CCF0A3C8C582C8CCC583CCDFEADE3C
:1004BB00E880DB89828A83E493A3F208DFF980CC9E
:1004CB0088F0EF60010E4E60C388F0ED2402B40497
:1004DB000050B9F582EB2402B4040050AF2323453E
:0604EB00822390044B7314
:1004F100BB010CE58229F582E5833AF583E02250C0
:1005010006E92582F8E622BBFE06E92582F8E22209
:0D051100E58229F582E5833AF583E4932223
:10051E00A3F8E0C5F025F0F0E58215827002158390
:06052E00E0C838F0E822ED
:0E053400C3E49FFFE49EFEE49DFDE49CFC22D8
:10054200BB010789828A830205985005E9F80205F2
:0A055200D5BBFE05E9F80205E12221
:10055C00BB010DE58229F582E5833AF58302059806
:10056C005007E92582F80205D5BBFE07E92582F87C
:04057C000205E12271
:0C058000E0FCA3E0FDA3E0FEA3E0FF22EE
:0C058C00E0F8A3E0F9A3E0FAA3E0FB22F2
:0C059800ECF0A3EDF0A3EEF0A3EFF022D6
:1005A400A8828583F0D083D0821205BB1205BB12CA
:1005B40005BB1205BBE473E493A3C583C5F0C583EF
:1005C400C8C582C8F0A3C583C5F0C583C8C582C8A1
:0105D4002204
:100E7C0002118DE493A3F8E493A34003F68001F2EE
:100E8C0008DFF48029E493A3F85407240CC8C33377
:100E9C00C4540F4420C8834004F456800146F6DF46
:100EAC00E4800B0102040810204080900003E47ED3
:100EBC00019360BCA3FF543F30E509541FFEE4933B
:100ECC00A360010ECF54C025E060A840B8E493A302
:100EDC00FAE493A3F8E493A3C8C582C8CAC583CA2D
:100EEC00F0A3C8C582C8CAC583CADFE9DEE780BEE5
:0100070000F8
:0C05D500ECF608EDF608EEF608EFF62252
:0C05E100ECF208EDF208EEF208EFF22256
:00000001FF
