:0451550041049B0175
:10504E00EF60037F012212406A3099FDC299759973
:10505E00AA3099FDC2998F99EF700790049BE05486
:07506E00FEF090049BE0FF3F
:015075002218
:0C512B00EF60037F012290049BE0FF2254
:104F8E00EF700B900301E06005D3940140037F04A2
:104F9E002290049BE030E0037F03229002FDE0FCB0
:104FAE00A3E0FDA3E0FEA3E0FF124775EF60037FD1
:054FBE0001227F00222A
:104FC300EF700B900301E06005D3940140037F046D
:104FD3002290049BE030E0037F03229002FDE0FC7B
:104FE300A3E0FDA3E0FEA3E0FF124967EF60037FA8
:054FF30001227F0022F5
:104F4B0090028CEBF0A3EAF0A3E9F0EF60037F048F
:104F5B002290049BE030E0037F032290028B7401CC
:104F6B00F0ED701012515D125114BFFF0DE4900261
:104F7B008BF0800690028B7404F012515A90028BC6
:024F8B00E0FF45
:014F8D002201
:0C513700612E74787400622E747874008D
:10487800D2AF7F807E251250767F147E001250C4FE
:104888007599FF7B017A007900E4FF124E6B900264
:104898008174FFF0A37451F0A37437F0A37401F08E
:1048A800FB7A02792E121F3A90028174FFF0A374EA
:1048B80051F0A3743DF0A3740AF07B017A02795099
:1048C800121F3A9002817401F0A37402F0A374726B
:1048D800F0A3E4F0A37408F0A37401F0A37402F049
:1048E800A3747AF07B017A02792E121A5F8F99EFFE
:1048F800704E90027AE0FCA3E0FD4C604390028188
:104908007401F0A37402F0A37472F0A3ECF0A3EDA9
:10491800F0A37401F0A37402F0A3747CF07B017A15
:10492800027950120A1F8F99EF701590027AE0FCF5
:10493800A3E0FDC390027DE09D90027CE09C508343
:104948007B017A02792E124FF87B017A0279501294
:0F4958004FF87B007A007900E4FF124E6B80FE6F
:1050C400D3EF9400EE940040147D657C18ED1D70C0
:0D50D400011CED4C70F7EF1F70E61E80E32D
:0150E10022AC
:1050760075985053890F438920AB07AA06E4F9F8BF
:105086007F807E70FDFC124F07EFF404F58D858D51
:085096008BC2ABD2ACD28E221A
:03515A00D29322CB
:03515D00C29322D8
:07514D00E4FF0FEFB428FBA3
:015154002238
:07509E007FFF1250A57FFF08
:0250A500AE0754
:1050A700E4FDC297EE30E704D2958002C295D2970D
:0C50B70012514DEE25E0FE0DEDB408E6B0
:0150C30022CA
:1050E2007EFFE4FDC29712514DD297EE25E0FE30CD
:0A50F20096010E0DEDB408ECAF06B8
:0150FC002291
:104EC000E490030DF0A3F0A374FFF0E4FBFD7F3743
:104ED000AC07AA05D295C2937FFF1250A5EC2440DF
:104EE000FF1250A5AF021250A5AF031250A59003B8
:104EF0000DE0FF1250A5A3E0FF1250A5A3E0FF12A2
:074F000050A57FFF0250A540
:1050FD007C647FFFE4FBEBC39C500B1250E2EFF49A
:06510D006001220B80F09E
:015113002279
:10406A00D293E4FA7FFF1250A50AEAB40AF6C29381
:10407A00E490030DF0A3F0A37495F0E4FBFDFF12A6
:10408A004ED079647FFFE4FAEAC399500B1250FDCF
:10409A00EF640160030A80F03099FDC2997599BBFB
:1040AA003099FDC2998F99EF640160037F012290D4
:1040BA00030D7401F0A374AAF0A37487F0E4FBFD66
:1040CA007F08124ED079647FFFE4FAEAC399500A56
:1040DA001250FDEFB4FF030A80F13099FDC29975C1
:1040EA0099CC3099FDC2998F99EF640170361250BC
:1040FA00E21250E21250E21250E2124EC0E4900371
:10410A000DF0A3F0A374FFF0E4FD7F29124ED079DD
:10411A00647FFFE4FAEAC39950341250FDEFF47059
:10412A002D0A80F1124EC0E490030DF0A3F0A3749F
:10413A00FFF0E4FD7F29124ED079647FFFE4FAEAAA
:10414A00C399500A1250FDEFB4FF030A80F1309967
:10415A00FDC2997599DD3099FDC2998F99E4900352
:10416A000DF0A3F0A374FFF0E4FBFD7F01124ED023
:10417A0079647FFFE4FAEAC39950091250FDEF60AF
:10418A00030A80F23099FDC2997599EE3099FDC201
:10419A00998F9990030D7402F0E4A3F0A374FFF0D1
:1041AA00E4FBFD7F10124ED079647FFFE4FAEAC384
:1041BA009950091250FDEF60030A80F23099FDC24E
:1041CA00997599993099FDC2998F99EF60037F018A
:0541DA0022C2937F00EA
:0141DF0022BD
:105114007C64E4FBEBC39C500B1250E2EFF460019F
:06512400220B80F07FFF6A
:01512A002262
:10496700900302120574900306EBF0A3EAF0A3E9A3
:01497700F04F
:10497800900302E0FCA3E0FDA3E0FEA3E0FF7809BA
:10498800120419900302120574900302A3A3A3E072
:10499800F9900302E0FCA3E0FDA3E0FEA3E0FF78AA
:1049A80008120406AA07900302E0FCA3E0FDA3E0B6
:1049B800FEA3E0FF7810120406AB07900302E0FCA8
:1049C800A3E0FDA3E0FEA3E0FF7818120406AD07FC
:1049D80090030DEAF0A3E9F0A374FFF07F18124EDC
:1049E800D07A647FFFE4900309F0900309E0C39A4A
:1049F800500E1250FDEF6008900309E004F080EAC1
:104A0800EF60037F01227FFE1250A5E4900309F0B6
:104A1800C374809482501F900306E0FBA3E475F0F2
:104A2800011201CEA9F0FA1200F9FF1250A5900365
:104A380009E004F080DA12509E1250FD7FFF1250F8
:054A4800A5D2937F00E0
:014A4D002246
:10477500900302120574900306EBF0A3EAF0A3E997
:01478500F043
:10478600900302E0FCA3E0FDA3E0FEA3E0FF7809AE
:10479600120419900302120574900302A3A3A3E066
:1047A600F9900302E0FCA3E0FDA3E0FEA3E0FF789E
:1047B60008120406AA07900302E0FCA3E0FDA3E0AA
:1047C600FEA3E0FF7810120406AB07900302E0FC9C
:1047D600A3E0FDA3E0FEA3E0FF7818120406AD07F0
:1047E60090030DEAF0A3E9F0A374FFF07F11124ED7
:1047F600D07A647FFFE4900309F0900309E0C39A3E
:10480600500E1250FDEF6008900309E004F080EAB4
:10481600EF60037F01227A647FFFE4900309F09042
:104826000309E0C39A50101250FDEF64FE60089031
:104836000309E004F080E8EF64FE60037F0122E4F0
:10484600900309F0C374809482501F1250E29003C3
:1048560006E0FBA3E475F0011201CEA9F0FAEF120F
:104866000172900309E004F080DA12509ED2937F21
:014876000041
:01487700221E
:0A5143004641540046415433320047
:10350D00F9F89002D9E0FCA3E0FDA3E0FEA3E0FFF3
:10351D001203569002E1E0F8A3E0F9A3E0FAA3E06C
:0B352D002FFFEA3EFEE93DFDE83CFCFC
:063538009002ED12057483
:10353E00900498E0FBA3E0FAA3E0F99002F5EBF01B
:10354E00A3EAF0A3E9F090000412044C9002F112E9
:10355E0005749002EDE0FCA3E0FDA3E0FEA3E0FF06
:10356E00A3E0F8A3E0F9A3E0FAA3E0FBC31203F58E
:05357E0070030236EBB2
:103583009002F5E0FBA3E0FAA3E0F990002D12010D
:1035930012700302368AE9242EF9E43AFA9002F112
:1035A300E0FCA3E0FDA3E0FEA3E0FF9002FD120513
:1035B300749003017401F0E4FF124FC3EF60037FC3
:1035C30000229002F5E0FBA3E0FAA3E0F990002DBE
:1035D300E412018490001412044C9000081204DADF
:1035E300EB2FFFEA3EFEE93DFDE83CFC9002F1E0F3
:1035F300F8A3E0F9A3E0FAA3E0FBC31203F5400349
:1036030002368A9002F5E0FBA3E0FAA3E0F990000A
:103613002C1201129002F8F09002F8E0C3940240D9
:10362300669002F1E0FCA3E0FDA3E0FEA3E0FFA3AC
:10363300E0FBA3E0FAA3E0F99000141204DAEF2B05
:10364300FFEE3AFEED39FDEC38FC9002F112057401
:103653009002F5E0FBA3E0FAA3E0242EF9E43AFAA2
:103663009002F1E0FCA3E0FDA3E0FEA3E0FF9002E3
:10367300FD1205749003017401F0E4FF124FC3902F
:1036830002F8E014F080919002EDE0FCA3E0FDA3CA
:10369300E0FEA3E0FFEC4D4E4F604D9002F5E0FBE2
:1036A300A3E0FAA3E0242EF9E43AFA9002EDA3A3EF
:1036B300A3E09002FD1205749003017401F0E4FF8E
:1036C300124F8EEF60037F00229002EDE0FCA3E037
:1036D300FDA3E0FEA3E0FF9002F5E0FBA3E0FAA365
:0836E300E0F9900004120496C6
:0236EB007F015D
:0136ED0022BA
:10455A00900498E0FBA3E0FAA3E0F9900288EBF05C
:10456A00A3EAF0A3E9F090002D74011201847F0000
:10457A007E007D007C00123538EF70037F082290A0
:10458A000288E0FBA3E0FAA3E0F990002A120112E4
:10459A006403600302465590002812011270030258
:1045AA004655900288A3A3E09000041205B10000CA
:1045BA0000007E027F007D00E9242EF9E43AFA1217
:1045CA0008C6900288E0FBA3E0FAA3E0F990022C67
:1045DA0074AA75F05512029E90002E1205B141611F
:1045EA0052529002121205B1614172729000201269
:1045FA00044C90021612049690001C12044C90026D
:10460A001A120496E9242EF9E43AFAC003C002C049
:10461A0001900288E0FBA3E0FAA3E0F990002412DB
:10462A00044C9002FD1205749003017401F0D0014C
:10463A00D002D003E4FF124FC3900288E0FBA3E04C
:10464A00FAA3E0F9900028E41201847B007A007949
:0F465A0000E4FDFF124F4BEF60037F08227F004B
:01466900222E
:0B32E900E0FCA3E0FDA3E0FEA3E0FF7B
:0632F4009002D9120574DE
:1032FA00900498E0F9A3E0FAA3E09002E5C9F0A3EC
:10330A00EAF0A3E9F0E47F02FEFDFC9002D9E0F8BE
:10331A00A3E0F9A3E0FAA3E0FBC31203F55003020A
:10332A0035069002E5E0FBA3E0FAA3E0F990001865
:10333A0012044C9002D9E0F8A3E0F9A3E0FAA3E062
:10334A00FBC31203F540030235069002E5E0FBA336
:10335A00E0FAA3E0F990000812044C9002E1120589
:10336A007490002A12011224FE700302348C147025
:10337A00030234C7240260030235069002D9A3A3CC
:10338A00E0FEA3E0FF7C007D031201A6EEC313FE5C
:10339A00EF13FF9002DFEEF0A3EFF09002DFE0C33D
:1033AA0013FF7E00E4FD9002E1E0F8A3E0F9A3E058
:1033BA00FAA3E02FFFEE3AFEED39FDEC38FC1235A8
:1033CA0038EF70030235069002E5E0FBA3E0FAA3AA
:1033DA00E0242EF9E43AFA9002DFE05401FEA3E079
:1033EA0029F9EA3EFA1200F9FF9002DDE4F0A3EFB0
:1033FA00F09002E0E004F070069002DFE004F09042
:10340A0002DFE0C313FF7E00E4FCFD9002E1E0F876
:10341A00A3E0F9A3E0FAA3E02FFFEE3AFEED39FDAF
:10342A00EC38FC123538EF70030235069002E5E0FD
:10343A00FBA3E0FAA3E0242EF9E43AFA9002DFE0D3
:10344A005401FEA3E029F9EA3EFA1200F9FE9002BD
:10345A00DDE04EF0A3E0F09002D9A3A3A3E054016B
:10346A00FFEF6012A3E0C4F854F0C868FEA3E0C4FA
:10347A00540F48FF80439002DDE0540FFEA3E0FFA3
:10348A008037E4FB7A0112350DEF60709002E5E0B7
:10349A00FBA3E0FAA3E0242EF9E43AFA9002D9A3B6
:1034AA00A3E0FEA3E025E0FFEE335401FEE92FF985
:1034BA00EA3EFA1201E4FFAEF0E4FCFD22E47B806E
:1034CA00FA12350DEF60359002E5E0FBA3E0FAA3AE
:1034DA00E0242EF9E43AFA9002D9A3A3E0FEA3E08D
:1034EA007802C333CE33CED8F9FFEE5401FEE92F6A
:1034FA00F9EA3EFA12042CEC540FFC22E47F01FE96
:02350A00FDFCC6
:01350C00229C
:0B266E00E0FCA3E0FDA3E0FEA3E0FF02
:062679009002D912057465
:10267F00900498E0FBA3E0FAA3E0F99002EAEBF0F4
:10268F00A3EAF0A3E9F090000812044C9002E612BE
:10269F00057490002A12011224FE700302283D14C3
:1026AF00700302289C2402600302290E9002D9A312
:1026BF00A3E0FEA3E0FF7C007D031201A6EEC3138F
:1026CF00FEEF13FF9002E1EEF0A3EFF09002E1E0D6
:1026DF00C313FF7E00E4FD9002E6E0F8A3E0F9A348
:1026EF00E0FAA3E02FFFEE3AFEED39FDEC38FC12D5
:1026FF003538EF7002FF229002EAE0FBA3E0FAA365
:10270F00E0242EF9E43AFA9002E1E05401FEA3E04E
:10271F0029F9EA3EFAA3EBF0A3EAF0A3E9F090025D
:10272F00D9A3A3A3E05401FFEF601DA3A3A3A3E0CC
:10273F00C454F0FF9002E3E0FBA3E0FAA3E0F91228
:10274F0000F9540F4FFF80089002DDA3A3A3E0FF11
:10275F009002E3E0FBA3E0FAA3E0F9EF120172901D
:10276F0002E2E004F070069002E1E004F09002EA69
:10277F00E0FBA3E0FAA3E0F990002D7401120184AD
:10278F009002E1E0C313FF7E00E4FCFD9002E6E05F
:10279F00F8A3E0F9A3E0FAA3E02FFFEE3AFEED393C
:1027AF00FDEC38FC123538EF7002FF229002EAE0A0
:1027BF00FBA3E0FAA3E0242EF9E43AFA9002E1E059
:1027CF005401FEA3E029F9EA3EFAA3EBF0A3EAF0E5
:1027DF00A3E9F09002D9A3A3A3E05401FFEF601384
:1027EF00A3E0FCA3E0FDA3E0FEA3E0FF7804120446
:1027FF000680299002DDE0FCA3E0FDA3E0FEA3E04C
:10280F00FF7808120406EF540FFF9002E3E0FBA3DA
:10281F00E0FAA3E0F91200F954F04FFF9002E3E061
:10282F00FBA3E0FAA3E0F9EF120172022911E4FB16
:10283F007A01F9F89002D9E0FCA3E0FDA3E0FEA332
:10284F00E0FF1203569002E6123523EF7002FF22CB
:10285F009002DDA3A3E0FEA3E0FF8FF0C00690027D
:10286F00EAE0FBA3E0FAA3E0242EF9E43AFA90029F
:10287F00D9A3A3E0FEA3E025E0FFEE335401FEE968
:10288F002FF9EA3EFAD0E012027F022911E47B8091
:10289F00FAF9F89002D9E0FCA3E0FDA3E0FEA3E073
:1028AF00FF1203569002E6123523EF7002FF2290BB
:1028BF0002DDE0FCA3E0FDA3E0FEA3E0FFC004C047
:1028CF0005C006C0079002EAE0FBA3E0FAA3E024EC
:1028DF002EF9E43AFA9002D9A3A3E0FEA3E078021E
:1028EF00C333CE33CED8F9FFEE5401FEE92FF9EA08
:1028FF003EFAD007D006D005D00412047C80037FA7
:10290F0000229002EAE0FBA3E0FAA3E0F990002D89
:07291F0074011201847F0125
:01292600228E
:0B466A00E0FCA3E0FDA3E0FEA3E0FFE6
:064675009002B012057472
:10467B00900498E0F9A3E0FAA3E09002B8C9F0A384
:10468B00EAF0A3E9F0E47F02FEFDFC9002B0E0F853
:10469B00A3E0F9A3E0FAA3E0FBC31203F550030276
:1046AB0047729002B8E0FBA3E0FAA3E0F990001880
:1046BB0012044C9002B0E0F8A3E0F9A3E0FAA3E0F7
:1046CB00FBC31203F540030247729002B01232E9AA
:1046DB009002B4120574E47F01FEFDFC9002B4E07D
:1046EB00F8A3E0F9A3E0FAA3E0FBC31203F5700211
:1046FB00FF229002DD120580000000009002B01234
:10470B00266EEF7002FF229002B8E0FBA3E0FAA343
:10471B00E0F990002012044C74FFFBFAF9F8C31275
:10472B0003F5602C9002B8E0FBA3E0FAA3E0F9904C
:10473B00002012044CEF2401FFE43EFEE43DFDE4B7
:10474B003CFC900020120496900028740112018406
:10475B009002B4E0FCA3E0FDA3E0FEA3E0FF900217
:09476B00B01205740246907F01B2
:014774002222
:062927009002C2120574CB
:10292D00900498E0FBA3E0FAA3E0F99002D6EBF057
:10293D00A3EAF0A3E9F090001812044C9002D21211
:10294D000574E4FFFEFDFC9002C2E0F8A3E0F9A3DC
:10295D00E0FAA3E0FBC31203F570599002D6E0FB39
:10296D00A3E0FAA3E0F990001C12044C9002CE12E1
:10297D000574E47F02FEFDFC9002CEE0F8A3E0F9C1
:10298D00A3E0FAA3E0FBC31203F5401C9002D2E0D2
:10299D00FCA3E0FDA3E0FEA3E0FF9002CEE0F8A3D0
:1029AD00A3A3E01203F540729002CE120580000041
:1029BD00000180669002C21232E99002C6120574BF
:1029CD00E47F02FEFDFC9002C6E0F8A3E0F9A3E06F
:1029DD00FAA3E0FBC31203F55004E4022B27900287
:1029ED00D2E0FCA3E0FDA3E0FEA3E0FF9002C6E071
:1029FD00F8A3E0F9A3E0FAA3E0FBC31203F5500638
:102A0D009002C6022BCA9002C2E0FCA3E0FDA3E037
:102A1D00FEA3E0FF9002CE1205749002CEE0FCA35F
:102A2D00E0FDA3E0FEA3E0FF9002CA120574900240
:102A3D00CAE0FCA3E0FDA3E0FEA3E02401FFE43E19
:102A4D00FEE43DFDE43CFC9002CA1205749002D2F6
:102A5D00E0FCA3E0FDA3E0FEA3E0FF9002CAE0F8D6
:102A6D00A3E0F9A3E0FAA3E0FBC31203F5402F9016
:102A7D0002CA120580000000029002CEE0FCA3E025
:102A8D00FDA3E0FEA3E0FF9002CAE0F8A3E0F9A3E6
:102A9D00E0FAA3E0FBD31203F54003E48066900255
:102AAD00CA1232E99002C6120574E4FFFEFDFC90D5
:102ABD0002C6E0F8A3E0F9A3E0FAA3E0FBC312031A
:102ACD00F56044E47F01FEFDFC9002C6E0F8A3E052
:102ADD00F9A3E0FAA3E0FBC31203F57002803B906B
:102AED0002CEE0FCA3E0FDA3E0FEA3E0FF9002CA4E
:102AFD00E0F8A3E0F9A3E0FAA3E0FBC31203F5604D
:102B0D0003022A3BFF804F9002DD1205800FFFFF6D
:102B1D00FF9002CA12266EEF70047F018038E4FF29
:102B2D00FEFDFC9002C2E0F8A3E0F9A3E0FAA3E0F9
:102B3D00FBC31203F560239002CAE0FCA3E0FDA3E2
:102B4D00E0FEA3E0FF9002DD1205749002C2122692
:102B5D006EEF70067F01FEFDFC229002CAE0FCA321
:102B6D00E0FDA3E0FEA3E0FF9002D6E0FBA3E0FAB8
:102B7D00A3E0F990001C12049690002012044C74EE
:102B8D00FFFBFAF9F8C31203F5602F9002D6E0FBB4
:102B9D00A3E0FAA3E0F990002012044CEF24FFFF0C
:102BAD00EE34FFFEED34FFFDEC34FFFC90002012FF
:102BBD00049690002874011201849002CAE0FCA3CF
:082BCD00E0FDA3E0FEA3E0FF20
:012BD50022DD
:104A4E009002BCE0FCA3E0FDA3E0FEA3E0FF900219
:104A5E00B0E0FBA3E0FAA3E0F990000712049690F1
:104A6E00000B1204969002BCE0FCA3E0FDA3E0FE56
:034A7E00A3E0FFB3
:064A81009002D012057442
:104A8700900498E0FBA3E0FAA3E0F99002D4EBF0DE
:104A9700A3EAF0A3E9F09002D0E0FCA3E0FDA3E0D5
:104AA700FEA3E0C39402FFEE9400FEED9400FDEC3C
:104AB7009400FC9002D012057490001812044CEF79
:104AC70024FEFFEE34FFFEED34FFFDEC34FFFC90D7
:104AD70002D0E0F8A3E0F9A3E0FAA3E0FBC31203D6
:104AE700F54006E4FFFEFDFC229002D4E0FBA3E0C4
:104AF700FAA3E0F990002B120112FFE4FCFDFE90EF
:104B070002D0E0F8A3E0F9A3E0FAA3E0FB1202CB9E
:104B17009002D4E0FBA3E0FAA3E0F990001012049E
:0D4B2700DAEF2BFFEE3AFEED39FDEC38FC25
:014B3400225E
:083EED00E0FBA3E0FAA3E0F9F9
:0B3EF5009002C7EBF0A3EAF0A3E9F095
:103F000090000212020F2401FFE435F09002CEF07F
:103F1000A3EFF0540F600302404B9002C7E0FBA3F5
:103F2000E0FAA3E0F990000F12044CEF2401FFE443
:103F30003EFEE43DFDE43CFC90000F120496900030
:103F40000B12044CE4FBFAF9F8C31203F5702C9041
:103F500002C7E0FBA3E0FAA3E0F9900004120666B2
:103F600090000212020FFFC39002CFE09F9002CE9A
:103F7000E095F0500302404B7F00229002C7E0FB27
:103F8000A3E0FAA3E0F990000412066690002B1259
:103F9000011224FFFDE434FFFC9002CEE0C4F8548B
:103FA000F0C868FEA3E0C4540F48FFEC5EFEED5F6E
:103FB0004E600302404B9002C7E0FBA3E0FAA3E08F
:103FC000F990000B12044C1232F49002CA120574DC
:103FD000E47F02FEFDFC9002CAE0F8A3E0F9A3E052
:103FE000FAA3E0FBC31203F5402B9002C7E0FBA34A
:103FF000E0FAA3E0F990000412066690001812049B
:104000004C9002CAE0F8A3E0F9A3E0FAA3E0FBC3F6
:104010001203F540037F00229002CAE0FCA3E0FDFA
:10402000A3E0FEA3E0FF9002C7E0FBA3E0FAA3E059
:10403000F990000B120496124A819002C7E0FBA38C
:10404000E0FAA3E0F990000F1204969002CEE0FE91
:10405000A3E0FF9002C7E0FBA3E0FAA3E0F9900021
:0940600002EE8FF012029E7F01B6
:014069002234
:0838AF00E0FBA3E0FAA3E0F93D
:0B38B70090047CEBF0A3EAF0A3E9F022
:1038C2002409F9E43AFA900483EBF0A3EAF0A3E9BD
:1038D200F090047FE0FBA3E0FAA3E0F990000C1261
:1038E2000112FFE4FE90047FE0FBA3E0FAA3E0F9FB
:1038F2008E82758300120112900482F06420603E71
:10390200900482E0B4050374E5F0EF30E314900410
:1039120082E0FDC39441400AEDD3945A5004E0245E
:1039220020F0900482E0FDA3E0FBA3E475F0011215
:1039320001CEA9F0FAED1201720EEEB408A79004BE
:103942007FE0FBA3E0FAA3E0F99000081201126401
:10395200206066900483E0FBA3E475F0011201CEBF
:10396200A9F0FA742E1201727E0890047FE0FBA384
:10397200E0FAA3E0F98E82758300120112900482AC
:10398200F064206034EF30E414900482E0FDC394CC
:1039920041400AEDD3945A5004E02420F09004826E
:1039A200E0FDA3E0FBA3E475F0011201CEA9F0FA59
:1039B200ED1201720EEEB40BB1900483E0FBA3E0B2
:1039C200FAA3E0F9E412017290047FE0FBA3E0FAAB
:1039D200A3E0F990000B120112FF90047CE0FBA31C
:1039E200E0FAA3E0F9900008EF12018490047FE06E
:1039F200FBA3E0FAA3E0F990001C12044C90047CB3
:103A0200E0FBA3E0FAA3E0F912047C90047FE0FB60
:103A1200A3E0FAA3E0F990001812020FFF90047CD1
:103A2200E0FBA3E0FAA3E0F9900004E5F08FF012C6
:103A3200029E90047FE0FBA3E0FAA3E0F990001657
:103A420012020FFF90047CE0FBA3E0FAA3E0F990DE
:093A52000006E5F08FF002029E6F
:0B3BEF009002C7EBF0A3EAF0A3E9F09E
:103BFA007E007F0B7D20A3E0FBA3E0FAA3E0F9128D
:103C0A0008C6E4FC9002CF7418F0E49002CDF0A349
:103C1A007408F09002C7E0FBA3E0FAA3E0F9E475A8
:103C2A00F0011205F51200F9FE6003B42F24900288
:103C3A00CDE07003023D6C9002CFE05CFF9002CAB7
:103C4A00E0FBA3E0FAA3E0F990000BEF120184AFC6
:103C5A000622EED394205003023D6CEE647F70037B
:103C6A00023D6CEEB42E26EC30E003023D6C90026D
:103C7A00CDE0FDC394015003023D6CEDD39408409E
:103C8A0003023D6C7408F0A3740BF08086EEC394B3
:103C9A00814006EED3949F400CEEC394E04019EEA7
:103CAA00D394FC50139002CDE07006EEB4E5027E88
:103CBA0005EC6401FC023D43EE64227003023D6C94
:103CCA00EED39429406FEED3942C5003023D6CEE50
:103CDA00D394394060EED3943F5003023D6CEC20FC
:103CEA00E053EE647C607BEEC3945B4006EED394B3
:103CFA005D406FEEC39441401BEED3945A50159029
:103D0A0002CEE0B40807A3E054F7F080079002CF90
:103D1A00E054EFF0EEC39461401BEED3947A501551
:103D2A0074E02EFE9002CEE0B40806EC4408FC8053
:103D3A0004EC4410FCEC54FEFC9002CEE0FF90022E
:103D4A00CDE0C39F501C9002CAE0FBA3E0FAA3E0B7
:103D5A00F9A3E0FF04F08F82758300EE120184025A
:043D6A003C1D7F017C
:013D6E002232
:082BD600A3F07B017A037935BD
:0B2BDE009002B0EBF0A3EAF0A3E9F0D6
:102BE9009002C1E4F0A3F0A3F0900498E0F9A3E007
:102BF900FAA3E09002C4C9F0A3EAF0A3E9F09002B5
:102C0900C4E0FBA3E0FAA3E0F9C003C002C001904D
:102C190002B0E0FBA3E0FAA3E0F9900004120696E3
:102C29009002C4E0FBA3E0FAA3E0F990000C1204BF
:102C39004C9002BC12057490002A120112B40310C0
:102C4900124A4E9002B0E0FBA3E0FAA3E0F9802D0E
:102C59009002B0E0FBA3E0FAA3E0F99000071205A7
:102C6900B10000000090000B1205B10000000090B7
:102C790002BCE0FCA3E0FDA3E0FEA3E0FF90000F8F
:102C89001204969002B0E0FBA3E0FAA3E0F99000E9
:102C990002E4F5F012029E9002B6E0FBA3E0FAA36B
:102CA900E0F91200F97005FBFA022DAA9002B3E0CF
:102CB900F9A3E0FAA3E09002CAC9F0A3EAF0A3E9F4
:102CC900F07B017A0279B6123BEF9002C0EFF0BFB8
:102CD90001037F04229002B0E0FBA3E0FAA3E0F92C
:102CE90090000F12044C123538EF70037F082290C0
:102CF90002B0E0FBA3E0FAA3E0F990000212020F90
:102D09007E00540F7805C333CE33CED8F9FF900235
:102D1900C4E0FBA3E0FAA3E0242EF9E43AFAE92F90
:102D2900F9EA3EFA9002C1EBF0A3EAF0A3E9F01246
:102D390000F9FE700C9002C0E070037F02227F034D
:102D490022EE64E560349002C1E0FBA3E0FAA3E05F
:102D5900F990000B12011220E3209002C1A3A3E015
:102D6900F8AC02AD039002B3E0FBA3E0FAA3E0F9EB
:102D79007E007F0B1208A2EF60199002B0123EED9F
:102D8900EF6003022CDE9002C0E070047F02800233
:102D99007F03229002C0E07020A3E0FBA3E0FAA326
:102DA900E0F9C003C002C0019002B9E0FBA3E0FA58
:102DB900A3E0F91206177F00229002C1E0FBA3E00D
:102DC900FAA3E0F990000B12011220E4037F032219
:102DD9009002C1E0FBA3E0FAA3E0F990001412020B
:102DE9000FFFAEF0E4FCFD7810120419C004C00511
:102DF900C006C00790001A12020FFFD003D002D0FC
:102E090001D000EB4FFFEA45F0FEE9FDE8FC900236
:102E1900BC120574124A4E9002B0E0FBA3E0FAA37B
:102E2900E0F990000F120496900002E475F0021286
:052E3900029E022CB511
:0B30A6009002B0EBF0A3EAF0A3E9F009
:1030B1009000041206669002BFEBF0A3EAF0A3E9C8
:1030C100F09002B0E0FBA3E0FAA3E0F99000071250
:1030D100044C9002B6120574E4FFFEFDFC9002B6AA
:1030E100E0F8A3E0F9A3E0FAA3E0FBC31203F56063
:1030F100249002B6E0FCA3E0FDA3E0FEA3E0FF9074
:1031010002B0E0FBA3E0FAA3E0F990000B120496F1
:10311100124A8180119002BFE0FBA3E0FAA3E0F91B
:1031210090000C12044C9002B0E0FBA3E0FAA3E083
:10313100F990000F1204969002B0E0FBA3E0FAA30D
:10314100E0F9900002E4F5F012029E9002B0E0FB7B
:10315100A3E0FAA3E0F990000F12044C123538EF06
:1031610070037F08229002B0E0FBA3E0FAA3E0F92C
:1031710090000212020F7E00540F7805C333CE3344
:10318100CED8F9FF9002BFE0FBA3E0FAA3E0242E22
:10319100F9E43AFAE92FF9EA3EFA1200F9FF60037D
:1031A100B4E5030232D29002B0123EEDEF709CFF03
:1031B100FEFDFC9002B6E0F8A3E0F9A3E0FAA3E07B
:1031C100FBC31203F560209002B0E0FBA3E0FAA379
:1031D100E0F990000B12044C1229279002B6120557
:1031E10074EC4D4E4F70037F0622E47F01FEFDFC1F
:1031F1009002B6E0F8A3E0F9A3E0FAA3E0FBC31262
:1032010003F5600E7F007E007D007C00123538EFF3
:1032110070037F08229002B6124A769002BA120514
:10322100749002BFE0FBA3E0FAA3E0F9900004125E
:1032310004967E027F007D00E9242EF9E43AFA1219
:1032410008C69002BFE0FBA3E0FAA3E0F990002BCF
:103251001201129002BEF09002BEE0605AA3E0FBA0
:10326100A3E0FAA3E0242EF9E43AFA9002BAE0FCD2
:10327100A3E0FDA3E0FEA3E0FF9002FD1205749020
:1032810003017401F0E4FF124FC3EF60037F0822D2
:103291009002BAE0FCA3E0FDA3E0FEA3E02401FF5D
:1032A100E43EFEE43DFDE43CFC9002BA120574905C
:1032B10002BEE014F080A09002BFE0FBA3E0FAA3FD
:1032C100E0F990002D7401120184E9242EF9E43A09
:1032D100FAC003C002C0019002B3E0FBA3E0FAA36D
:0732E100E0F91206177F005F
:0132E80022C3
:064B35009002C912057494
:104B3B00900498E0FBA3E0FAA3E0F99002CDEBF030
:104B4B00A3EAF0A3E9F0242EF9E43AFA9002C9E0C3
:104B5B00FCA3E0FDA3E0FEA3E0FF9002FD120574B1
:104B6B009003017401F0E4FF124F8EEF60037F029C
:104B7B00229002CDE0FBA3E0FAA3E0F990022C1205
:104B8B00020F64557004E5F064AA60037F02229063
:104B9B0002CDE0FBA3E0FAA3E02464F9E43AA80118
:104BAB00FCAD037BFF7A5179437E007F031208A291
:104BBB00EF7002FF229002CDE0FBA3E0FAA3E0240A
:104BCB0080F9E43AA801FCAD037BFF7A5179477E6B
:104BDB00007F051208A2EF70179002CDE0FBA3E057
:104BEB00FAA3E0F990005612011220E7037F00228E
:024BFB007F0138
:014BFD002295
:040FE4007B017D010F
:0E0FE8009002B0EBF0A3EAF0A3E9F0A3EDF065
:100FF6009002B0E0FBA3E0FAA3E0F91205D51200D7
:10100600F9FFB42009740129F9E43AFA80F0EFB443
:101016002F07740129F9E43AFAC003C002C001900F
:1010260002B0E0FBA3E0FAA3E0F9120617900498D9
:10103600E0FBA3E0FAA3E0F99002C6EBF0A3EAF026
:10104600A3E9F0EA494B70037F0A229002C6E0FB4F
:10105600A3E0FAA3E0F990002A1201126020E4FF4F
:1010660012512B9002B5EFF020E0139002B3E0602E
:101076000A9002B5E030E2037F09227F00227E0259
:101086007F2E7D009002C6E0FBA3E0FAA3E0F912F2
:1010960008C6E4FF12504E9002B5EFF030E0037F31
:1010A60001229002B3E0600A9002B5E030E2037FCD
:1010B6000922E4FFFEFDFC9002B6120574124B35C0
:1010C6009002B4EFF0BF01359002C6E0FBA3E0FA50
:1010D600A3E0F99001F012011260229001F41204CB
:1010E6004C9002B61205749002B6E0FCA3E0FDA394
:1010F600E0FEA3E0FF124B359002B4EFF09002B48D
:10110600E070199002C6E0FBA3E0FAA3E0F99000B4
:101116003912020F7004E5F0640260037F0B22901F
:10112600004412020FFFAEF0E4FCFD9002BA120575
:10113600749002BAE0FCA3E0FDA3E0FEA3E0FFEC9E
:101146004D4E4F700C90005212044C9002BA12058C
:10115600749002BAE0FCA3E0FDA3E0FEA3E0FF90DA
:1011660002C6E0FBA3E0FAA3E0F99000141204968D
:1011760090003E12011290002C1201849002BAE0F7
:10118600F8A3E0F9A3E0FAA3E0FBC000C001C002A7
:10119600C0039002C6E0FBA3E0FAA3E0F990002C9E
:1011A600120112FFE4FCFDFED003D002D001D000F4
:1011B6001202CB9002BA1205749002C6E0FBA3E0BD
:1011C600FAA3E0F990003C12020FFFE4FCFD900246
:1011D600B6E0F8A3E0F9A3E0FAA3E02FFFEA35F0C2
:1011E600FEED39FDEC38FC9002C6A3E0FAA3E0F967
:1011F60090000812049690003B12011290002B12E8
:10120600018490003F12020FFF900002E5F08FF07C
:1012160012029E90004112020FFFAEF0E4FCFD9018
:1012260002BE1205749002BEE0FCA3E0FDA3E0FE40
:10123600A3E0FFEC4D4E4F70179002C6E0FBA3E013
:10124600FAA3E0F990004E12044C9002BE12057407
:101256009002C6E0FBA3E0FAA3E0F990003C12027C
:101266000FAEF0FBAA069002BEE0FCA3E0FDA3E0F1
:10127600FEA3E0C39BFFEE9AFEED9400FDEC940006
:10128600FC9002BAE0F8A3E0F9A3E0FAA3E0FBC3FE
:10129600EF9BFFEE9AFEED99FDEC98FCC006C007A9
:1012A6009002C6E0FBA3E0FAA3E0F9900002120266
:1012B6000FFFE5F0C4F854F0C868FEEFC4540F48B9
:1012C600FBAA06D007D006C3EF9BFFEE9AFEED946D
:1012D60000FDEC9400FCC0079002C6E0FBA3E0FA18
:1012E60090002B120112FBE4FAF9F8D0071203560C
:1012F600EF2402FFE43EFEE43DFDE43CFC9002C226
:101306001205749002C6E0FBA3E0FAA3E0F9900090
:10131600181204969002B47401F0E47FF77E0FFD74
:10132600FC9002C2E0F8A3E0F9A3E0FAA3E0FBC355
:101336001203F540069002B47402F0E47FF77EFFD4
:10134600FDFC9002C2E0F8A3E0F9A3E0FAA3E0FBFB
:10135600C31203F540069002B47403F09002B4E0A1
:101366009002C6B40310E0FBA3E0FAA3E0F99000F4
:101376005A12044C802FE0FBA3E0FAA3E0F9900098
:101386000812044C9002BAE0F8A3E0F9A3E0FAA32D
:10139600E02FFFEA3EFEE93DFDE83CFC9002C6A3D5
:1013A600E0FAA3E0F990000C1204969002C6E0FB66
:1013B600A3E0FAA3E0F990000812044C9002BAE008
:1013C600F8A3E0F9A3E0FAA3E02FFFEA3EFEE93D29
:1013D600FDE83CFCC004C005C006C0079002C6A3D9
:1013E600E0FAA3E0F990000212020FFFE5F0C4F85C
:1013F60054F0C868FEEFC4540F48FFE4FCFDD00368
:10140600D002D001D000EB2FFFEA3EFEED39FDEC15
:1014160038FC9002C6E0FBA3E0FAA3E0F9900010C6
:101426001204969000201205B1FFFFFFFF9002B450
:10143600E0640360030215249002C6E0FBA3E0FA11
:10144600A3E0F990005E12020FFFE4FCFD9002B6E5
:10145600E0F8A3E0F9A3E0FAA3E02FFFEA35F0FEF7
:10146600ED39FDEC38FC9002C6A3E0FAA3E0F99052
:101476000024120496E9242EF9E43AFAC003C002C5
:10148600C0019002C6E0FBA3E0FAA3E0F9900024B5
:1014960012044C9002FD1205749003017401F0D001
:1014A60001D002D003E4FF124F8EEF70719002C696
:1014B600E0FBA3E0FAA3E0F990022C12020F6455B8
:1014C6007004E5F064AA705690002E12044C7B520C
:1014D6007A5279617841C31203F570429002C6E0F0
:1014E600FBA3E0FAA3E0F990021212044C7B727A95
:1014F6007279417861C31203F570239002C6E0FB4E
:10150600A3E0FAA3E0F990021A12044C90001C1210
:10151600049690021612044C900020120496900233
:10152600B4E0FF9002C6E0FBA3E0FAA3E0F9900066
:101536002AEF120184900496E475F0011201B812A4
:04154600027F7F00A1
:01154A00227E
:10502400EA494B601390002A120112600B1201E44A
:105034006D7003E5F06C60037F0C22E4FF12512BCA
:0A504400EF30E0037F01227F00221D
:104E6B0090027EEBF0A3EAF0A3E9F0EF60037F057D
:104E7B0022900498E0FBA3E0FAA3E0F9EA494B6027
:104E8B000790002AE412018490027EE0F9A3E0FA75
:104E9B00A3E0900498C9F0A3EAF0A3E9F090027E96
:104EAB00E0FBA3A3E0F9EA494B600790002AE41268
:054EBB0001847F0022CC
:0B1F3A0090027EEBF0A3EAF0A3E9F0B8
:101F45007B007A007900C003C002C00190027EE0E8
:101F5500FBA3E0FAA3E0F990000412069690028430
:101F6500E0541FF07B017A027981541EFD120FE8BF
:101F7500900285EFF06003E0FF229002B37401F058
:101F8500A37402F0A3749CF0900281E0F9A3E0FA37
:101F9500A3E09002B6C9F0A3EAF0A3E9F0A37401A7
:101FA500F0A37402F0A37499F07B017A027986128A
:101FB5002BDE900285EFF0900284E0541C70030242
:021FC50021A950
:101FC700A3E0FF607764026001229002B37401F01E
:101FD700A37402F0A37499F07B017A027986123018
:101FE700A6900285EFF06003E0FF227E007F207D50
:101FF70000900299E0FBA3E0FAA3E0F91208C6906B
:102007000299E0FBA3E0FAA3E0F8AC02AD037B0181
:102017007A02799C7E007F0B1200D39002A7E0FF23
:10202700900299E0FBA3E0FAA3E0F990000CEF120D
:102037000184900284E04408F0022149900284E080
:10204700FE30E2037F0722900299E0FBA3E0FAA3A8
:10205700E0F9EA494B600A90000B12011254116033
:10206700037F0622EE20E303022149900299E0FB59
:10207700A3E0FAA3E0F990001412020FFFAEF0E418
:10208700FCFD7810120419C004C005C006C00790F3
:10209700001A12020FFFD003D002D001D000EB4F7D
:1020A700FFEA45F0FEE9FDE8FC9002A812057490EE
:1020B7000299E0FBA3E0FAA3E0F9900014E4F5F03D
:1020C70012029E90001AE4F5F012029E90001C1274
:1020D70005B10000000090028AE0FBA3E0FAA3E04C
:1020E700F990002D740112018490000412044C90A1
:1020F70002AC1205749002A812466AEF60149002AF
:10210700ACE0FCA3E0FDA3E0FEA3E0FF123538EF4F
:1021170070037F08229002A8E0FCA3E0FDA3E0FE85
:10212700A3E024FFFFEE34FFFEED34FFFDEC34FFA8
:10213700FC90028AE0FBA3E0FAA3E0F990001C12EE
:102147000496900284E020E3030221DC900299E0E8
:10215700FBA3E0FAA3E0F990000BE412018412005C
:10216700009002AC1205749002ACE0FCA3E0FDA362
:10217700E0FEA3E0FF900299E0FBA3E0FAA3E0F9F9
:1021870090000E12049690028AE0FBA3E0FAA3E007
:10219700F990002D7401120184900284E04420F02C
:1021A7008033900285E0FF600122900299E0FBA353
:1021B700E0FAA3E0F9EA494B600A90000B1201121A
:1021C700FE30E4037F0222900284E030E107EE3024
:1021D700E0037F062290028AE0FBA3E0FAA3E0F97E
:1021E70090000412044C90027EE0FBA3E0FAA3E007
:1021F700F990001B120496900299E0FBA3E0FAA362
:10220700E0F9C003C002C00190027EE0FBA3E0FA40
:10221700A3E0F990001F120696900284E0FF900257
:102227007EE0FBA3E0FAA3E0F9900002EF1201843D
:10223700900299E0FBA3E0FAA3E0F99000141202E0
:102247000FFFAEF0E4FCFD7810120419C004C005BE
:10225700C006C00790001A12020FFFD003D002D0A9
:1022670001D000EB4FFFEA45F0FEE9FDE8FC9002E4
:102277007EE0FBA3E0FAA3E0F990000F120496902A
:102287000299E0FBA3E0FAA3E0F990001C12044CCA
:1022970090027EE0FBA3E0FAA3E0F990000B1204A2
:1022A700969000071205B10000000090000374FF2C
:1022B70012018490028AE0FBA3E0FAA3E0F9C003CD
:1022C700C002C00190027EE0FBA3E0FAA3E0F99010
:1022D700000412069690028AE0FBA3E0FAA3E0F955
:1022E7001201E4FF90027EE0FBA3E0FAA3E0F9E528
:0822F700F08FF012027F7F005E
:0122FF0022BC
:0B1A5F0090027EEBF0A3EAF0A3E9F098
:101A6A00A3E0F9A3E0FAA3E0900299C9F0A3EAF08F
:101A7A00A3E9F0900286E0FBA3E0FAA3E0F9E4F51B
:101A8A00F012027F90027EE0FBA3E0FAA3E0F99055
:101A9A000004120666C003C002C00190027EE0FB89
:101AAA00A3E0FAA3E0F91201E4FDACF0D001D00200
:101ABA00D003125024EF60012290027EE0FBA3E0E3
:101ACA00FAA3E0F9900002120112FE30E7037F0840
:101ADA0022EE20E0037F06229000071204DAC000FB
:101AEA00C001C002C00390027EE0FBA3E0FAA3E0BB
:101AFA00F990000B12044CD003D002D001D000C3DD
:101B0A00EF9BFFEE9AFEED99FDEC98FC90028D1288
:101B1A000574900284E0FEA3E0FFE4FCFD90028DD0
:101B2A00E0F8A3E0F9A3E0FAA3E0FBC31203F5503F
:101B3A001190028DA3A3E0FFA3E0900284CFF0A34B
:101B4A00EFF0900284E07002A3E07003021F1C9081
:101B5A00027EE0FBA3E0FAA3E0F990000712044C2E
:101B6A00EE5401FEE4FDFCFBFAF9F8C31203F5603A
:101B7A0003021D9990027EE0FBA3E0FAA3E0F9902C
:101B8A00000412066690002B120112FF90027EE0FA
:101B9A00FBA3E0FAA3E0F9900003120112C39F50DD
:101BAA0003021C5A90000712044CE4FBFAF9F8C32A
:101BBA001203F590027E7010E0FBA3E0FAA3E0F9AD
:101BCA0090000F12044C8011E0FBA3E0FAA3E0F9A5
:101BDA0090001312044C1232F4900295120574E428
:101BEA007F02FEFDFC900295E0F8A3E0F9A3E0FA7B
:101BFA00A3E0FBC31203F55003021F1F90027EE00D
:101C0A00FBA3E0FAA3E0F99000041206669000181C
:101C1A0012044C900295E0F8A3E0F9A3E0FAA3E0DD
:101C2A00FBC31203F54003021F1F900295E0FCA3B9
:101C3A00E0FDA3E0FEA3E0FF90027EE0FBA3E0FA52
:101C4A00A3E0F9900013120496900003E4120184B1
:101C5A0090027EE0FBA3E0FAA3E0F99000131204DD
:101C6A004C124A81C004C005C006C00790027EE03B
:101C7A00FBA3E0FAA3E0F9900003120112FFE4FCCF
:101C8A00FDFED003D002D001D000EB2FFFEE3AFECA
:101C9A00ED39FDEC38FC900289120574900284E05B
:101CAA00C313FF7E00900293EEF0A3EFF0700302DD
:101CBA001D8690027EE0FBA3E0FAA3E0F9900004FF
:101CCA0012066690002B120112FF90027EE0FBA31F
:101CDA00E0FAA3E0F9900003120112FD900294E0E9
:101CEA002DFD900293E03400FCD3ED9FEC9E40332F
:101CFA0090027EA3A3E090000412066690002B12C5
:101D0A000112FF90027EE0FBA3E0FAA3E0F9900043
:101D1A0003120112FDC3EF9DFFEE9400900293F0AF
:101D2A00A3EFF0900299E0FBA3E0FAA3E0F9900296
:101D3A0089E0FCA3E0FDA3E0FEA3E0FF9002FD1210
:101D4A000574900293A3E0900301F0E4FF124F8E12
:101D5A00EF6003021F1F900293A3E0FFFD90027E33
:101D6A00E0FBA3E0FAA3E0F9900003ED12013FEFD4
:101D7A0025E0900291F0A3E4F0021EA990027EE011
:101D8A00FBA3E0FAA3E0F9900003740112013F906B
:101D9A00027EE0FBA3E0FAA3E0F990001312044CE0
:101DAA00124A81C004C005C006C00790027EE0FB4B
:101DBA00A3E0FAA3E0F9900003120112FFE4FCFD8C
:101DCA00FED003D002D001D000EB2FFFEE3AFEED99
:101DDA0039FDEC38FCEF24FFFFEE34FFFEED34FF53
:101DEA00FDEC34FFFC900289120574900289E0FC34
:101DFA00A3E0FDA3E0FEA3E0FF123538EF70030273
:101E0A001F1F90027EE0FBA3E0FAA3E0F99000070F
:101E1A0012044CEE5401FEE4C39FFF74029EFE902E
:101E2A000291F0A3EFF0900284E0FCA3E0FDC39FCF
:101E3A00EC9E5008900291ECF0A3EDF0900291E034
:101E4A00FEA3E0FFC006C007900004120666E9245C
:101E5A002EF9E43AFAC003C002C00190027EE0FB08
:101E6A00A3E0FAA3E0F990000712044CEE5401FE35
:101E7A00E4FDD001D002D003E92FF9EA3EFAED3BA6
:101E8A00FBC003C002900299E0FBA3E0FAA3E0F8CA
:101E9A00AC02AD03D002D003D007D0061200D39013
:101EAA000291E0FEA3E0FF90029AEE8FF01201B8D1
:101EBA0090027EE0FBA3E0FAA3E02407F9E43AFAF1
:101ECA00C003C002C0011204BAE4FCFDEB2FFFEA12
:101EDA003EFEED39FDEC38FCD001D002D0031204ED
:101EEA007C900291E0FEA3E0FF900286E0FBA3E073
:101EFA00FAA3E0F9EE8FF0120247900291E0FEA3F6
:101F0A00E0FFC3900285E09FF0900284E09EF00219
:101F1A001B4C7F002290027EE0FBA3E0FAA3E024A0
:0F1F2A0002F9E43AFA1200F944801201727F08BA
:011F39002285
:0B0A1F0090027EEBF0A3EAF0A3E9F0E8
:100A2A00A3E0F9A3E0FAA3E0900296C9F0A3EAF0E2
:100A3A00A3E9F0900286E0FBA3E0FAA3E0F9E4F56B
:100A4A00F012027F90027EE0FBA3E0FAA3E0F990A5
:100A5A000004120666C003C002C00190027EE0FBD9
:100A6A00A3E0FAA3E0F91201E4FDACF0D001D00250
:100A7A00D003125024900289EFF06003E0FF229025
:100A8A00027EE0FBA3E0FAA3E0F990000212011251
:100A9A00FE30E7037F0822EE20E1037F0622900062
:100AAA000B1204DA900284E0FEA3E0FFEF2BFFEEC4
:100ABA003AFEE439FDE438FC90027EE0FBA3E0FA5A
:100ACA00A3E0F990000B1204DAD31203F540037F76
:100ADA000022900284E07002A3E07003020F779074
:100AEA00027EE0FBA3E0FAA3E0F990000712044CAF
:100AFA00EE5401FEE4FDFCFBFAF9F8C31203F560BB
:100B0A0003020DD890027EE0FBA3E0FAA3E0F9907D
:100B1A00000412066690002B120112FF90027EE07A
:100B2A00FBA3E0FAA3E0F9900003120112C39F505D
:100B3A0003020C4690000712044CE4FBFAF9F8C3CE
:100B4A001203F5705090027EE0FBA3E0FAA3E0F9ED
:100B5A0090000F12044C900292120574E4FFFEFDFD
:100B6A00FC900292E0F8A3E0F9A3E0FAA3E0FBC349
:100B7A001203F5703AFFFEFDFC1229279002921229
:100B8A00057490027EE0FBA3E0FAA3E0F990000F5F
:100B9A00120496801A90027EE0FBA3E0FAA3E0F921
:100BAA0090001312044C122927900292120574E441
:100BBA00FFFEFDFC900292E0F8A3E0F9A3E0FAA39D
:100BCA00E0FBC31203F57003020F77E47F01FEFD19
:100BDA00FC900292E0F8A3E0F9A3E0FAA3E0FBC3D9
:100BEA001203F57003020FC990027EE0FBA3E0FA3C
:100BFA00A3E0F990000412066690001812044C90C3
:100C0A000292E0F8A3E0F9A3E0FAA3E0FBC312031F
:100C1A00F54003020FC9900292E0FCA3E0FDA3E0B5
:100C2A00FEA3E0FF90027EE0FBA3E0FAA3E0F990C6
:100C3A000013120496900003E412018490027EE0ED
:100C4A00FBA3E0FAA3E0F990001312044C124A81C4
:100C5A00C004C005C006C00790027EE0FBA3E0FA0C
:100C6A00A3E0F9900003120112FFE4FCFDFED00399
:100C7A00D002D001D000EB2FFFEE3AFEED39FDECA9
:100C8A0038FC90028A120574900284E0C313FF7E36
:100C9A0000900290EEF0A3EFF07003020D72900242
:100CAA007EE0FBA3E0FAA3E0F99000041206669046
:100CBA00002B120112FF90027EE0FBA3E0FAA3E0F0
:100CCA00F9900003120112FD900291E02DFD9002AD
:100CDA0090E03400FCD3ED9FEC9E403390027EA35B
:100CEA00A3E090000412066690002B120112FF90F6
:100CFA00027EE0FBA3E0FAA3E0F9900003120112DE
:100D0A00FDC3EF9DFFEE9400900290F0A3EFF090E8
:100D1A000296E0FBA3E0FAA3E0F990028AE0FCA3C2
:100D2A00E0FDA3E0FEA3E0FF9002FD12057490022D
:100D3A0090A3E0900301F0E4FF124FC3EF600302B7
:100D4A000FC9900290A3E0FFFD90027EE0FBA3E0B2
:100D5A00FAA3E0F9900003ED12013FEF25E09002BB
:100D6A008EF0A3E4F0020F0490027EE0FBA3E0FA07
:100D7A00A3E0F990000B12044C9000071204DAC3A6
:100D8A001203F540367F007E007D007C0012353864
:100D9A00EF7003020FC990028AE0FCA3E0FDA3E012
:100DAA00FEA3E0FF90027EE0FBA3E0FAA3E0F99045
:100DBA00000412066690000412049690027EE0FB7C
:100DCA00A3E0FAA3E0F9900003740112013F900234
:100DDA007EE0FBA3E0FAA3E0F990001312044C12A0
:100DEA004A81C004C005C006C00790027EE0FBA38A
:100DFA00E0FAA3E0F9900003120112FFE4FCFDFE01
:100E0A00D003D002D001D000EB2FFFEE3AFEED392D
:100E1A00FDEC38FCEF24FFFFEE34FFFEED34FFFD5E
:100E2A00EC34FFFC90028A12057490028AE0FCA35B
:100E3A00E0FDA3E0FEA3E0FF123538EF7003020FD6
:100E4A00C990027EE0FBA3E0FAA3E0F99000071242
:100E5A00044CEE5401FEE4C39FFF74029EFE90020E
:100E6A008EF0A3EFF0900284E0FCA3E0FDC39FECB8
:100E7A009E500890028EECF0A3EDF090028EE0FEF8
:100E8A00A3E0FFC006C00790027EE0FBA3E0FAA33E
:100E9A00E0F9900004120666E9242EF9E43AFAC051
:100EAA0003C002C00190027EE0FBA3E0FAA3E0F9CE
:100EBA0090000712044CEE5401FEE4FDD001D0026A
:100ECA00D003E92FF9EA3EFAED3BA801AC02FD9006
:100EDA000296E0FBA3E0FAA3E0F9D007D0061200DD
:100EEA00D390027EE0FBA3E0FAA3E0F9900004129B
:100EFA00066690002D740112018490028EE0FEA312
:100F0A00E0FF900297EE8FF01201B890027EE0FBAC
:100F1A00A3E0FAA3E02407F9E43AFAC003C002C046
:100F2A00011204BAE4FCFDEB2FFFEA3EFEED39FDA7
:100F3A00EC38FCD001D002D00312047C90028EE07F
:100F4A00FEA3E0FF900286E0FBA3E0FAA3E0F9EE3D
:100F5A008FF012024790028EE0FEA3E0FFC39002D8
:100F6A0085E09FF0900284E09EF0020ADC90027E07
:100F7A00E0FBA3E0FAA3E0F990000B12044C900006
:100F8A00071204DAD31203F5401790027EE0FBA39E
:100F9A00E0FAA3E0F990000712044C90000B120447
:100FAA009690027EE0FBA3E0FAA3E02402F9E43A79
:100FBA00FA1200F94420120172900289E0FF22908D
:100FCA00027EE0FBA3E0FAA3E02402F9E43AFA1273
:090FDA0000F944801201727F0845
:010FE30022EB
:0B41E000900281EBF0A3EAF0A3E9F0ED
:1041EB00900004120666C003C002C001900281E079
:1041FB00FBA3E0FAA3E0F91201E4FDACF0D001D08F
:10420B0002D003125024900284EFF060030243109B
:10421B00900281E0FBA3E0FAA3E0F9900002120107
:10422B001220E50302431090001B12044C12353888
:10423B00EF70037F0822900281E0FBA3E0FAA3E07A
:10424B00F990001F120666900285EBF0A3EAF0A32B
:10425B00E9F0240BF9E43AFA1200F9442012017246
:10426B00900281E0FBA3E0FAA3E0F990000B1204AB
:10427B004C900285E0FBA3E0FAA3E0F990001C123E
:10428B000496900281E0FBA3E0FAA3E0F990000F03
:10429B0012044C900285E0FBA3E0FAA3E0F9900036
:1042AB001AEE8FF012029E900281E0FBA3E0FAA3BC
:1042BB00E0F990000F12044C78101204069002855E
:1042CB00E0FBA3E0FAA3E0F9900014EE8FF01202EA
:1042DB009E120000900285E0FBA3E0FAA3E0F990A8
:1042EB000016120496900281E0FBA3E0FAA3E024EF
:1042FB0002F9E43AFA1200F954DF12017212455A2C
:0A430B00900284EFF0900284E0FFBE
:014315002285
:0B4FF80090027EEBF0A3EAF0A3E9F0CA
:105003001241E0EF701AFBFAF9C003C002C001902D
:10501300027EE0FBA3E0FAA3E0F9900004120696F7
:01502300226A
:10154B0090046C120574900469EBF0A3EAF0A3E924
:01155B00F09F
:10155C00900004120666C003C002C001900469E04A
:10156C00FBA3E0FAA3E0F91201E4FDACF0D001D04A
:10157C0002D003125024EF600122900469E0FBA317
:10158C00E0FAA3E0F990000212011230E7037F08A1
:10159C002290000B12044C90046CE0F8A3E0F9A329
:1015AC00E0FAA3E0FBD31203F54020900469E0FBC2
:1015BC00A3E0FAA3E0F990000212011220E10C90D2
:1015CC00000B12044C90046C120574900469E0FB3F
:1015DC00A3E0FAA3E0F990000712044C90047812EF
:1015EC0005749000071205B1000000009000037410
:1015FC00FF120184E4FFFEFDFC90046CE0F8A3E014
:10160C00F9A3E0FAA3E0FBD31203F550030219FE91
:10161C00900469E0FBA3E0FAA3E0F9900004120641
:10162C006690002B120112FF7E007C027D001206D8
:10163C00EF900474120574E4FFFEFDFC900478E056
:10164C00F8A3E0F9A3E0FAA3E0FBD31203F55003EF
:10165C00021779900478E0FCA3E0FDA3E0FEA3E080
:10166C0024FFFFEE34FFFEED34FFFDEC34FFFC9065
:10167C000474E0F8A3E0F9A3E0FAA3E0FB1203562C
:10168C00C004C005C006C00790046CE0FCA3E0FDDC
:10169C00A3E0FEA3E024FFFFEE34FFFEED34FFFDDC
:1016AC00EC34FFFC900474E0F8A3E0F9A3E0FAA397
:1016BC00E0FB120356A804A905AA06AB07D007D075
:1016CC0006D005D004C31203F55003021779900419
:1016DC0074E0FCA3E0FDA3E0FEA3E024FFFFEE34E6
:1016EC00FFFEED34FFFDEC34FFFC1203E8A804A967
:1016FC0005AA06AB07A3E0FCA3E0FDA3E0FEA3E074
:10170C0024FFFFEE34FFFEED34FFFDEC34FFFCEF65
:10171C005BFFEE5AFEED59FDEC58FC900469E0FBC2
:10172C00A3E0FAA3E0F990000712049690046CE091
:10173C00FCA3E0FDA3E0FEA3E0FF9000071204DA97
:10174C00C3EF9BFFEE9AFEED99FDEC98FC90046CB8
:10175C00120574900469E0FBA3E0FAA3E0F9900091
:10176C001312044C90047012057402181190046941
:10177C00E0FBA3E0FAA3E0F990000F12044C9004F4
:10178C0070120574E4FFFEFDFC900470E0F8A3E019
:10179C00F9A3E0FAA3E0FBC31203F57049FFFEFDC9
:1017AC00FC122927900470120574E47F01FEFDFCE5
:1017BC00900470E0F8A3E0F9A3E0FAA3E0FBC312F5
:1017CC0003F57003021A44900470E0FCA3E0FDA33F
:1017DC00E0FEA3E0FF900469E0FBA3E0FAA3E0F9CC
:1017EC0090000F120496900470E0FCA3E0FDA3E0BF
:1017FC00FEA3E0FF900469E0FBA3E0FAA3E0F990FC
:10180C000013120496E4FFFEFDFC900470E0F8A3B4
:10181C00E0F9A3E0FAA3E0FBC31203F5700302198D
:10182C00FE900474E0FCA3E0FDA3E0FEA3E0FF90B7
:10183C00046CE0F8A3E0F9A3E0FAA3E0FBD31203F5
:10184C00F55003021982900469E0FBA3E0FAA3E0CF
:10185C00F990000212011230E147900470E0FCA3F1
:10186C00E0FDA3E0FEA3E0FF12292790047012050F
:10187C0074E4FFFEFDFC900470E0F8A3E0F9A3E033
:10188C00FAA3E0FBC31203F57023900474E0FCA3ED
:10189C00E0FDA3E0FEA3E0FF90046C1205740219B6
:1018AC00829004701232E9900470120574E47F0285
:1018BC00FEFDFC900470E0F8A3E0F9A3E0FAA3E0CD
:1018CC00FBC31203F55003021A44900469E0FBA316
:1018DC00E0FAA3E0F99000041206669000181204D6
:1018EC004C900470E0F8A3E0F9A3E0FAA3E0FBC38A
:1018FC001203F54003021A44900470E0FCA3E0FDCF
:10190C00A3E0FEA3E0FF900469E0FBA3E0FAA3E0F0
:10191C00F9900013120496E92407F9E43AFAC0028C
:10192C00C00112042C900474E0F8A3E0F9A3E0FACF
:10193C00A3E02FFFEA3EFEE93DFDE83CFCD001D0E0
:10194C000212047C90046CE0FCA3E0FDA3E0FEA377
:10195C00E0FF900474E0F8A3E0F9A3E0FAA3E0FB45
:10196C00C3EF9BFFEE9AFEED99FDEC98FC90046C96
:10197C0012057402182D900469E0FBA3E0FAA3E0B1
:10198C002407F9E43AFAC002C00112042C90046C4A
:10199C00E0F8A3E0F9A3E0FAA3E02FFFEA3EFEE9AA
:1019AC003DFDE83CFCD001D00212047CE4FB7A0241
:1019BC00F9F890046CE0FCA3E0FDA3E0FEA3E0FFCB
:1019CC00120356900469E0FBA3E0FAA3E0F990003F
:1019DC0003EF12018490046CA3A3E0FEA3E0FFEEDE
:1019EC005401FEE4FDFCEE4F6008900003740112FC
:1019FC00013F900469E0FBA3E0FAA3E0F990000B2F
:101A0C0012044C9000071204DAD31203F54026900E
:101A1C000469E0FBA3E0FAA3E0F990000712044C80
:101A2C0090000B120496E92402F9E43AFA1200F938
:101A3C0044201201727F0022900469E0FBA3E0FABB
:101A4C00A3E02402F9E43AFA1200F944801201727C
:021A5C007F0801
:011A5E002265
:0B443F00900453EBF0A3EAF0A3E9F0B7
:10444A007B017A047956E4FD120FE8900459EFF0E3
:10445A0060030245547B019002B304F0A37404F094
:10446A00A3745DF0900456E0F9A3E0FAA3E0900289
:10447A00B6C9F0A3EAF0A3E9F0A3EBF0A37404F041
:10448A00A3745AF0900453E0FBA3E0FAA3E0F912F4
:10449A002BDE900459EFF06003024554A3E0FBA31E
:1044AA00E0FAA3E0F9EA494B607990000B12011295
:1044BA0030E46A90001412020FFFAEF0E4FCFD78BB
:1044CA0010120419C004C005C006C00790001A12D1
:1044DA00020FFFD003D002D001D000EB4FFFEA4514
:1044EA00F0FEE9FDE8FC900453E0FBA3E0FAA3E048
:1044FA00F990000B12049690000B12044C124A8198
:10450A00900453E0FBA3E0FAA3E0F990000F120431
:10451A0096900002E475F00212029E8006900459F9
:10452A007402F0900453E0FBA3E0FAA3E0F99000D0
:10453A00041206661201E4FF900453E0FBA3E0FABA
:0F454A00A3E0F9E5F08FF012027F900459E0FF33
:01455900223F
:0B431600900486EBF0A3EAF0A3E9F0AE
:10432100900004120666C003C002C001900486E03A
:10433100FBA3E0FAA3E0F91201E4FDACF0D001D057
:1043410002D003125024EF600122900489E0FBA304
:10435100E0FAA3E0F9900009E4120184900486E0F8
:10436100FBA3E0FAA3E0F990000F12044CEC4D4ED0
:104371004F700302443C90000F12044C123538EF89
:1043810070037F0822900486E0FBA3E0FAA3E0F922
:10439100900004120666E9242EF9E43AFAC003C03B
:1043A10002C001900486E0FBA3E0FAA3E0F99000CB
:1043B1000212020F7E00540F7805C333CE33CED8DC
:1043C100F9D001D002D00329F9EA3EFA90048CEB2E
:1043D100F0A3EAF0A3E9F01200F9FF605EEF64E5F3
:1043E100602590048CE0FBA3E0FAA3E0F990000BB8
:1043F10012011220E31190047FEBF0A3EAF0A3E98C
:10440100F09004891238AF900486123EEDEF7015DA
:10441100900486E0FBA3E0FAA3E0F990000F1205F7
:10442100B100000000900489E0FBA3E0FAA3E0F9E9
:0D443100900009120112700302435D7F002C
:01443E00225B
:0B4DE2009003BEEBF0A3EAF0A3E9F0A1
:104DED007B017A0379BEE4FD120FE89003C4EFF066
:104DFD0070667B019002B304F0A37403F0A374DB1F
:104E0D00F09003BEE0F9A3E0FAA3E09002B6C9F07A
:104E1D00A3EAF0A3E9F0A3EBF0A37403F0A374D815
:104E2D00F07A0379C5122BDE9003C4EFF070299050
:104E3D0003D8E0FBA3E0FAA3E0F9EA494B60139035
:104E4D00047FEBF0A3EAF0A3E9F09003C11238AFB1
:0D4E5D0080069003C47404F09003C4E0FFCD
:014E6A002225
:0B3A5B0090048FEBF0A3EAF0A3E9F069
:103A6600900004120666C003C002C00190048FE0F5
:103A7600FBA3E0FAA3E0F91201E4FDACF0D001D01B
:103A860002D003125024EF60012290048FE0FBA3C2
:103A9600E0FAA3E0F9900002120112FE30E7037F7C
:103AA6000822EE20E1037F062290000712044C90C4
:103AB600000B1204DAD31203F55003023BD1900433
:103AC6008FE0FBA3E0FAA3E0F990000712044C9004
:103AD600000B120496E92402F9E43AFA1200F944BA
:103AE6002012017290048FE0FBA3E0FAA3E0F990A4
:103AF600000712044CE4FBFAF9F8C31203F570321E
:103B060090048FE0FBA3E0FAA3E0F990000F120403
:103B16004C124675EF7003023BD490048FE0FBA372
:103B2600E0FAA3E0F990000F1205B10000000002D0
:103B36003BD190048FE0FBA3E0FAA3E0F9900013D9
:103B460012044C1232F4900492120574E47F02FEC1
:103B5600FDFC900492E0F8A3E0F9A3E0FAA3E0FBF1
:103B6600C31203F5406890048FE0FBA3E0FAA3E0DC
:103B7600F990000412066690001812044C90049204
:103B8600E0F8A3E0F9A3E0FAA3E0FBC31203F550C3
:103B96003A90048FE0FBA3E0FAA3E0F99000131239
:103BA600044CC004C005C006C0079002DD120580A3
:103BB6000FFFFFFFD007D006D005D004122679EFFD
:103BC600600C90049212466AEF60037F0022900414
:103BD6008FE0FBA3E0FAA3E02402F9E43AFA12002C
:083BE600F944801201727F080E
:013BEE0022B4
:0B2E3E00900436EBF0A3EAF0A3E9F0EB
:102E49007B017A047936E4FD120FE8EF60012290E4
:102E59000498E0FBA3E0FAA3E0F990043FEBF0A3A8
:102E6900EAF0A3E9F0C003C002C00190043CE0FB12
:102E7900A3E0FAA3E0F912061790043FE0FBA3E0F0
:102E8900FAA3E0F990001812044CEF24FEFFEE3487
:102E9900FFFEED34FFFDEC34FFFC9000201204DA54
:102EA900D31203F5501490043FE0FBA3E0FAA3E02A
:102EB900F990002012044C02309590043FE0FBA3E6
:102EC900E0FAA3E0F990002A120112FF90044EF0F3
:102ED900FB90044212058000000000EB6401706B56
:102EE90090044A1205800000000290044A1232E957
:102EF900EF4E701F900442E0FCA3E0FDA3E0FEA3A7
:102F0900E02401FFE43EFEE43DFDE43CFC90044284
:102F190012057490043FE0FBA3E0FAA3E0F99000E6
:102F29001812044CC004C005C006C00790044A1218
:102F3900053FA804A905AA06AB07D007D006D00506
:102F4900D004C31203F540A202305990043FE0FBBC
:102F5900A3E0FAA3E0F990001812044C90044A1275
:102F6900057490000812044C900446120574E4900C
:102F7900044FF0F9A3C9F0A3F0A3E9F090044FE0DE
:102F8900702A90044612050A123538EF70037F083B
:102F99002290043FE0FBA3E0FAA3E0242EF9E43AEF
:102FA900FA900450EBF0A3EAF0A3E9F090044EE0A4
:102FB900B40243900450E0FBA3E0FAA3E0F9120144
:102FC900E445F0701F900442E0FCA3E0FDA3E0FE9D
:102FD900A3E02401FFE43EFEE43DFDE43CFC900453
:102FE90042120574900451E475F0021201B890047C
:102FF9004FE004F08049900450E0FBA3E0FAA3E01D
:10300900F912042CE4FBFAF9F8C31203F5701F90C6
:103019000442E0FCA3E0FDA3E0FEA3E02401FFE4F9
:103029003EFEE43DFDE43CFC90044212057490042C
:1030390051E475F0041201B890044FE02402F090B5
:10304900044A74FF120541EC4D4E4F6003022F856F
:10305900900442E0FCA3E0FDA3E0FEA3E0FF90049E
:103069003FE0FBA3E0FAA3E0F99000201204969058
:10307900044EE0B4030890002874011201849004FE
:1030890042E0FCA3E0FDA3E0FEA3E0FF900439E0E9
:0C309900FBA3E0FAA3E0F912047C7F0026
:0130A5002208
:0B36EE00900391EBF0A3EAF0A3E9F0D9
:1036F9007A037991120FE4EF6001229002B3740109
:10370900F0A37403F0A374AEF0900391E0F9A3E081
:10371900FAA3E09002B6C9F0A3EAF0A3E9F0A37412
:1037290001F0A37403F0A374A7F07B017A037994E1
:10373900122BDEEF6001229003A7E0FBA3E0FAA3BE
:10374900E0F9EA494B70037F04229003A7E0FBA349
:10375900E0FAA3E0F990000B12011230E0037F06B2
:1037690022900398E0FBA3E0FAA3E0F99000041289
:10377900044C9003AA1205749003A7E0FBA3E0FA96
:10378900A3E0F990001412020FFFAEF0E4FCFD78FB
:1037990010120419C004C005C006C00790001A120F
:1037A900020FFFD003D002D001D000EB4FFFEA4552
:1037B900F0FEE9FDE8FC9003BA1205749003A7E056
:1037C900FBA3E0FAA3E0F990000B12011220E40335
:1037D9000238659003BAE0FCA3E0FDA3E0FEA3E094
:1037E900FF90039F1205749003BA124A769003A3BF
:1037F900120574900396E4F0A37402F09003A3E019
:10380900FCA3E0FDA3E0FEA3E0FF123538EF70034F
:103819007F0822900398E0FBA3E0FAA3E0242EF9A5
:10382900E43AFA7E00900397E0540F7805C333CE4B
:1038390033CED8F929F9EA3EFA1200F9FF601DEFF3
:1038490064E5600C90000B12011220E3037F06224D
:103859007B017A037994123EF5EF70A09003AAE0F8
:10386900FCA3E0FDA3E0FEA3E0FF123538EF7003EF
:103879007F08229003A7E0FBA3E0FAA3E0F974E52F
:10388900120172900398E0FBA3E0FAA3E0F990001B
:103899002D74011201849003BA12466AEF70037FF6
:0538A900082212455A3F
:0138AE0022F7
:0B230000900354EBF0A3EAF0A3E9F017
:10230B007A037954120FE4EF6001229002B3740147
:10231B00F0A37403F0A37471F0900354E0F9A3E0FD
:10232B00FAA3E09002B6C9F0A3EAF0A3E9F0A37414
:10233B0001F0A37403F0A3746AF07B017A0379575D
:10234B00122BDEEF70037F0722EF640260012290F5
:10235B0002B37401F0A37403F0A3746AF07B017AE7
:10236B000379571230A6EF60012290035BE0FBA3C9
:10237B00E0FAA3E0F990000412044C90037D1205DF
:10238B00747F007E007D007C001229279003891248
:10239B000574E47F01FEFDFC900389E0F8A3E0F9EE
:1023AB00A3E0FAA3E0FBC31203F570037F082290AE
:1023BB000389124A76900381120574900381E0FC25
:1023CB00A3E0FDA3E0FEA3E0FFEC4D4E4F70037FB7
:1023DB000622900381E0FCA3E0FDA3E0FEA3E0FF57
:1023EB00123538EF70037F082290035BE0FBA3E00C
:1023FB00FAA3E0242EF9E43AFA90036DEBF0A3EA8A
:10240B00F0A3E9F07E027F007D001208C6900370F6
:10241B007401F090035BE0FBA3E0FAA3E0F99000FA
:10242B002B120112FF900370E0C39F503090036D8D
:10243B00E0FBA3E0FAA3E0F990038112053F9002C1
:10244B00FD1205749003017401F0E4FF124FC3EF0A
:10245B0060037F0822900370E004F080B67E007F5B
:10246B000B7D2090036DE0FBA3E0FAA3E0F91208CB
:10247B00C690036DE0FBA3E0FAA3E0F9742E120102
:10248B007290036DE0FBA3E0FAA3E0F990000B74EC
:10249B0010120184120000900385120574900385BD
:1024AB00E0FCA3E0FDA3E0FEA3E0FF90036DE0FBE7
:1024BB00A3E0FAA3E0F990001612049690036DE0E6
:1024CB00FBA3E0FAA3E02420F9E43AA801FCAD0356
:1024DB0090036DA3A3E0F97E007F201200D390033D
:1024EB006DE0FBA3E0FAA3E0F9900021742E12013A
:1024FB008490035EE0FCA3E0FDA3E0FEA3E0FF906D
:10250B00038D120574900389E0FCA3E0FDA3E0FEAC
:10251B00A3E0FF7810120406900014EE8FF0120265
:10252B009E90035BE0FBA3E0FAA3E0F990002A1274
:10253B000112B4032490000C12044C90038DE0F8AC
:10254B00A3E0F9A3E0FAA3E0FBC31203F5700A9032
:10255B00038D1205800000000090038DE0FCA3E0CA
:10256B00FDA3E0FEA3E0FF781012040690036DE0DC
:10257B00FBA3E0FAA3E0F9900034EE8FF012029E79
:10258B00900389A3A3E0FFA3E090001ACF8FF01272
:10259B00029E90038DA3A3E0FFA3E090003ACF8FA0
:1025AB00F012029E90035BE0FBA3E0FAA3E0F9902C
:1025BB00002D740112018490037DE0FCA3E0FDA3C8
:1025CB00E0FEA3E0FF123538EF70037F08227E0098
:1025DB007F207D0090036AE0FBA3E0FAA3E0F912F1
:1025EB0008C690036AE0FBA3E0FAA3E0F8AC02ADE7
:1025FB00037B017A0379717E007F0B1200D390036A
:10260B007CE0FF90036AE0FBA3E0FAA3E0F9900003
:10261B000CEF12018490000B74101201849003854F
:10262B00E0FCA3E0FDA3E0FEA3E0FF900016120484
:10263B0096900389A3A3E0FFA3E090001ACF8FF03D
:10264B0012029E900389E0FCA3E0FDA3E0FEA3E051
:10265B00FF7810120406900014EE8FF012029E12F7
:02266B00455ACE
:01266D00224A
:0E4CB90090040FEBF0A3EAF0A3E9F0A3EDF0F6
:104CC7007B017A04790F7D01120FE8EF6003024D33
:104CD700557B019002B304F0A37404F0A3742AF087
:104CE70090040FE0F9A3E0FAA3E09002B6C9F0A39D
:104CF700EAF0A3E9F0A3EBF0A37404F0A37427F0A0
:104D07007A047914122BDEEF7044900427E0FBA39A
:104D1700E0FAA3E0F9EA494B70047F04803090047D
:104D270013E05427F0900427E0FBA3E0FAA3E0F98F
:104D370090000B120112FF900413E0FEF45FFF9046
:0E4D47000412E05E4F90000B12018412455AD8
:014D5500223B
:0B4BFE009003E7EBF0A3EAF0A3E9F05E
:104C09007B017A0379E77D01120FE8EF6003024C1B
:104C1900B87B019002B304F0A37404F0A37403F009
:104C29009003E7E0F9A3E0FAA3E09002B6C9F0A384
:104C3900EAF0A3E9F0A3EBF0A37404F0A37400F085
:104C49007A0379ED122BDEEF7065900400E0FBA387
:104C5900E0FAA3E0F9EA494B70047F04805190031C
:104C6900EAE0FBA3E0FAA3E0F990000612020FFFC5
:104C7900900400E0FBA3E0FAA3E0F9900016E5F048
:104C89008FF012029E9003EAE0FBA3E0FAA3E0F999
:104C990090000412020FFF900400E0FBA3E0FAA3C6
:0F4CA900E0F9900018E5F08FF012029E12455AC4
:014CB80022D9
:0B3D6F00900310EBF0A3EAF0A3E9F0D2
:103D7A007B017A0379107D01120FE8EF600122902E
:103D8A0002B37401F0A37403F0A37448F090031013
:103D9A00E0F9A3E0FAA3E09002B6C9F0A3EAF0A31F
:103DAA00E9F0A37401F0A37403F0741A122BD6EF8E
:103DBA0060012290031AE0FBA3E0FAA3E0F9EA49C2
:103DCA004B70037F0222900339E0FBA3E0FAA3E0E1
:103DDA00F990000412044C90031612057490031A09
:103DEA00E0FBA3E0FAA3E0240BF9E43AFA78207C9A
:103DFA00037D017E007F151200D39002B37401F097
:103E0A00A37403F0A37448F0900313E0F9A3E0FA53
:103E1A00A3E09002B6C9F0A3EAF0A3E9F0A3740103
:103E2A00F0A37403F0741D122BD6EF70037F0722E0
:103E3A00EF64026001229002B37401F0A37403F0EC
:103E4A00A3741DF07B017A0379351230A6EF600165
:103E5A002290031DE0FBA3E0FAA3E0240BF9E43A65
:103E6A00A801FCAD037B017A0379207E007F15123D
:103E7A0000D390031DE0FBA3E0FAA3E0F8AC02AD87
:103E8A00037B017A0379487E007F0B1200D39003EB
:103E9A0053E0FF90031DE0FBA3E0FAA3E0F99000D2
:103EAA000CEF120184900339E0FBA3E0FAA3E0F9D6
:103EBA0090002D7401120184900316E0FCA3E0FD2A
:103ECA00A3E0FEA3E0FF123538EF70037F082290CB
:103EDA00031AE0FBA3E0FAA3E0F974E512017212F7
:023EEA00455A37
:013EEC0022B3
:03000000024D5658
:0C4D5600787FE4F6D8FD758107024D9DC2
:10000300E709F608DFFA8046E709F208DFFA803EDF
:1000130088828C83E709F0A3DFFA8032E309F608CC
:10002300DFFA8078E309F208DFFA807088828C8334
:10003300E309F0A3DFFA806489828A83E0A3F608E8
:10004300DFFA805889828A83E0A3F208DFFA804CC2
:1000530080D280FA80C680D4806980F28033801099
:1000630080A680EA809A80A880DA80E280CA803302
:1000730089828A83ECFAE493A3C8C582C8CCC5837A
:10008300CCF0A3C8C582C8CCC583CCDFE9DEE7804A
:100093000D89828A83E493A3F608DFF9ECFAA9F0C9
:1000A300EDFB2289828A83ECFAE0A3C8C582C8CC1F
:1000B300C583CCF0A3C8C582C8CCC583CCDFEADE38
:1000C300E880DB89828A83E493A3F208DFF980CC9A
:1000D30088F0EF60010E4E60C388F0ED2402B40493
:1000E3000050B9F582EB2402B4040050AF2323453A
:0600F3008223900053730C
:1000F900BB010689828A83E0225002E722BBFE0205
:09010900E32289828A83E4932237
:10011200BB010CE58229F582E5833AF583E02250A2
:1001220006E92582F8E622BBFE06E92582F8E222EC
:0D013200E58229F582E5833AF583E4932206
:10013F00BB010FF8E58229F582E5833AF583E028C4
:10014F00F0225009C58229F8E58226F622BBFE0966
:10015F00C58229F8E22582F222F8EA2583F583E9A0
:03016F00932822B0
:10017200BB010689828A83F0225002F722BBFE016C
:02018200F32266
:10018400F8BB010DE58229F582E5833AF583E8F0B1
:10019400225006E92582C8F622BBFE05E92582C85D
:0201A400F22245
:1001A600EF8DF0A4A8F0CF8CF0A428CE8DF0A42E6D
:0201B600FE2227
:1001B800C5F0F8A3E028F0C5F0F8E58215827002D2
:0601C8001583E038F0226F
:1001CE00A3F8E0C5F025F0F0E582158270021583E4
:0601DE00E0C838F0E82241
:1001E400BB010A89828A83E0F5F0A3E022500687E6
:1001F400F009E71922BBFE07E3F5F009E3192289A8
:0B020400828A83E493F5F074019322DA
:10020F00BB0110E58229F582E5833AF583E0F5F02D
:10021F00A3E0225009E92582F886F008E622BBFE0A
:10022F000AE92582F8E2F5F008E222E5832AF58350
:08023F00E993F5F0A3E9932215
:10024700BB010789828A830201B8500B09C5F027D1
:10025700F7C5F01937F722BBFE0D09F8E325F0F3D0
:10026700C5F019E338F322F889828A83740193254C
:08027700F0C5F0F8E493382211
:10027F00BB010A89828A83F0E5F0A3F0225006F7CA
:0F028F0009A7F01922BBFE06F3E5F009F31922C7
:10029E00F8BB0111E58229F582E5833AF583E8F092
:1002AE00E5F0A3F0225009E92582C8F608A6F0224F
:0D02BE00BBFE09E92582C8F2E5F008F22236
:1002CB00E88FF0A4CC8BF0A42CFCE98EF0A42CFCD2
:1002DB008AF0EDA42CFCEA8EF0A4CDA8F08BF0A450
:1002EB002DCC3825F0FDE98FF0A42CCD35F0FCEBAF
:1002FB008EF0A4FEA9F0EB8FF0A4CFC5F02ECD3974
:0F030B00FEE43CFCEAA42DCE35F0FDE43CFC22E0
:10031A0075F008758200EF2FFFEE33FECD33CDCC9A
:10032A0033CCC58233C5829BED9AEC99E58298401D
:10033A000CF582EE9BFEED9AFDEC99FC0FD5F0D6FA
:10034A00E4CEFBE4CDFAE4CCF9A88222B800C1B924
:10035A000059BA002DEC8BF084CFCECDFCE5F0CB62
:10036A00F97818EF2FFFEE33FEED33FDEC33FCEB9B
:10037A0033FB10D703994004EB99FB0FD8E5E4F956
:10038A00FA227818EF2FFFEE33FEED33FDEC33FC43
:10039A00C933C910D7059BE99A4007EC9BFCE99A37
:1003AA00F90FD8E0E4C9FAE4CCFB2275F010EF2F7C
:1003BA00FFEE33FEED33FDCC33CCC833C810D7077C
:1003CA009BEC9AE899400AED9BFDEC9AFCE899F8B7
:0E03DA000FD5F0DAE4CDFBE4CCFAE4C8F9224A
:104F0700C2D5E830E70FB2D5E4C39BFBE49AFAE4D5
:104F170099F9E498F8EC30E717B2D5124F3D120330
:104F270056E4C39BFBE49AFAE499F9E498F8800302
:104F370012035630D50DE4C39FFFE49EFEE49DFDAA
:044F4700E49CFC22C8
:0D03E800CFF4CFCEF4CECDF4CDCCF4CC22AA
:1003F500EB9FF5F0EA9E42F0E99D42F0E89C45F05E
:0104050022D4
:10040600E8600FECC313FCED13FDEE13FEEF13FFD4
:03041600D8F122F8
:10041900E8600FEFC333FFEE33FEED33FDEC33FC41
:03042900D8F122E5
:10042C00BB010789828A830208FE5005E9F802089D
:10043C00F2BBFE05E9F802090A89828A83020916D1
:10044C00BB010DE58229F582E5833AF5830208FEAE
:10045C005007E92582F80208F2BBFE07E92582F86D
:10046C0002090AE58229F582E5833AF58302091629
:10047C00BB010789828A830205745005E9F80209D9
:0A048C005CBBFE05E9F802096822D6
:10049600BB010DE58229F582E5833AF583020574F1
:1004A6005007E92582F802095CBBFE07E92582F8B8
:0404B60002096822AD
:1004BA00BB010789828A830209335005E9F80209D8
:1004CA0026BBFE05E9F802093F89828A8302094CA4
:1004DA00BB010DE58229F582E5833AF583020933EA
:1004EA005007E92582F8020926BBFE07E92582F8AA
:1004FA0002093FE58229F582E5833AF58302094C30
:10050A007401FF3395E0FEFDFCA3A3A3E0CF2FF017
:10051A00E582158270021583E0CE3EF0E5821582EF
:10052A0070021583E0CD3DF0E582158270021583D5
:05053A00E0CC3CF022C2
:10053F007401FF3395E0FEFDFCA3A3A3E02FFFF0B2
:10054F00E582158270021583E03EFEF0E58215828A
:10055F0070021583E03DFDF0E58215827002158370
:05056F00E03CFCF0225D
:0C057400ECF0A3EDF0A3EEF0A3EFF022FA
:10058000A8828583F0D083D0821205971205971236
:100590000597120597E473E493A3C583C5F0C5835B
:1005A000C8C582C8F0A3C583C5F0C583C8C582C8C5
:0105B0002228
:1005B100BB010DE58229F582E5833AF583020580C9
:1005C1005007E92582F8020974BBFE07E92582F884
:0405D10002098D226C
:1005D500BB010789828A830209C85005E9F8020927
:1005E500A6BBFE05E9F80209F189828A83020A138E
:1005F500BB010789828A830209D15006C9F8C9025D
:1006050009AFBBFE06C9F8C90209FA89828A8302C5
:020615000A13C6
:10061700BB011A89828A83D0F0D0E0F8D0E0F9D004
:10062700E0FAD0E0FBE8C0E0C0F00209E85016E9C4
:10063700F8D083D082D0E0F9D0E0FAD0E0FBC082D6
:10064700C0830209BFBBFE16E9F8D083D082D0E091
:0F065700F9D0E0FAD0E0FBC082C083020A0A2289
:10066600BB010DE58229F582E5833AF5830209C8C7
:100676005007E92582F80209A6BBFE07E92582F89C
:100686000209F1E58229F582E5833AF583020A1328
:10069600BB0120E58229F582E5833AF583D0F0D0C7
:1006A600E0F8D0E0F9D0E0FAD0E0FBE8C0E0C0F036
:1006B6000209E85018E92582F8D083D082D0E0F903
:1006C600D0E0FAD0E0FBC082C0830209BFBBFE18AF
:1006D600E92582F8D083D082D0E0F9D0E0FAD0E0E4
:0906E600FBC082C083020A0A2253
:1006EF00EC8EF0A4CCC5F0CCCDF8EFA4CEC5F02D98
:1006FF00FDE43CFCE8A42EC8C5F03DFDE43CFCEF56
:0D070F00A4FFE5F028FEE43DFDE43CFC22E3
:10071C00E3F5F009E208B5F06BDFF58067E3F5F07F
:10072C0009E608B5F05EDFF5805A87F009E608B5F2
:10073C00F052DFF6804E87F009E208B5F046DFF69E
:10074C00804288828C8387F009E0A3B5F036DFF60F
:10075C00803288828C8387F009E493A3B5F025DF7F
:10076C00F5802188828C83E3F5F009E0A3B5F014C1
:10077C00DFF5801088828C83E3F5F009E493A3B550
:10078C00F002DFF402084B808780E9809080D480EF
:10079C003E8015806E807E809D80B7808D80A3808A
:1007AC00518074803C02085789828A83ECFAE49366
:1007BC00F5F0A3C8C582C8CCC583CCE493A3C8C547
:1007CC0082C8CCC583CCB5F076DFE3DEE1807089DE
:1007DC00828A83E493F5F0A3E208B5F062DFF4803B
:1007EC005E89828A83E0F5F0A3E608B5F051DFF567
:1007FC00804D89828A83E0F5F0A3E208B5F040DFF2
:10080C00F5803C89828A83E493F5F0A3E608B5F081
:10081C002EDFF4802A8002805789828A83ECFAE4E6
:10082C0093F5F0A3C8C582C8CCC583CCE0A3C8C5DA
:10083C0082C8CCC583CCB5F006DFE4DEE280007F55
:10084C00FFB5F0020F2240027F012289828A83ECDD
:10085C00FAE0F5F0A3C8C582C8CCC583CCE0A3C828
:10086C00C582C8CCC583CCB5F0D5DFE5DEE380CF3F
:10087C0089828A83ECFAE0F5F0A3C8C582C8CCC59E
:10088C0083CCE493A3C8C582C8CCC583CCB5F0AFE8
:10089C00DFE4DEE280A988F0EF60010E4E60ABED84
:1008AC002402B404005098F582EB2402B4040050E6
:0A08BC008E232345822390079373D7
:1008C600EF4E6012EF60010EEDBB010B89828A8349
:1008D600F0A3DFFCDEFA2289F05007F709DFFCA956
:0C08E600F022BBFEFCF309DFFCA9F022AD
:104D6200024878E493A3F8E493A34003F68001F2A7
:104D720008DFF48029E493A3F85407240CC8C33352
:104D8200C4540F4420C8834004F456800146F6DF21
:104D9200E4800B0102040810204080905155E47E0B
:104DA200019360BCA3FF543F30E509541FFEE49316
:104DB200A360010ECF54C025E060A840B8E493A3DD
:104DC200FAE493A3F8E493A3C8C582C8CAC583CA08
:104DD200F0A3C8C582C8CAC583CADFE9DEE780BEC0
:015159000055
:0C08F200E6FC08E6FD08E6FE08E6FF2232
:0C08FE00E0FCA3E0FDA3E0FEA3E0FF226D
:0C090A00E2FC08E2FD08E2FE08E2FF2229
:10091600E493FC740193FD740293FE740393FF2227
:0D092600E6FB08E6F908E6FA08E6CBF82241
:0C093300E0F8A3E0F9A3E0FAA3E0FB2247
:0D093F00E2FB08E2F908E2FA08E2CBF82238
:10094C00E493F8740193F9740293FA740393FB2201
:0C095C00ECF608EDF608EEF608EFF622C7
:0C096800ECF208EDF208EEF208EFF222CB
:10097400D083D082E493F608740193F6087402934A
:09098400F608740393F674047381
:10098D00D083D082E493F208740193F20874029339
:09099D00F208740393F274047370
:0909A600E6FB08E6FA08E6F92276
:1009AF00FAE6FB0808E6F925F0F618E6CA3AF62249
:0909BF00EBF608EAF608E9F6225D
:0909C800E0FBA3E0FAA3E0F92230
:1009D100F8E0FBA3A3E0F925F0F0E58215827002AF
:0709E1001583E0FA38F02253
:0909E800EBF0A3EAF0A3E9F02210
:0909F100E2FB08E2FA08E2F92237
:1009FA00FAE2FB0808E2F925F0F218E2CA3AF22212
:090A0A00EBF208EAF208E9F2221D
:0C0A1300E493FB740193FA740293F9223F
:00000001FF
