:0805D4009000D3EEF0A3EFF05C
:1005DC001207E07FA01206AC400280169000D3E018
:1005EC00FF1206AC4002800A9000D4E0FF1206AC69
:1005FC0040061207B97FEE221207E07FA11206AC6B
:10060C0040061207B97F00221206E29000D5EFF0E7
:08061C001207B99000D5E0FFC0
:0106240022B3
:100669009000C7EEF0A3EFF0A3EDF01207E07FA032
:100679001206AC400280229000C7E0FF1206AC408F
:100689000280169000C8E0FF1206AC4002800A9072
:1006990000C9E0FF1206AC40051207B9C3221207D0
:0306A900B9D322A0
:1004FB009000CCEEF0A3EFF0A3EBF0A3EAF0A3E9AE
:01050B00F0FF
:10050C00A3E0FFD394405003EF7002C3221207E024
:10051C007FA01206AC400280169000CCE0FF1206C1
:10052C00AC4002800A9000CDE0FF1206AC400512F0
:10053C0007B9C322E49000D2F09000D1E0FFA3E011
:10054C00FEC39F501F9000CEE0FBA3E0FAA3E0F99E
:10055C008E827583001201B1FF1206AC9000D2E0BE
:08056C0004F080D51207B9D399
:010574002264
:1003C4009000D6EEF0A3EFF0A3EBF0A3EAF0A3E9DC
:0103D400F038
:1003D500A3E0FFD394405003EF7002C3221207E05D
:1003E5007FA01206AC400280229000D6E0FF1206E4
:1003F500AC400280169000D7E0FF1206AC400280A8
:100405000A1207E07FA11206AC40051207B9C32204
:10041500E49000DCF09000DBE014FFA3E0C39F5004
:10042500231207159000D8E0FBA3E0FAA3E0F990AA
:1004350000DCE0F582758300EF1201DE9000DCE060
:1004450004F080D11206E29000DBE024FFFDE434E5
:10045500FFFC9000D8E0FBA3E0FAA3E0F98D828CC5
:0904650083EF1201DE1207B9D386
:01046E00226B
:1007E000D297D29600000000C29700000000C29687
:0107F00022E6
:1007B900C296C29700000000D29600000000D297AE
:0507C900000000002209
:1006AC007E80EE601B5F7004C2978002D2970000C0
:1006BC000000D29600000000C296EEC313FE80E24A
:1006CC00D29700000000D296A29792010000000081
:0506DC00C296A201B36B
:0106E10022F6
:1006E200D2977E80EE601D00000000D29620970512
:1006F200F45FFF8003EF4EFF00000000C296EEC3DE
:1007020013FE80E0D29700000000D29600000000A5
:02071200C2968D
:0107140022C2
:10071500D2977E80EE601800000000D296209703E5
:10072500F45FFF00000000C296EEC313FE80E5C231
:0D0735009700000000D29600000000C29660
:010742002294
:1007CE001207E0EF25E0FF1206AC92021207B9A263
:0107DE000218
:0107DF0022F7
:10076B00000000C001800240030003C0048005406C
:10077B00060006C007800840090009C00A800B402C
:08078B000C000CC00D800E40B3
:0A07F1004100C2064100C300C1032D
:10079300D2AF9000C574EEF09000C5E0B4EE0E74D5
:1007A30011FFFE1205D49000C5EFF080EB7F807E31
:0607B3002512074380FE41
:1007430075985053890F438920AB07AA06E4F9F83B
:100753007F807E70FDFC120625EFF404F58D858DF8
:080763008BC2ABD2ACD28E2296
:1002CE009000C2E025E0246BF582E43407F583E468
:1002DE0093FF7401939000CACFF0A3EFF09000C784
:1002EE007401F0A37400F0A37402F09000CAE0FE53
:1002FE00A3E0FF9000C7E0FBA3E0FAA3E0F99000B3
:10030E00D17440F01204FB50E27F057E0012000310
:10031E009000C2E025E0246BF582E43407F5837487
:10032E0001932440FEE49334009000CAF0A3CEF073
:10033E009000C77401F0A37400F0A37442F0900013
:10034E00CAE0FEA3E0FF9000C7E0FBA3E0FAA3E043
:10035E00F99000D17440F01204FB50E27F057E004C
:10036E001200039000C2E025E0246BF582E434070E
:10037E00F5837401932480FEE49334009000CAF058
:10038E00A3CEF09000C77401F0A37400F0A37482A2
:10039E00F09000CAE0FEA3E0FF9000C7E0FBA3E0F0
:1003AE00FAA3E0F99000D17440F01204FB50E27F02
:0603BE00057E00020003B1
:10057500900000E025E0246BF582E43407F583E480
:1005850093FD7401939000C8CDF0A3EDF0E49000C5
:10059500C7F07FEEEFB4EE0D9000C8E0FEA3E0FFDC
:1005A5001205D480EF9000C7E02402F582E4340000
:1005B500F583EFF09000C9E004F070069000C8E004
:0E05C50004F09000C7E004F0E0C394C040C40E
:0105D3002205
:03002300020026B2
:10002600C0E0C0F0C083C082C0D075D000C000C0A0
:0D00360001C002C003C004C005C006C00721
:1000430020980302013EC2989000C6E599F0E0FFB4
:10005300B4FA059000C4E4F0EFB4FC069000C47455
:1000630002F0EFB4FD069000C47406F09000C4E003
:1000730014604314607C1470030200FD24FE6025A9
:100083001470030201272406600302013E9000C49A
:100093007405F07FC0900002E4F0A3DFFC90000140
:1000A300E4F002013E9000C6E09000C2F09000C46C
:1000B3007401F002013E9000C6E0B4FF191202CEB3
:1000C3009000C5E004F09000C5E0FD7411FFFE123E
:1000D300066950F2805F9000C6E0FF900001E024C3
:1000E30002F582E43400F583EFF0900001E004F0C0
:1000F30080499000C47403F080419000C6E0B4FFCF
:10010300199000C47404F0759901D203900001E4BE
:10011300F09000C3F012057580219000C6E09000B6
:1001230000F080177FEEEFB4EE097411FFFE1205A5
:10013300D480F38F999000C47404F0309955C29918
:10014300300350900001E0FF2402F582E43400F50F
:1001530083E09000C6F0EFB40F05E09000C3F09089
:1001630000C3E060152410FFE433FE900001E0C3F8
:100173009FEE6480F87480985017900001E0C39458
:10018300C0500E9000C6E0F599900001E004F080A5
:0301930002C203A2
:10019600D007D006D005D004D003D002D001D000BD
:0B01A600D0D0D082D083D0F0D0E03267
:10000300EF1FAA0670011E4A600BE4FDEDC3947B4B
:0500130050EE0D80F726
:0100180022C5
:0300000002046F88
:0C046F00787FE4F6D8FD7581200204B609
:1001B100BB010CE58229F582E5833AF583E0225003
:1001C10006E92582F8E622BBFE06E92582F8E2224D
:0D01D100E58229F582E5833AF583E4932267
:1001DE00F8BB010DE58229F582E5833AF583E8F057
:1001EE00225006E92582C8F622BBFE05E92582C803
:0201FE00F222EB
:10062500C2D5E830E70FB2D5E4C39BFBE49AFAE400
:1006350099F9E498F8EC30E717B2D512065B120287
:100645003CE4C39BFBE49AFAE499F9E498F8800347
:1006550012023C30D50DE4C39FFFE49EFEE49DFDF0
:04066500E49CFC22F3
:10047B00020793E493A3F8E493A34003F68001F2FD
:10048B0008DFF48029E493A3F85407240CC8C33382
:10049B00C4540F4420C8834004F456800146F6DF51
:1004AB00E4800B01020408102040809007F1E47EE9
:1004BB00019360BCA3FF543F30E509541FFEE49346
:1004CB00A360010ECF54C025E060A840B8E493A30D
:1004DB00FAE493A3F8E493A3C8C582C8CAC583CA38
:1004EB00F0A3C8C582C8CAC583CADFE9DEE780BEF0
:0107FB0000FD
:1002000075F008758200EF2FFFEE33FECD33CDCCB5
:1002100033CCC58233C5829BED9AEC99E582984038
:100220000CF582EE9BFEED9AFDEC99FC0FD5F0D615
:10023000E4CEFBE4CDFAE4CCF9A88222B800C1B93F
:100240000059BA002DEC8BF084CFCECDFCE5F0CB7D
:10025000F97818EF2FFFEE33FEED33FDEC33FCEBB6
:1002600033FB10D703994004EB99FB0FD8E5E4F971
:10027000FA227818EF2FFFEE33FEED33FDEC33FC5E
:10028000C933C910D7059BE99A4007EC9BFCE99A52
:10029000F90FD8E0E4C9FAE4CCFB2275F010EF2F97
:1002A000FFEE33FEED33FDCC33CCC833C810D70797
:1002B0009BEC9AE899400AED9BFDEC9AFCE899F8D2
:0E02C0000FD5F0DAE4CDFBE4CCFAE4C8F92265
:00000001FF
