:0450E6004104A101DF
:104FC900EF60037F01221240723099FDC2997599F1
:104FD900BB3099FDC2998F99EF70079004A1E054F5
:074FE900FEF09004A1E0FFBF
:014FF000229E
:0C50C400EF60037F01229004A1E0FF22B6
:104EDB00EF700B900301E06005D3940140037F0456
:104EEB00229004A1E030E0037F03229002FDE0FC5E
:104EFB00A3E0FDA3E0FEA3E0FF124ACEEF60037F29
:054F0B0001227F0022DD
:104F1000EF700B900301E06005D3940140037F0420
:104F2000229004A1E030E0037F03229002FDE0FC28
:104F3000A3E0FDA3E0FEA3E0FF124D28EF60037F96
:054F400001227F0022A8
:104E4F0090028CEBF0A3EAF0A3E9F0EF60037F048C
:104E5F00229004A1E030E0037F032290028B7401C3
:104E6F00F0ED70101250EB124F45BFFF0DE49002A2
:104E7F008BF0800690028B7404F01250EE7FFF12BD
:074E8F0050B190028BE0FF1F
:014E960022F9
:0C50D000612E74787400622E74787400F5
:10477400D2AF7F807E25124FF17F147E00125060ED
:104784007599FF7B017A007900E4FF124DAD900228
:104794008174FFF0A37450F0A374D0F0A37401F0FB
:1047A400FB7A02792E121F4290028174FFF0A374E7
:1047B40050F0A374D6F0A3740AF07B017A02795006
:1047C400121F429002817401F0A37402F0A3747268
:1047D400F0A3E4F0A37408F0A37401F0A37402F04E
:1047E400A3747AF07B017A02792E121A678F99EFFB
:1047F400704E90027AE0FCA3E0FD4C60439002818D
:104804007401F0A37402F0A37472F0A3ECF0A3EDAE
:10481400F0A37401F0A37402F0A3747CF07B017A1A
:10482400027950120A1F8F99EF701590027AE0FCFA
:10483400A3E0FDC390027DE09D90027CE09C508348
:104844007B017A02792E124F737B017A027950121E
:0F4854004F737B007A007900E4FF124DAD80FEB8
:10506000D3EF9400EE940040147D657C18ED1D7024
:0D507000011CED4C70F7EF1F70E61E80E391
:01507D002210
:104FF10075985053890F438920AB07AA06E4F9F845
:105001007F807E70FDFC124E97EFF404F58D858D47
:085011008BC2ABD2ACD28E229F
:1050B1008FCF75CDC0AFCFEFF460073099FDC299A6
:0250C1008F99C5
:0150C30022CA
:0350EB00C293224B
:0350EE00D2932238
:10501900E4F5CF75CDC075CEDCEF601114600A14CC
:10502900600F14700C85CECE2243CE022243CE03EC
:055039002243CE01221C
:10509B00E4FD7FFF1250B1AE07EEF46001220DED7F
:0550AB00B408EFAF06A0
:0150B00022DD
:10507E0012509BEF7F00FE7808F6FC08EFF6FD7FDE
:0C508E00FF1250B1ECFE18EEF608EFF631
:01509A0022F3
:04503E007F017E0070
:10504200EF1FAA0670011E4A6013E4FCFDC3ED9433
:0D5052007BEC940050EA0DBD00010C80F0D5
:01505F00222E
:104ACE00900302120574900306EBF0A3EAF0A3E93B
:014ADE00F0E7
:104ADF00900302E0FCA3E0FDA3E0FEA3E0FF780952
:104AEF0012041990030C1205747F11124E0212500A
:104AFF009BAC0712509B74FF900309F0A3F0EFB427
:104B0F00FF1390030974FFF5F01201B845F060052B
:104B1F0012509B80E9EC7005EF64FE60037F012269
:104B2F00E4900309F0A3F07FFF1250B1900306E069
:104B3F00FBA3E475F0011201CEA9F0FAEF12017296
:104B4F0090030AE004F07006900309E004F0C390AC
:104B5F000309E0940240D07FFF1250B17FFF125043
:064B6F00B11250EE7F00C0
:014B7500221D
:104D2800900302120574900306EBF0A3EAF0A3E9DE
:014D3800F08A
:104D3900900302E0FCA3E0FDA3E0FEA3E0FF7809F5
:104D490012041990030C1205747F18124E021250A6
:104D59009B900309EFF07FFE1250B1E4FDFC900334
:104D690006E0FBA3E475F0011201CEA9F0FA1200E6
:104D7900F9FF1250B10DBD00010CE4B505E0ECB42A
:104D890002DC7FFF1250B180097FFF1250B1EFF4AE
:104D990060077FFF1250B180F01250EE7FFF125072
:034DA900B17F00D7
:014DAC0022E4
:104F45007FFF1250B190028F7401F0A374F4F07FCB
:104F5500FF1250B1AB0712503EEBF4600E90028F7A
:0D4F650074FFF5F01201B845F070E4AF03E1
:014F7200221C
:104072007F021250191250EEE49002C9F0A3F07FB1
:10408200FF1250B19002CAE004F070069002C9E03B
:1040920004F0C39002CAE0940A9002C9E09400407E
:1040A200DE1250EB9002C97403F0A374E8F0E490BE
:1040B200049FF0A3F03099FDC2997599AA12503E5F
:1040C20090030C12058000000000E4FF124E021261
:1040D200509B3099FDC2998F99EF6401600E900256
:1040E200C974FFF5F01201B845F070D13099FDC2E4
:1040F200997599AA9002C9E07002A3E070037F014A
:10410200229002C97407F0A374D0F090030C120538
:1041120080000000007F37124E0290030C120580CF
:10412200000000007F29124E0212509BEFD394012F
:1041320090049FE45007F0A37402F08004F0A304FB
:10414200F012503E90049FE07004A3E064029003DA
:104152000C701A120580000000007F37124E029088
:10416200030C120580000000007F298009120580DF
:10417200000000007F01124E0212509BEF600E9071
:1041820002C974FFF5F01201B845F070B49002C98B
:10419200E07002A3E070037F012290030C120580FD
:1041A200000000007F0D124E0212507EEF4E60039F
:1041B2007F022290030C120580000002007F101281
:1041C2004E0212509BEF600AE490049FF0A3F07F2E
:0C41D20002227F031250191250EE7F00F1
:0141DE0022BE
:024E0200AB07FC
:104E04001250EB7FFF1250B1EB4440FF1250B190AF
:104E1400030CE0FCA3E0FDA3E0FEA3E0FFA3120566
:104E240074E4FE74102EF582E43403F583E0FF127B
:104E340050B10EEEB404ECEB70047F9580027FFF5A
:0A4E44001250B17FFF1250B17F0041
:014E4E002241
:0A50DC0046415400464154333200AF
:10351500F9F89002D9E0FCA3E0FDA3E0FEA3E0FFEB
:103525001203569002E1E0F8A3E0F9A3E0FAA3E064
:0B3535002FFFEA3EFEE93DFDE83CFCF4
:063540009002ED1205747B
:1035460090049CE0FBA3E0FAA3E0F99002F5EBF00F
:10355600A3EAF0A3E9F090000412044C9002F112E1
:1035660005749002EDE0FCA3E0FDA3E0FEA3E0FFFE
:10357600A3E0F8A3E0F9A3E0FAA3E0FBC31203F586
:0535860070030236F3A2
:10358B009002F5E0FBA3E0FAA3E0F990002D120105
:10359B00127003023692E9242EF9E43AFA9002F102
:1035AB00E0FCA3E0FDA3E0FEA3E0FF9002FD12050B
:1035BB00749003017401F0E4FF124F10EF60037F6E
:1035CB0000229002F5E0FBA3E0FAA3E0F990002DB6
:1035DB00E412018490001412044C9000081204DAD7
:1035EB00EB2FFFEA3EFEE93DFDE83CFC9002F1E0EB
:1035FB00F8A3E0F9A3E0FAA3E0FBC31203F5400341
:10360B000236929002F5E0FBA3E0FAA3E0F99000FA
:10361B002C1201129002F8F09002F8E0C3940240D1
:10362B00669002F1E0FCA3E0FDA3E0FEA3E0FFA3A4
:10363B00E0FBA3E0FAA3E0F99000141204DAEF2BFD
:10364B00FFEE3AFEED39FDEC38FC9002F1120574F9
:10365B009002F5E0FBA3E0FAA3E0242EF9E43AFA9A
:10366B009002F1E0FCA3E0FDA3E0FEA3E0FF9002DB
:10367B00FD1205749003017401F0E4FF124F1090DA
:10368B0002F8E014F080919002EDE0FCA3E0FDA3C2
:10369B00E0FEA3E0FFEC4D4E4F604D9002F5E0FBDA
:1036AB00A3E0FAA3E0242EF9E43AFA9002EDA3A3E7
:1036BB00A3E09002FD1205749003017401F0E4FF86
:1036CB00124EDBEF60037F00229002EDE0FCA3E0E3
:1036DB00FDA3E0FEA3E0FF9002F5E0FBA3E0FAA35D
:0836EB00E0F9900004120496BE
:0236F3007F0155
:0136F50022B2
:1045590090049CE0FBA3E0FAA3E0F9900288EBF059
:10456900A3EAF0A3E9F090002D74011201847F0001
:104579007E007D007C00123540EF70037F08229099
:104589000288E0FBA3E0FAA3E0F990002A120112E5
:10459900640360030246549000281201127003025A
:1045A9004654900288A3A3E09000041205B10000CC
:1045B90000007E027F007D00E9242EF9E43AFA1218
:1045C90008C6900288E0FBA3E0FAA3E0F990022C68
:1045D90074AA75F05512029E90002E1205B1416120
:1045E90052529002121205B161417272900020126A
:1045F900044C90021612049690001C12044C90026E
:104609001A120496E9242EF9E43AFAC003C002C04A
:1046190001900288E0FBA3E0FAA3E0F990002412DC
:10462900044C9002FD1205749003017401F0D0014D
:10463900D002D003E4FF124F10900288E0FBA3E000
:10464900FAA3E0F9900028E41201847B007A00794A
:0F46590000E4FDFF124E4FEF60037F08227F0049
:01466800222F
:0B32F100E0FCA3E0FDA3E0FEA3E0FF73
:0632FC009002D9120574D6
:1033020090049CE0F9A3E0FAA3E09002E5C9F0A3DF
:10331200EAF0A3E9F0E47F02FEFDFC9002D9E0F8B6
:10332200A3E0F9A3E0FAA3E0FBC31203F550030202
:10333200350E9002E5E0FBA3E0FAA3E0F990001855
:1033420012044C9002D9E0F8A3E0F9A3E0FAA3E05A
:10335200FBC31203F5400302350E9002E5E0FBA326
:10336200E0FAA3E0F990000812044C9002E1120581
:103372007490002A12011224FE7003023494147015
:10338200030234CF2402600302350E9002D9A3A3B4
:10339200E0FEA3E0FF7C007D031201A6EEC313FE54
:1033A200EF13FF9002DFEEF0A3EFF09002DFE0C335
:1033B20013FF7E00E4FD9002E1E0F8A3E0F9A3E050
:1033C200FAA3E02FFFEE3AFEED39FDEC38FC1235A0
:1033D20040EF700302350E9002E5E0FBA3E0FAA392
:1033E200E0242EF9E43AFA9002DFE05401FEA3E071
:1033F20029F9EA3EFA1200F9FF9002DDE4F0A3EFA8
:10340200F09002E0E004F070069002DFE004F09039
:1034120002DFE0C313FF7E00E4FCFD9002E1E0F86E
:10342200A3E0F9A3E0FAA3E02FFFEE3AFEED39FDA7
:10343200EC38FC123540EF700302350E9002E5E0E5
:10344200FBA3E0FAA3E0242EF9E43AFA9002DFE0CB
:103452005401FEA3E029F9EA3EFA1200F9FE9002B5
:10346200DDE04EF0A3E0F09002D9A3A3A3E0540163
:10347200FFEF6012A3E0C4F854F0C868FEA3E0C4F2
:10348200540F48FF80439002DDE0540FFEA3E0FF9B
:103492008037E4FB7A01123515EF60709002E5E0A7
:1034A200FBA3E0FAA3E0242EF9E43AFA9002D9A3AE
:1034B200A3E0FEA3E025E0FFEE335401FEE92FF97D
:1034C200EA3EFA1201E4FFAEF0E4FCFD22E47B8066
:1034D200FA123515EF60359002E5E0FBA3E0FAA39E
:1034E200E0242EF9E43AFA9002D9A3A3E0FEA3E085
:1034F2007802C333CE33CED8F9FFEE5401FEE92F62
:10350200F9EA3EFA12042CEC540FFC22E47F01FE8D
:02351200FDFCBE
:013514002294
:0B267600E0FCA3E0FDA3E0FEA3E0FFFA
:062681009002D91205745D
:1026870090049CE0FBA3E0FAA3E0F99002EAEBF0E8
:10269700A3EAF0A3E9F090000812044C9002E612B6
:1026A700057490002A12011224FE700302284514B3
:1026B70070030228A4240260030229169002D9A3FA
:1026C700A3E0FEA3E0FF7C007D031201A6EEC31387
:1026D700FEEF13FF9002E1EEF0A3EFF09002E1E0CE
:1026E700C313FF7E00E4FD9002E6E0F8A3E0F9A340
:1026F700E0FAA3E02FFFEE3AFEED39FDEC38FC12CD
:102707003540EF7002FF229002EAE0FBA3E0FAA354
:10271700E0242EF9E43AFA9002E1E05401FEA3E046
:1027270029F9EA3EFAA3EBF0A3EAF0A3E9F0900255
:10273700D9A3A3A3E05401FFEF601DA3A3A3A3E0C4
:10274700C454F0FF9002E3E0FBA3E0FAA3E0F91220
:1027570000F9540F4FFF80089002DDA3A3A3E0FF09
:102767009002E3E0FBA3E0FAA3E0F9EF1201729015
:1027770002E2E004F070069002E1E004F09002EA61
:10278700E0FBA3E0FAA3E0F990002D7401120184A5
:102797009002E1E0C313FF7E00E4FCFD9002E6E057
:1027A700F8A3E0F9A3E0FAA3E02FFFEE3AFEED3934
:1027B700FDEC38FC123540EF7002FF229002EAE090
:1027C700FBA3E0FAA3E0242EF9E43AFA9002E1E051
:1027D7005401FEA3E029F9EA3EFAA3EBF0A3EAF0DD
:1027E700A3E9F09002D9A3A3A3E05401FFEF60137C
:1027F700A3E0FCA3E0FDA3E0FEA3E0FF780412043E
:102807000680299002DDE0FCA3E0FDA3E0FEA3E043
:10281700FF7808120406EF540FFF9002E3E0FBA3D2
:10282700E0FAA3E0F91200F954F04FFF9002E3E059
:10283700FBA3E0FAA3E0F9EF120172022919E4FB06
:102847007A01F9F89002D9E0FCA3E0FDA3E0FEA32A
:10285700E0FF1203569002E612352BEF7002FF22BB
:102867009002DDA3A3E0FEA3E0FF8FF0C006900275
:10287700EAE0FBA3E0FAA3E0242EF9E43AFA900297
:10288700D9A3A3E0FEA3E025E0FFEE335401FEE960
:102897002FF9EA3EFAD0E012027F022919E47B8081
:1028A700FAF9F89002D9E0FCA3E0FDA3E0FEA3E06B
:1028B700FF1203569002E612352BEF7002FF2290AB
:1028C70002DDE0FCA3E0FDA3E0FEA3E0FFC004C03F
:1028D70005C006C0079002EAE0FBA3E0FAA3E024E4
:1028E7002EF9E43AFA9002D9A3A3E0FEA3E0780216
:1028F700C333CE33CED8F9FFEE5401FEE92FF9EA00
:102907003EFAD007D006D005D00412047C80037F9E
:1029170000229002EAE0FBA3E0FAA3E0F990002D81
:0729270074011201847F011D
:01292E002286
:0B466900E0FCA3E0FDA3E0FEA3E0FFE7
:064674009002B012057473
:10467A0090049CE0F9A3E0FAA3E09002B8C9F0A381
:10468A00EAF0A3E9F0E47F02FEFDFC9002B0E0F854
:10469A00A3E0F9A3E0FAA3E0FBC31203F550030277
:1046AA0047719002B8E0FBA3E0FAA3E0F990001882
:1046BA0012044C9002B0E0F8A3E0F9A3E0FAA3E0F8
:1046CA00FBC31203F540030247719002B01232F1A4
:1046DA009002B4120574E47F01FEFDFC9002B4E07E
:1046EA00F8A3E0F9A3E0FAA3E0FBC31203F5700212
:1046FA00FF229002DD120580000000009002B01235
:10470A002676EF7002FF229002B8E0FBA3E0FAA33C
:10471A00E0F990002012044C74FFFBFAF9F8C31276
:10472A0003F5602C9002B8E0FBA3E0FAA3E0F9904D
:10473A00002012044CEF2401FFE43EFEE43DFDE4B8
:10474A003CFC900020120496900028740112018407
:10475A009002B4E0FCA3E0FDA3E0FEA3E0FF900218
:09476A00B012057402468F7F01B4
:014773002223
:06292F009002C2120574C3
:1029350090049CE0FBA3E0FAA3E0F99002D6EBF04B
:10294500A3EAF0A3E9F090001812044C9002D21209
:102955000574E4FFFEFDFC9002C2E0F8A3E0F9A3D4
:10296500E0FAA3E0FBC31203F570599002D6E0FB31
:10297500A3E0FAA3E0F990001C12044C9002CE12D9
:102985000574E47F02FEFDFC9002CEE0F8A3E0F9B9
:10299500A3E0FAA3E0FBC31203F5401C9002D2E0CA
:1029A500FCA3E0FDA3E0FEA3E0FF9002CEE0F8A3C8
:1029B500A3A3E01203F540729002CE120580000039
:1029C500000180669002C21232F19002C6120574AF
:1029D500E47F02FEFDFC9002C6E0F8A3E0F9A3E067
:1029E500FAA3E0FBC31203F55004E4022B2F900277
:1029F500D2E0FCA3E0FDA3E0FEA3E0FF9002C6E069
:102A0500F8A3E0F9A3E0FAA3E0FBC31203F550062F
:102A15009002C6022BD29002C2E0FCA3E0FDA3E027
:102A2500FEA3E0FF9002CE1205749002CEE0FCA357
:102A3500E0FDA3E0FEA3E0FF9002CA120574900238
:102A4500CAE0FCA3E0FDA3E0FEA3E02401FFE43E11
:102A5500FEE43DFDE43CFC9002CA1205749002D2EE
:102A6500E0FCA3E0FDA3E0FEA3E0FF9002CAE0F8CE
:102A7500A3E0F9A3E0FAA3E0FBC31203F5402F900E
:102A850002CA120580000000029002CEE0FCA3E01D
:102A9500FDA3E0FEA3E0FF9002CAE0F8A3E0F9A3DE
:102AA500E0FAA3E0FBD31203F54003E4806690024D
:102AB500CA1232F19002C6120574E4FFFEFDFC90C5
:102AC50002C6E0F8A3E0F9A3E0FAA3E0FBC3120312
:102AD500F56044E47F01FEFDFC9002C6E0F8A3E04A
:102AE500F9A3E0FAA3E0FBC31203F57002803B9063
:102AF50002CEE0FCA3E0FDA3E0FEA3E0FF9002CA46
:102B0500E0F8A3E0F9A3E0FAA3E0FBC31203F56044
:102B150003022A43FF804F9002DD1205800FFFFF5D
:102B2500FF9002CA122676EF70047F018038E4FF19
:102B3500FEFDFC9002C2E0F8A3E0F9A3E0FAA3E0F1
:102B4500FBC31203F560239002CAE0FCA3E0FDA3DA
:102B5500E0FEA3E0FF9002DD1205749002C212268A
:102B650076EF70067F01FEFDFC229002CAE0FCA311
:102B7500E0FDA3E0FEA3E0FF9002D6E0FBA3E0FAB0
:102B8500A3E0F990001C12049690002012044C74E6
:102B9500FFFBFAF9F8C31203F5602F9002D6E0FBAC
:102BA500A3E0FAA3E0F990002012044CEF24FFFF04
:102BB500EE34FFFEED34FFFDEC34FFFC90002012F7
:102BC500049690002874011201849002CAE0FCA3C7
:082BD500E0FDA3E0FEA3E0FF18
:012BDD0022D5
:104863009002BCE0FCA3E0FDA3E0FEA3E0FF900206
:10487300B0E0FBA3E0FAA3E0F990000712049690DE
:10488300000B1204969002BCE0FCA3E0FDA3E0FE43
:03489300A3E0FFA0
:064896009002D01205742F
:10489C0090049CE0FBA3E0FAA3E0F99002D4EBF0C7
:1048AC00A3EAF0A3E9F09002D0E0FCA3E0FDA3E0C2
:1048BC00FEA3E0C39402FFEE9400FEED9400FDEC29
:1048CC009400FC9002D012057490001812044CEF66
:1048DC0024FEFFEE34FFFEED34FFFDEC34FFFC90C4
:1048EC0002D0E0F8A3E0F9A3E0FAA3E0FBC31203C3
:1048FC00F54006E4FFFEFDFC229002D4E0FBA3E0B1
:10490C00FAA3E0F990002B120112FFE4FCFDFE90DB
:10491C0002D0E0F8A3E0F9A3E0FAA3E0FB1202CB8B
:10492C009002D4E0FBA3E0FAA3E0F990001012048B
:0D493C00DAEF2BFFEE3AFEED39FDEC38FC12
:01494900224B
:083EF500E0FBA3E0FAA3E0F9F1
:0B3EFD009002C7EBF0A3EAF0A3E9F08D
:103F080090000212020F2401FFE435F09002CEF077
:103F1800A3EFF0540F60030240539002C7E0FBA3E5
:103F2800E0FAA3E0F990000F12044CEF2401FFE43B
:103F38003EFEE43DFDE43CFC90000F120496900028
:103F48000B12044CE4FBFAF9F8C31203F5702C9039
:103F580002C7E0FBA3E0FAA3E0F9900004120666AA
:103F680090000212020FFFC39002CFE09F9002CE92
:103F7800E095F050030240537F00229002C7E0FB17
:103F8800A3E0FAA3E0F990000412066690002B1251
:103F9800011224FFFDE434FFFC9002CEE0C4F85483
:103FA800F0C868FEA3E0C4540F48FFEC5EFEED5F66
:103FB8004E60030240539002C7E0FBA3E0FAA3E07F
:103FC800F990000B12044C1232FC9002CA120574CC
:103FD800E47F02FEFDFC9002CAE0F8A3E0F9A3E04A
:103FE800FAA3E0FBC31203F5402B9002C7E0FBA342
:103FF800E0FAA3E0F9900004120666900018120493
:104008004C9002CAE0F8A3E0F9A3E0FAA3E0FBC3EE
:104018001203F540037F00229002CAE0FCA3E0FDF2
:10402800A3E0FEA3E0FF9002C7E0FBA3E0FAA3E051
:10403800F990000B1204961248969002C7E0FBA371
:10404800E0FAA3E0F990000F1204969002CEE0FE89
:10405800A3E0FF9002C7E0FBA3E0FAA3E0F9900019
:0940680002EE8FF012029E7F01AE
:01407100222C
:0838B700E0FBA3E0FAA3E0F935
:0B38BF00900480EBF0A3EAF0A3E9F016
:1038CA002409F9E43AFA900487EBF0A3EAF0A3E9B1
:1038DA00F0900483E0FBA3E0FAA3E0F990000C1255
:1038EA000112FFE4FE900483E0FBA3E0FAA3E0F9EF
:1038FA008E82758300120112900486F06420603E65
:10390A00900486E0B4050374E5F0EF30E314900404
:10391A0086E0FDC39441400AEDD3945A5004E02452
:10392A0020F0900486E0FDA3E0FBA3E475F0011209
:10393A0001CEA9F0FAED1201720EEEB408A79004B6
:10394A0083E0FBA3E0FAA3E0F990000812011264F5
:10395A00206066900487E0FBA3E475F0011201CEB3
:10396A00A9F0FA742E1201727E08900483E0FBA378
:10397A00E0FAA3E0F98E82758300120112900486A0
:10398A00F064206034EF30E414900486E0FDC394C0
:10399A0041400AEDD3945A5004E02420F090048662
:1039AA00E0FDA3E0FBA3E475F0011201CEA9F0FA51
:1039BA00ED1201720EEEB40BB1900487E0FBA3E0A6
:1039CA00FAA3E0F9E4120172900483E0FBA3E0FA9F
:1039DA00A3E0F990000B120112FF900480E0FBA310
:1039EA00E0FAA3E0F9900008EF120184900483E062
:1039FA00FBA3E0FAA3E0F990001C12044C900480A7
:103A0A00E0FBA3E0FAA3E0F912047C900483E0FB54
:103A1A00A3E0FAA3E0F990001812020FFF900480C5
:103A2A00E0FBA3E0FAA3E0F9900004E5F08FF012BE
:103A3A00029E900483E0FBA3E0FAA3E0F99000164B
:103A4A0012020FFF900480E0FBA3E0FAA3E0F990D2
:093A5A000006E5F08FF002029E67
:0B3BF7009002C7EBF0A3EAF0A3E9F096
:103C02007E007F0B7D20A3E0FBA3E0FAA3E0F91284
:103C120008C6E4FC9002CF7418F0E49002CDF0A341
:103C22007408F09002C7E0FBA3E0FAA3E0F9E475A0
:103C3200F0011205F51200F9FE6003B42F24900280
:103C4200CDE07003023D749002CFE05CFF9002CAA7
:103C5200E0FBA3E0FAA3E0F990000BEF120184AFBE
:103C62000622EED394205003023D74EE647F70036B
:103C7200023D74EEB42E26EC30E003023D74900255
:103C8200CDE0FDC394015003023D74EDD39408408E
:103C920003023D747408F0A3740BF08086EEC394A3
:103CA200814006EED3949F400CEEC394E04019EE9F
:103CB200D394FC50139002CDE07006EEB4E5027E80
:103CC20005EC6401FC023D4BEE64227003023D747C
:103CD200EED39429406FEED3942C5003023D74EE40
:103CE200D394394060EED3943F5003023D74EC20EC
:103CF200E053EE647C607BEEC3945B4006EED394AB
:103D02005D406FEEC39441401BEED3945A50159020
:103D120002CEE0B40807A3E054F7F080079002CF88
:103D2200E054EFF0EEC39461401BEED3947A501549
:103D320074E02EFE9002CEE0B40806EC4408FC804B
:103D420004EC4410FCEC54FEFC9002CEE0FF900226
:103D5200CDE0C39F501C9002CAE0FBA3E0FAA3E0AF
:103D6200F9A3E0FF04F08F82758300EE1201840252
:043D72003C257F016C
:013D7600222A
:082BDE00A3F07B017A037939B1
:0B2BE6009002B0EBF0A3EAF0A3E9F0CE
:102BF1009002C1E4F0A3F0A3F090049CE0F9A3E0FB
:102C0100FAA3E09002C4C9F0A3EAF0A3E9F09002AC
:102C1100C4E0FBA3E0FAA3E0F9C003C002C0019045
:102C210002B0E0FBA3E0FAA3E0F9900004120696DB
:102C31009002C4E0FBA3E0FAA3E0F990000C1204B7
:102C41004C9002BC12057490002A120112B40310B8
:102C51001248639002B0E0FBA3E0FAA3E0F9802DF3
:102C61009002B0E0FBA3E0FAA3E0F990000712059F
:102C7100B10000000090000B1205B10000000090AF
:102C810002BCE0FCA3E0FDA3E0FEA3E0FF90000F87
:102C91001204969002B0E0FBA3E0FAA3E0F99000E1
:102CA10002E4F5F012029E9002B6E0FBA3E0FAA363
:102CB100E0F91200F97005FBFA022DB29002B3E0BF
:102CC100F9A3E0FAA3E09002CAC9F0A3EAF0A3E9EC
:102CD100F07B017A0279B6123BF79002C0EFF0BFA8
:102CE10001037F04229002B0E0FBA3E0FAA3E0F924
:102CF10090000F12044C123540EF70037F082290B0
:102D010002B0E0FBA3E0FAA3E0F990000212020F87
:102D11007E00540F7805C333CE33CED8F9FF90022D
:102D2100C4E0FBA3E0FAA3E0242EF9E43AFAE92F88
:102D3100F9EA3EFA9002C1EBF0A3EAF0A3E9F0123E
:102D410000F9FE700C9002C0E070037F02227F0345
:102D510022EE64E560349002C1E0FBA3E0FAA3E057
:102D6100F990000B12011220E3209002C1A3A3E00D
:102D7100F8AC02AD039002B3E0FBA3E0FAA3E0F9E3
:102D81007E007F0B1208A2EF60199002B0123EF58F
:102D9100EF6003022CE69002C0E070047F02800223
:102DA1007F03229002C0E07020A3E0FBA3E0FAA31E
:102DB100E0F9C003C002C0019002B9E0FBA3E0FA50
:102DC100A3E0F91206177F00229002C1E0FBA3E005
:102DD100FAA3E0F990000B12011220E4037F032211
:102DE1009002C1E0FBA3E0FAA3E0F9900014120203
:102DF1000FFFAEF0E4FCFD7810120419C004C00509
:102E0100C006C00790001A12020FFFD003D002D0F3
:102E110001D000EB4FFFEA45F0FEE9FDE8FC90022E
:102E2100BC1205741248639002B0E0FBA3E0FAA360
:102E3100E0F990000F120496900002E475F002127E
:052E4100029E022CBD01
:0B30AE009002B0EBF0A3EAF0A3E9F001
:1030B9009000041206669002BFEBF0A3EAF0A3E9C0
:1030C900F09002B0E0FBA3E0FAA3E0F99000071248
:1030D900044C9002B6120574E4FFFEFDFC9002B6A2
:1030E900E0F8A3E0F9A3E0FAA3E0FBC31203F5605B
:1030F900249002B6E0FCA3E0FDA3E0FEA3E0FF906C
:1031090002B0E0FBA3E0FAA3E0F990000B120496E9
:1031190012489680119002BFE0FBA3E0FAA3E0F900
:1031290090000C12044C9002B0E0FBA3E0FAA3E07B
:10313900F990000F1204969002B0E0FBA3E0FAA305
:10314900E0F9900002E4F5F012029E9002B0E0FB73
:10315900A3E0FAA3E0F990000F12044C123540EFF6
:1031690070037F08229002B0E0FBA3E0FAA3E0F924
:1031790090000212020F7E00540F7805C333CE333C
:10318900CED8F9FF9002BFE0FBA3E0FAA3E0242E1A
:10319900F9E43AFAE92FF9EA3EFA1200F9FF600375
:1031A900B4E5030232DA9002B0123EF5EF709CFFEB
:1031B900FEFDFC9002B6E0F8A3E0F9A3E0FAA3E073
:1031C900FBC31203F560209002B0E0FBA3E0FAA371
:1031D900E0F990000B12044C12292F9002B6120547
:1031E90074EC4D4E4F70037F0622E47F01FEFDFC17
:1031F9009002B6E0F8A3E0F9A3E0FAA3E0FBC3125A
:1032090003F5600E7F007E007D007C00123540EFE3
:1032190070037F08229002B612488B9002BA1205F9
:10322900749002BFE0FBA3E0FAA3E0F99000041256
:1032390004967E027F007D00E9242EF9E43AFA1211
:1032490008C69002BFE0FBA3E0FAA3E0F990002BC7
:103259001201129002BEF09002BEE0605AA3E0FB98
:10326900A3E0FAA3E0242EF9E43AFA9002BAE0FCCA
:10327900A3E0FDA3E0FEA3E0FF9002FD1205749018
:1032890003017401F0E4FF124F10EF60037F08227D
:103299009002BAE0FCA3E0FDA3E0FEA3E02401FF55
:1032A900E43EFEE43DFDE43CFC9002BA1205749054
:1032B90002BEE014F080A09002BFE0FBA3E0FAA3F5
:1032C900E0F990002D7401120184E9242EF9E43A01
:1032D900FAC003C002C0019002B3E0FBA3E0FAA365
:0732E900E0F91206177F0057
:0132F00022BB
:06494A009002C912057481
:1049500090049CE0FBA3E0FAA3E0F99002CDEBF019
:10496000A3EAF0A3E9F0242EF9E43AFA9002C9E0B0
:10497000FCA3E0FDA3E0FEA3E0FF9002FD1205749E
:104980009003017401F0E4FF124EDBEF60037F023D
:10499000229002CDE0FBA3E0FAA3E0F990022C12F2
:1049A000020F64557004E5F064AA60037F02229050
:1049B00002CDE0FBA3E0FAA3E02464F9E43AA80105
:1049C000FCAD037BFF7A5079DC7E007F031208A2E6
:1049D000EF7002FF229002CDE0FBA3E0FAA3E024F7
:1049E00080F9E43AA801FCAD037BFF7A5079E07EC0
:1049F000007F051208A2EF70179002CDE0FBA3E044
:104A0000FAA3E0F990005612011220E7037F00227A
:024A10007F0124
:014A12002281
:040FE4007B017D010F
:0E0FE8009002B0EBF0A3EAF0A3E9F0A3EDF065
:100FF6009002B0E0FBA3E0FAA3E0F91205D51200D7
:10100600F9FFB42009740129F9E43AFA80F0EFB443
:101016002F07740129F9E43AFAC003C002C001900F
:1010260002B0E0FBA3E0FAA3E0F912061790049CD5
:10103600E0FBA3E0FAA3E0F99002C6EBF0A3EAF026
:10104600A3E9F0EA494B70037F0A229002C6E0FB4F
:10105600A3E0FAA3E0F990002A1201126020E4FF4F
:101066001250C49002B5EFF020E0139002B3E06096
:101076000A9002B5E030E2037F09227F0022309910
:10108600FDC2997599CC7E027F2E7D009002C6E046
:10109600FBA3E0FAA3E0F91208C6E4FF124FC990D9
:1010A60002B5EFF030E0037F01229002B3E0600A60
:1010B6009002B5E030E2037F0922E4FFFEFDFC90DA
:1010C60002B612057412494A9002B4EFF0BF013518
:1010D6009002C6E0FBA3E0FAA3E0F99001F012014A
:1010E6001260229001F412044C9002B6120574901C
:1010F60002B6E0FCA3E0FDA3E0FEA3E0FF12494A2E
:101106009002B4EFF09002B4E070199002C6E0FBD2
:10111600A3E0FAA3E0F990003912020F7004E5F09B
:10112600640260037F0B2290004412020FFFAEF0B0
:10113600E4FCFD9002BA1205749002BAE0FCA3E04A
:10114600FDA3E0FEA3E0FFEC4D4E4F700C90005265
:1011560012044C9002BA1205749002BAE0FCA3E0A5
:10116600FDA3E0FEA3E0FF9002C6E0FBA3E0FAA326
:10117600E0F990001412049690003E1201129000BD
:101186002C1201849002BAE0F8A3E0F9A3E0FAA3D6
:10119600E0FBC000C001C002C0039002C6E0FBA392
:1011A600E0FAA3E0F990002C120112FFE4FCFDFE28
:1011B600D003D002D001D0001202CB9002BA1205A1
:1011C600749002C6E0FBA3E0FAA3E0F990003C129B
:1011D600020FFFE4FCFD9002B6E0F8A3E0F9A3E0FD
:1011E600FAA3E02FFFEA35F0FEED39FDEC38FC906E
:1011F60002C6A3E0FAA3E0F9900008120496900054
:101206003B12011290002B12018490003F12020F34
:10121600FF900002E5F08FF012029E90004112024C
:101226000FFFAEF0E4FCFD9002BE1205749002BE04
:10123600E0FCA3E0FDA3E0FEA3E0FFEC4D4E4F7003
:10124600179002C6E0FBA3E0FAA3E0F990004E1265
:10125600044C9002BE1205749002C6E0FBA3E0FAAD
:10126600A3E0F990003C12020FAEF0FBAA06900232
:10127600BEE0FCA3E0FDA3E0FEA3E0C39BFFEE9A65
:10128600FEED9400FDEC9400FC9002BAE0F8A3E0B9
:10129600F9A3E0FAA3E0FBC3EF9BFFEE9AFEED99FC
:1012A600FDEC98FCC006C0079002C6E0FBA3E0FA7E
:1012B600A3E0F990000212020FFFE5F0C4F854F023
:1012C600C868FEEFC4540F48FBAA06D007D006C371
:1012D600EF9BFFEE9AFEED9400FDEC9400FCC00738
:1012E6009002C6E0FBA3E0FA90002B120112FBE489
:1012F600FAF9F8D007120356EF2402FFE43EFEE4A3
:101306003DFDE43CFC9002C21205749002C6E0FB6F
:10131600A3E0FAA3E0F99000181204969002B474C0
:1013260001F0E47FF77E0FFDFC9002C2E0F8A3E037
:10133600F9A3E0FAA3E0FBC31203F540069002B45A
:101346007402F0E47FF77EFFFDFC9002C2E0F8A392
:10135600E0F9A3E0FAA3E0FBC31203F5400690020E
:10136600B47403F09002B4E09002C6B40310E0FB3C
:10137600A3E0FAA3E0F990005A12044C802FE0FB98
:10138600A3E0FAA3E0F990000812044C9002BAE038
:10139600F8A3E0F9A3E0FAA3E02FFFEA3EFEE93D59
:1013A600FDE83CFC9002C6A3E0FAA3E0F990000C2D
:1013B6001204969002C6E0FBA3E0FAA3E0F99000BF
:1013C6000812044C9002BAE0F8A3E0F9A3E0FAA3ED
:1013D600E02FFFEA3EFEE93DFDE83CFCC004C00507
:1013E600C006C0079002C6A3E0FAA3E0F990000287
:1013F60012020FFFE5F0C4F854F0C868FEEFC454BB
:101406000F48FFE4FCFDD003D002D001D000EB2F43
:10141600FFEA3EFEED39FDEC38FC9002C6E0FBA388
:10142600E0FAA3E0F990001012049690002012054D
:10143600B1FFFFFFFF9002B4E06403600302152CC6
:101446009002C6E0FBA3E0FAA3E0F990005E120268
:101456000FFFE4FCFD9002B6E0F8A3E0F9A3E0FA82
:10146600A3E02FFFEA35F0FEED39FDEC38FC9002E3
:10147600C6A3E0FAA3E0F9900024120496E9242E0C
:10148600F9E43AFAC003C002C0019002C6E0FBA329
:10149600E0FAA3E0F990002412044C9002FD120534
:1014A600749003017401F0D001D002D003E4FF125E
:1014B6004EDBEF70719002C6E0FBA3E0FAA3E0F901
:1014C60090022C12020F64557004E5F064AA70565F
:1014D60090002E12044C7B527A5279617841C312E5
:1014E60003F570429002C6E0FBA3E0FAA3E0F99090
:1014F600021212044C7B727A7279417861C312032C
:10150600F570239002C6E0FBA3E0FAA3E0F990028F
:101516001A12044C90001C12049690021612044CE7
:101526009000201204969002B4E0FF9002C6E0FB01
:10153600A3E0FAA3E0F990002AEF12018490049A3E
:0C154600E475F0011201B812027F7F0072
:011552002276
:104F9F00EA494B601390002A120112600B1201E4D0
:104FAF006D7003E5F06C60037F0C22E4FF1250C4B8
:0A4FBF00EF30E0037F01227F0022A3
:104DAD0090027EEBF0A3EAF0A3E9F0EF60037F053C
:104DBD002290049CE0FBA3E0FAA3E0F9EA494B60E2
:104DCD000790002AE412018490027EE0F9A3E0FA34
:104DDD00A3E090049CC9F0A3EAF0A3E9F090027E51
:104DED00E0FBA3A3E0F9EA494B600790002AE41227
:054DFD0001847F00228B
:0B1F420090027EEBF0A3EAF0A3E9F0B0
:101F4D007B007A007900C003C002C00190027EE0E0
:101F5D00FBA3E0FAA3E0F990000412069690028428
:101F6D00E0541FF07B017A027981541EFD120FE8B7
:101F7D00900285EFF06003E0FF229002B37401F050
:101F8D00A37402F0A3749CF0900281E0F9A3E0FA2F
:101F9D00A3E09002B6C9F0A3EAF0A3E9F0A374019F
:101FAD00F0A37402F0A37499F07B017A0279861282
:101FBD002BE6900285EFF0900284E0541C70030232
:021FCD0021B140
:101FCF00A3E0FF607764026001229002B37401F016
:101FDF00A37402F0A37499F07B017A027986123010
:101FEF00AE900285EFF06003E0FF227E007F207D40
:101FFF0000900299E0FBA3E0FAA3E0F91208C69063
:10200F000299E0FBA3E0FAA3E0F8AC02AD037B0179
:10201F007A02799C7E007F0B1200D39002A7E0FF1B
:10202F00900299E0FBA3E0FAA3E0F990000CEF1205
:10203F000184900284E04408F0022151900284E070
:10204F00FE30E2037F0722900299E0FBA3E0FAA3A0
:10205F00E0F9EA494B600A90000B1201125411602B
:10206F00037F0622EE20E303022151900299E0FB49
:10207F00A3E0FAA3E0F990001412020FFFAEF0E410
:10208F00FCFD7810120419C004C005C006C00790EB
:10209F00001A12020FFFD003D002D001D000EB4F75
:1020AF00FFEA45F0FEE9FDE8FC9002A812057490E6
:1020BF000299E0FBA3E0FAA3E0F9900014E4F5F035
:1020CF0012029E90001AE4F5F012029E90001C126C
:1020DF0005B10000000090028AE0FBA3E0FAA3E044
:1020EF00F990002D740112018490000412044C9099
:1020FF0002AC1205749002A8124669EF60149002A8
:10210F00ACE0FCA3E0FDA3E0FEA3E0FF123540EF3F
:10211F0070037F08229002A8E0FCA3E0FDA3E0FE7D
:10212F00A3E024FFFFEE34FFFEED34FFFDEC34FFA0
:10213F00FC90028AE0FBA3E0FAA3E0F990001C12E6
:10214F000496900284E020E3030221E4900299E0D8
:10215F00FBA3E0FAA3E0F990000BE4120184120054
:10216F00009002AC1205749002ACE0FCA3E0FDA35A
:10217F00E0FEA3E0FF900299E0FBA3E0FAA3E0F9F1
:10218F0090000E12049690028AE0FBA3E0FAA3E0FF
:10219F00F990002D7401120184900284E04420F024
:1021AF008033900285E0FF600122900299E0FBA34B
:1021BF00E0FAA3E0F9EA494B600A90000B12011212
:1021CF00FE30E4037F0222900284E030E107EE301C
:1021DF00E0037F062290028AE0FBA3E0FAA3E0F976
:1021EF0090000412044C90027EE0FBA3E0FAA3E0FF
:1021FF00F990001B120496900299E0FBA3E0FAA35A
:10220F00E0F9C003C002C00190027EE0FBA3E0FA38
:10221F00A3E0F990001F120696900284E0FF90024F
:10222F007EE0FBA3E0FAA3E0F9900002EF12018435
:10223F00900299E0FBA3E0FAA3E0F99000141202D8
:10224F000FFFAEF0E4FCFD7810120419C004C005B6
:10225F00C006C00790001A12020FFFD003D002D0A1
:10226F0001D000EB4FFFEA45F0FEE9FDE8FC9002DC
:10227F007EE0FBA3E0FAA3E0F990000F1204969022
:10228F000299E0FBA3E0FAA3E0F990001C12044CC2
:10229F0090027EE0FBA3E0FAA3E0F990000B12049A
:1022AF00969000071205B10000000090000374FF24
:1022BF0012018490028AE0FBA3E0FAA3E0F9C003C5
:1022CF00C002C00190027EE0FBA3E0FAA3E0F99008
:1022DF00000412069690028AE0FBA3E0FAA3E0F94D
:1022EF001201E4FF90027EE0FBA3E0FAA3E0F9E520
:0822FF00F08FF012027F7F0056
:0123070022B3
:0B1A670090027EEBF0A3EAF0A3E9F090
:101A7200A3E0F9A3E0FAA3E0900299C9F0A3EAF087
:101A8200A3E9F0900286E0FBA3E0FAA3E0F9E4F513
:101A9200F012027F90027EE0FBA3E0FAA3E0F9904D
:101AA2000004120666C003C002C00190027EE0FB81
:101AB200A3E0FAA3E0F91201E4FDACF0D001D002F8
:101AC200D003124F9FEF60012290027EE0FBA3E061
:101AD200FAA3E0F9900002120112FE30E7037F0838
:101AE20022EE20E0037F06229000071204DAC000F3
:101AF200C001C002C00390027EE0FBA3E0FAA3E0B3
:101B0200F990000B12044CD003D002D001D000C3D4
:101B1200EF9BFFEE9AFEED99FDEC98FC90028D1280
:101B22000574900284E0FEA3E0FFE4FCFD90028DC8
:101B3200E0F8A3E0F9A3E0FAA3E0FBC31203F55037
:101B42001190028DA3A3E0FFA3E0900284CFF0A343
:101B5200EFF0900284E07002A3E07003021F249071
:101B6200027EE0FBA3E0FAA3E0F990000712044C26
:101B7200EE5401FEE4FDFCFBFAF9F8C31203F56032
:101B820003021DA190027EE0FBA3E0FAA3E0F9901C
:101B9200000412066690002B120112FF90027EE0F2
:101BA200FBA3E0FAA3E0F9900003120112C39F50D5
:101BB20003021C6290000712044CE4FBFAF9F8C31A
:101BC2001203F590027E7010E0FBA3E0FAA3E0F9A5
:101BD20090000F12044C8011E0FBA3E0FAA3E0F99D
:101BE20090001312044C1232FC900295120574E418
:101BF2007F02FEFDFC900295E0F8A3E0F9A3E0FA73
:101C0200A3E0FBC31203F55003021F2790027EE0FC
:101C1200FBA3E0FAA3E0F990000412066690001814
:101C220012044C900295E0F8A3E0F9A3E0FAA3E0D5
:101C3200FBC31203F54003021F27900295E0FCA3A9
:101C4200E0FDA3E0FEA3E0FF90027EE0FBA3E0FA4A
:101C5200A3E0F9900013120496900003E4120184A9
:101C620090027EE0FBA3E0FAA3E0F99000131204D5
:101C72004C124896C004C005C006C00790027EE020
:101C8200FBA3E0FAA3E0F9900003120112FFE4FCC7
:101C9200FDFED003D002D001D000EB2FFFEE3AFEC2
:101CA200ED39FDEC38FC900289120574900284E053
:101CB200C313FF7E00900293EEF0A3EFF0700302D5
:101CC2001D8E90027EE0FBA3E0FAA3E0F9900004EF
:101CD20012066690002B120112FF90027EE0FBA317
:101CE200E0FAA3E0F9900003120112FD900294E0E1
:101CF2002DFD900293E03400FCD3ED9FEC9E403327
:101D020090027EA3A3E090000412066690002B12BC
:101D12000112FF90027EE0FBA3E0FAA3E0F990003B
:101D220003120112FDC3EF9DFFEE9400900293F0A7
:101D3200A3EFF0900299E0FBA3E0FAA3E0F990028E
:101D420089E0FCA3E0FDA3E0FEA3E0FF9002FD1208
:101D52000574900293A3E0900301F0E4FF124EDBBE
:101D6200EF6003021F27900293A3E0FFFD90027E23
:101D7200E0FBA3E0FAA3E0F9900003ED12013FEFCC
:101D820025E0900291F0A3E4F0021EB190027EE001
:101D9200FBA3E0FAA3E0F9900003740112013F9063
:101DA200027EE0FBA3E0FAA3E0F990001312044CD8
:101DB200124896C004C005C006C00790027EE0FB30
:101DC200A3E0FAA3E0F9900003120112FFE4FCFD84
:101DD200FED003D002D001D000EB2FFFEE3AFEED91
:101DE20039FDEC38FCEF24FFFFEE34FFFEED34FF4B
:101DF200FDEC34FFFC900289120574900289E0FC2C
:101E0200A3E0FDA3E0FEA3E0FF123540EF70030262
:101E12001F2790027EE0FBA3E0FAA3E0F9900007FF
:101E220012044CEE5401FEE4C39FFF74029EFE9026
:101E32000291F0A3EFF0900284E0FCA3E0FDC39FC7
:101E4200EC9E5008900291ECF0A3EDF0900291E02C
:101E5200FEA3E0FFC006C007900004120666E92454
:101E62002EF9E43AFAC003C002C00190027EE0FB00
:101E7200A3E0FAA3E0F990000712044CEE5401FE2D
:101E8200E4FDD001D002D003E92FF9EA3EFAED3B9E
:101E9200FBC003C002900299E0FBA3E0FAA3E0F8C2
:101EA200AC02AD03D002D003D007D0061200D3900B
:101EB2000291E0FEA3E0FF90029AEE8FF01201B8C9
:101EC20090027EE0FBA3E0FAA3E02407F9E43AFAE9
:101ED200C003C002C0011204BAE4FCFDEB2FFFEA0A
:101EE2003EFEED39FDEC38FCD001D002D0031204E5
:101EF2007C900291E0FEA3E0FF900286E0FBA3E06B
:101F0200FAA3E0F9EE8FF0120247900291E0FEA3ED
:101F1200E0FFC3900285E09FF0900284E09EF00211
:101F22001B547F002290027EE0FBA3E0FAA3E02490
:0F1F320002F9E43AFA1200F944801201727F08B2
:011F4100227D
:0B0A1F0090027EEBF0A3EAF0A3E9F0E8
:100A2A00A3E0F9A3E0FAA3E0900296C9F0A3EAF0E2
:100A3A00A3E9F0900286E0FBA3E0FAA3E0F9E4F56B
:100A4A00F012027F90027EE0FBA3E0FAA3E0F990A5
:100A5A000004120666C003C002C00190027EE0FBD9
:100A6A00A3E0FAA3E0F91201E4FDACF0D001D00250
:100A7A00D003124F9F900289EFF06003E0FF2290AB
:100A8A00027EE0FBA3E0FAA3E0F990000212011251
:100A9A00FE30E7037F0822EE20E1037F0622900062
:100AAA000B1204DA900284E0FEA3E0FFEF2BFFEEC4
:100ABA003AFEE439FDE438FC90027EE0FBA3E0FA5A
:100ACA00A3E0F990000B1204DAD31203F540037F76
:100ADA000022900284E07002A3E07003020F779074
:100AEA00027EE0FBA3E0FAA3E0F990000712044CAF
:100AFA00EE5401FEE4FDFCFBFAF9F8C31203F560BB
:100B0A0003020DD890027EE0FBA3E0FAA3E0F9907D
:100B1A00000412066690002B120112FF90027EE07A
:100B2A00FBA3E0FAA3E0F9900003120112C39F505D
:100B3A0003020C4690000712044CE4FBFAF9F8C3CE
:100B4A001203F5705090027EE0FBA3E0FAA3E0F9ED
:100B5A0090000F12044C900292120574E4FFFEFDFD
:100B6A00FC900292E0F8A3E0F9A3E0FAA3E0FBC349
:100B7A001203F5703AFFFEFDFC12292F9002921221
:100B8A00057490027EE0FBA3E0FAA3E0F990000F5F
:100B9A00120496801A90027EE0FBA3E0FAA3E0F921
:100BAA0090001312044C12292F900292120574E439
:100BBA00FFFEFDFC900292E0F8A3E0F9A3E0FAA39D
:100BCA00E0FBC31203F57003020F77E47F01FEFD19
:100BDA00FC900292E0F8A3E0F9A3E0FAA3E0FBC3D9
:100BEA001203F57003020FC990027EE0FBA3E0FA3C
:100BFA00A3E0F990000412066690001812044C90C3
:100C0A000292E0F8A3E0F9A3E0FAA3E0FBC312031F
:100C1A00F54003020FC9900292E0FCA3E0FDA3E0B5
:100C2A00FEA3E0FF90027EE0FBA3E0FAA3E0F990C6
:100C3A000013120496900003E412018490027EE0ED
:100C4A00FBA3E0FAA3E0F990001312044C124896B1
:100C5A00C004C005C006C00790027EE0FBA3E0FA0C
:100C6A00A3E0F9900003120112FFE4FCFDFED00399
:100C7A00D002D001D000EB2FFFEE3AFEED39FDECA9
:100C8A0038FC90028A120574900284E0C313FF7E36
:100C9A0000900290EEF0A3EFF07003020D72900242
:100CAA007EE0FBA3E0FAA3E0F99000041206669046
:100CBA00002B120112FF90027EE0FBA3E0FAA3E0F0
:100CCA00F9900003120112FD900291E02DFD9002AD
:100CDA0090E03400FCD3ED9FEC9E403390027EA35B
:100CEA00A3E090000412066690002B120112FF90F6
:100CFA00027EE0FBA3E0FAA3E0F9900003120112DE
:100D0A00FDC3EF9DFFEE9400900290F0A3EFF090E8
:100D1A000296E0FBA3E0FAA3E0F990028AE0FCA3C2
:100D2A00E0FDA3E0FEA3E0FF9002FD12057490022D
:100D3A0090A3E0900301F0E4FF124F10EF6003026A
:100D4A000FC9900290A3E0FFFD90027EE0FBA3E0B2
:100D5A00FAA3E0F9900003ED12013FEF25E09002BB
:100D6A008EF0A3E4F0020F0490027EE0FBA3E0FA07
:100D7A00A3E0F990000B12044C9000071204DAC3A6
:100D8A001203F540367F007E007D007C001235405C
:100D9A00EF7003020FC990028AE0FCA3E0FDA3E012
:100DAA00FEA3E0FF90027EE0FBA3E0FAA3E0F99045
:100DBA00000412066690000412049690027EE0FB7C
:100DCA00A3E0FAA3E0F9900003740112013F900234
:100DDA007EE0FBA3E0FAA3E0F990001312044C12A0
:100DEA004896C004C005C006C00790027EE0FBA377
:100DFA00E0FAA3E0F9900003120112FFE4FCFDFE01
:100E0A00D003D002D001D000EB2FFFEE3AFEED392D
:100E1A00FDEC38FCEF24FFFFEE34FFFEED34FFFD5E
:100E2A00EC34FFFC90028A12057490028AE0FCA35B
:100E3A00E0FDA3E0FEA3E0FF123540EF7003020FCE
:100E4A00C990027EE0FBA3E0FAA3E0F99000071242
:100E5A00044CEE5401FEE4C39FFF74029EFE90020E
:100E6A008EF0A3EFF0900284E0FCA3E0FDC39FECB8
:100E7A009E500890028EECF0A3EDF090028EE0FEF8
:100E8A00A3E0FFC006C00790027EE0FBA3E0FAA33E
:100E9A00E0F9900004120666E9242EF9E43AFAC051
:100EAA0003C002C00190027EE0FBA3E0FAA3E0F9CE
:100EBA0090000712044CEE5401FEE4FDD001D0026A
:100ECA00D003E92FF9EA3EFAED3BA801AC02FD9006
:100EDA000296E0FBA3E0FAA3E0F9D007D0061200DD
:100EEA00D390027EE0FBA3E0FAA3E0F9900004129B
:100EFA00066690002D740112018490028EE0FEA312
:100F0A00E0FF900297EE8FF01201B890027EE0FBAC
:100F1A00A3E0FAA3E02407F9E43AFAC003C002C046
:100F2A00011204BAE4FCFDEB2FFFEA3EFEED39FDA7
:100F3A00EC38FCD001D002D00312047C90028EE07F
:100F4A00FEA3E0FF900286E0FBA3E0FAA3E0F9EE3D
:100F5A008FF012024790028EE0FEA3E0FFC39002D8
:100F6A0085E09FF0900284E09EF0020ADC90027E07
:100F7A00E0FBA3E0FAA3E0F990000B12044C900006
:100F8A00071204DAD31203F5401790027EE0FBA39E
:100F9A00E0FAA3E0F990000712044C90000B120447
:100FAA009690027EE0FBA3E0FAA3E02402F9E43A79
:100FBA00FA1200F94420120172900289E0FF22908D
:100FCA00027EE0FBA3E0FAA3E02402F9E43AFA1273
:090FDA0000F944801201727F0845
:010FE30022EB
:0B41DF00900281EBF0A3EAF0A3E9F0EE
:1041EA00900004120666C003C002C001900281E07A
:1041FA00FBA3E0FAA3E0F91201E4FDACF0D001D090
:10420A0002D003124F9F900284EFF0600302430F23
:10421A00900281E0FBA3E0FAA3E0F9900002120108
:10422A001220E50302430F90001B12044C12354082
:10423A00EF70037F0822900281E0FBA3E0FAA3E07B
:10424A00F990001F120666900285EBF0A3EAF0A32C
:10425A00E9F0240BF9E43AFA1200F9442012017247
:10426A00900281E0FBA3E0FAA3E0F990000B1204AC
:10427A004C900285E0FBA3E0FAA3E0F990001C123F
:10428A000496900281E0FBA3E0FAA3E0F990000F04
:10429A0012044C900285E0FBA3E0FAA3E0F9900037
:1042AA001AEE8FF012029E900281E0FBA3E0FAA3BD
:1042BA00E0F990000F12044C78101204069002855F
:1042CA00E0FBA3E0FAA3E0F9900014EE8FF01202EB
:1042DA009E120000900285E0FBA3E0FAA3E0F990A9
:1042EA000016120496900281E0FBA3E0FAA3E024F0
:1042FA0002F9E43AFA1200F954DF1201721245592E
:0A430A00900284EFF0900284E0FFBF
:014314002286
:0B4F730090027EEBF0A3EAF0A3E9F04F
:104F7E001241DFEF701AFBFAF9C003C002C00190B4
:104F8E00027EE0FBA3E0FAA3E0F99000041206967D
:014F9E0022F0
:1015530090047012057490046DEBF0A3EAF0A3E914
:01156300F097
:10156400900004120666C003C002C00190046DE03E
:10157400FBA3E0FAA3E0F91201E4FDACF0D001D042
:1015840002D003124F9FEF60012290046DE0FBA391
:10159400E0FAA3E0F990000212011230E7037F0899
:1015A4002290000B12044C900470E0F8A3E0F9A31D
:1015B400E0FAA3E0FBD31203F5402090046DE0FBB6
:1015C400A3E0FAA3E0F990000212011220E10C90CA
:1015D400000B12044C90047012057490046DE0FB2F
:1015E400A3E0FAA3E0F990000712044C90047C12E3
:1015F40005749000071205B1000000009000037408
:10160400FF120184E4FFFEFDFC900470E0F8A3E007
:10161400F9A3E0FAA3E0FBD31203F55003021A0680
:1016240090046DE0FBA3E0FAA3E0F9900004120635
:101634006690002B120112FF7E007C027D001206D0
:10164400EF900478120574E4FFFEFDFC90047CE046
:10165400F8A3E0F9A3E0FAA3E0FBD31203F55003E7
:1016640002178190047CE0FCA3E0FDA3E0FEA3E06C
:1016740024FFFFEE34FFFEED34FFFDEC34FFFC905D
:101684000478E0F8A3E0F9A3E0FAA3E0FB12035620
:10169400C004C005C006C007900470E0FCA3E0FDD0
:1016A400A3E0FEA3E024FFFFEE34FFFEED34FFFDD4
:1016B400EC34FFFC900478E0F8A3E0F9A3E0FAA38B
:1016C400E0FB120356A804A905AA06AB07D007D06D
:1016D40006D005D004C31203F55003021781900409
:1016E40078E0FCA3E0FDA3E0FEA3E024FFFFEE34DA
:1016F400FFFEED34FFFDEC34FFFC1203E8A804A95F
:1017040005AA06AB07A3E0FCA3E0FDA3E0FEA3E06B
:1017140024FFFFEE34FFFEED34FFFDEC34FFFCEF5D
:101724005BFFEE5AFEED59FDEC58FC90046DE0FBB6
:10173400A3E0FAA3E0F9900007120496900470E085
:10174400FCA3E0FDA3E0FEA3E0FF9000071204DA8F
:10175400C3EF9BFFEE9AFEED99FDEC98FC900470AC
:1017640012057490046DE0FBA3E0FAA3E0F9900085
:101774001312044C90047412057402181990046D29
:10178400E0FBA3E0FAA3E0F990000F12044C9004EC
:1017940074120574E4FFFEFDFC900474E0F8A3E009
:1017A400F9A3E0FAA3E0FBC31203F57049FFFEFDC1
:1017B400FC12292F900474120574E47F01FEFDFCD1
:1017C400900474E0F8A3E0F9A3E0FAA3E0FBC312E9
:1017D40003F57003021A4C900474E0FCA3E0FDA32B
:1017E400E0FEA3E0FF90046DE0FBA3E0FAA3E0F9C0
:1017F40090000F120496900474E0FCA3E0FDA3E0B3
:10180400FEA3E0FF90046DE0FBA3E0FAA3E0F990EF
:101814000013120496E4FFFEFDFC900474E0F8A3A8
:10182400E0F9A3E0FAA3E0FBC31203F57003021A84
:1018340006900478E0FCA3E0FDA3E0FEA3E0FF90A3
:101844000470E0F8A3E0F9A3E0FAA3E0FBD31203E9
:10185400F5500302198A90046DE0FBA3E0FAA3E0BB
:10186400F990000212011230E147900474E0FCA3E5
:10187400E0FDA3E0FEA3E0FF12292F9004741205FB
:1018840074E4FFFEFDFC900474E0F8A3E0F9A3E027
:10189400FAA3E0FBC31203F57023900478E0FCA3E1
:1018A400E0FDA3E0FEA3E0FF9004701205740219AA
:1018B4008A9004741232F1900474120574E47F0265
:1018C400FEFDFC900474E0F8A3E0F9A3E0FAA3E0C1
:1018D400FBC31203F55003021A4C90046DE0FBA302
:1018E400E0FAA3E0F99000041206669000181204CE
:1018F4004C900474E0F8A3E0F9A3E0FAA3E0FBC37E
:101904001203F54003021A4C900474E0FCA3E0FDBA
:10191400A3E0FEA3E0FF90046DE0FBA3E0FAA3E0E4
:10192400F9900013120496E92407F9E43AFAC00284
:10193400C00112042C900478E0F8A3E0F9A3E0FAC3
:10194400A3E02FFFEA3EFEE93DFDE83CFCD001D0D8
:101954000212047C900470E0FCA3E0FDA3E0FEA36B
:10196400E0FF900478E0F8A3E0F9A3E0FAA3E0FB39
:10197400C3EF9BFFEE9AFEED99FDEC98FC9004708A
:1019840012057402183590046DE0FBA3E0FAA3E09D
:101994002407F9E43AFAC002C00112042C9004703E
:1019A400E0F8A3E0F9A3E0FAA3E02FFFEA3EFEE9A2
:1019B4003DFDE83CFCD001D00212047CE4FB7A0239
:1019C400F9F8900470E0FCA3E0FDA3E0FEA3E0FFBF
:1019D40012035690046DE0FBA3E0FAA3E0F9900033
:1019E40003EF120184900470A3A3E0FEA3E0FFEED2
:1019F4005401FEE4FDFCEE4F6008900003740112F4
:101A0400013F90046DE0FBA3E0FAA3E0F990000B22
:101A140012044C9000071204DAD31203F540269006
:101A2400046DE0FBA3E0FAA3E0F990000712044C74
:101A340090000B120496E92402F9E43AFA1200F930
:101A440044201201727F002290046DE0FBA3E0FAAF
:101A5400A3E02402F9E43AFA1200F9448012017274
:021A64007F08F9
:011A6600225D
:0B443E00900457EBF0A3EAF0A3E9F0B4
:104449007B017A04795AE4FD120FE890045DEFF0DC
:1044590060030245537B019002B304F0A37404F096
:10446900A37461F090045AE0F9A3E0FAA3E0900282
:10447900B6C9F0A3EAF0A3E9F0A3EBF0A37404F042
:10448900A3745EF0900457E0FBA3E0FAA3E0F912ED
:104499002BE690045DEFF06003024553A3E0FBA314
:1044A900E0FAA3E0F9EA494B607990000B12011296
:1044B90030E46A90001412020FFFAEF0E4FCFD78BC
:1044C90010120419C004C005C006C00790001A12D2
:1044D900020FFFD003D002D001D000EB4FFFEA4515
:1044E900F0FEE9FDE8FC900457E0FBA3E0FAA3E045
:1044F900F990000B12049690000B12044C12489686
:10450900900457E0FBA3E0FAA3E0F990000F12042E
:1045190096900002E475F00212029E800690045DF6
:104529007402F0900457E0FBA3E0FAA3E0F99000CD
:10453900041206661201E4FF900457E0FBA3E0FAB7
:0F454900A3E0F9E5F08FF012027F90045DE0FF30
:014558002240
:0B43150090048AEBF0A3EAF0A3E9F0AB
:10432000900004120666C003C002C00190048AE037
:10433000FBA3E0FAA3E0F91201E4FDACF0D001D058
:1043400002D003124F9FEF60012290048DE0FBA387
:10435000E0FAA3E0F9900009E412018490048AE0F5
:10436000FBA3E0FAA3E0F990000F12044CEC4D4ED1
:104370004F700302443B90000F12044C123540EF83
:1043800070037F082290048AE0FBA3E0FAA3E0F91F
:10439000900004120666E9242EF9E43AFAC003C03C
:1043A00002C00190048AE0FBA3E0FAA3E0F99000C8
:1043B0000212020F7E00540F7805C333CE33CED8DD
:1043C000F9D001D002D00329F9EA3EFA900490EB2B
:1043D000F0A3EAF0A3E9F01200F9FF605EEF64E5F4
:1043E0006025900490E0FBA3E0FAA3E0F990000BB5
:1043F00012011220E311900483EBF0A3EAF0A3E989
:10440000F090048D1238B790048A123EF5EF7015C3
:1044100090048AE0FBA3E0FAA3E0F990000F1205F4
:10442000B10000000090048DE0FBA3E0FAA3E0F9E6
:0D443000900009120112700302435C7F002E
:01443D00225C
:0B4C9F009003C2EBF0A3EAF0A3E9F0E1
:104CAA007B017A0379C2E4FD120FE89003C8EFF0A2
:104CBA0070667B019002B304F0A37403F0A374DF5F
:104CCA00F09003C2E0F9A3E0FAA3E09002B6C9F0BB
:104CDA00A3EAF0A3E9F0A3EBF0A37403F0A374DC56
:104CEA00F07A0379C9122BE69003C8EFF070299085
:104CFA0003DCE0FBA3E0FAA3E0F9EA494B60139076
:104D0A000483EBF0A3EAF0A3E9F09003C51238B7E5
:0D4D1A0080069003C87404F09003C8E0FF09
:014D27002269
:0B3A6300900493EBF0A3EAF0A3E9F05D
:103A6E00900004120666C003C002C001900493E0E9
:103A7E00FBA3E0FAA3E0F91201E4FDACF0D001D013
:103A8E0002D003124F9FEF600122900493E0FBA33C
:103A9E00E0FAA3E0F9900002120112FE30E7037F74
:103AAE000822EE20E1037F062290000712044C90BC
:103ABE00000B1204DAD31203F55003023BD9900423
:103ACE0093E0FBA3E0FAA3E0F990000712044C90F8
:103ADE00000B120496E92402F9E43AFA1200F944B2
:103AEE0020120172900493E0FBA3E0FAA3E0F99098
:103AFE00000712044CE4FBFAF9F8C31203F5703216
:103B0E00900493E0FBA3E0FAA3E0F990000F1204F7
:103B1E004C124674EF7003023BDC900493E0FBA35F
:103B2E00E0FAA3E0F990000F1205B10000000002C8
:103B3E003BD9900493E0FBA3E0FAA3E0F9900013C5
:103B4E0012044C1232FC900496120574E47F02FEAD
:103B5E00FDFC900496E0F8A3E0F9A3E0FAA3E0FBE5
:103B6E00C31203F54068900493E0FBA3E0FAA3E0D0
:103B7E00F990000412066690001812044C900496F8
:103B8E00E0F8A3E0F9A3E0FAA3E0FBC31203F550BB
:103B9E003A900493E0FBA3E0FAA3E0F9900013122D
:103BAE00044CC004C005C006C0079002DD1205809B
:103BBE000FFFFFFFD007D006D005D004122681EFED
:103BCE00600C900496124669EF60037F0022900409
:103BDE0093E0FBA3E0FAA3E02402F9E43AFA120020
:083BEE00F944801201727F0806
:013BF60022AC
:0B2E460090043AEBF0A3EAF0A3E9F0DF
:102E51007B017A04793AE4FD120FE8EF60012290D8
:102E6100049CE0FBA3E0FAA3E0F9900443EBF0A398
:102E7100EAF0A3E9F0C003C002C001900440E0FB06
:102E8100A3E0FAA3E0F9120617900443E0FBA3E0E4
:102E9100FAA3E0F990001812044CEF24FEFFEE347F
:102EA100FFFEED34FFFDEC34FFFC9000201204DA4C
:102EB100D31203F55014900443E0FBA3E0FAA3E01E
:102EC100F990002012044C02309D900443E0FBA3D2
:102ED100E0FAA3E0F990002A120112FF900452F0E7
:102EE100FB90044612058000000000EB6401706B4A
:102EF10090044E1205800000000290044E1232F13F
:102F0100EF4E701F900446E0FCA3E0FDA3E0FEA39A
:102F1100E02401FFE43EFEE43DFDE43CFC90044678
:102F2100120574900443E0FBA3E0FAA3E0F99000DA
:102F31001812044CC004C005C006C00790044E120C
:102F4100053FA804A905AA06AB07D007D006D005FE
:102F5100D004C31203F540A2023061900443E0FBA8
:102F6100A3E0FAA3E0F990001812044C90044E1269
:102F7100057490000812044C90044A120574E49000
:102F81000453F0F9A3C9F0A3F0A3E9F0900453E0CE
:102F9100702A90044A12050A123540EF70037F0827
:102FA10022900443E0FBA3E0FAA3E0242EF9E43AE3
:102FB100FA900454EBF0A3EAF0A3E9F0900452E094
:102FC100B40243900454E0FBA3E0FAA3E0F9120138
:102FD100E445F0701F900446E0FCA3E0FDA3E0FE91
:102FE100A3E02401FFE43EFEE43DFDE43CFC90044B
:102FF10046120574900455E475F0021201B890046C
:1030010053E004F08049900454E0FBA3E0FAA3E00C
:10301100F912042CE4FBFAF9F8C31203F5701F90BE
:103021000446E0FCA3E0FDA3E0FEA3E02401FFE4ED
:103031003EFEE43DFDE43CFC900446120574900420
:1030410055E475F0041201B8900453E02402F090A5
:10305100044E74FF120541EC4D4E4F6003022F8D5B
:10306100900446E0FCA3E0FDA3E0FEA3E0FF900492
:1030710043E0FBA3E0FAA3E0F9900020120496904C
:103081000452E0B4030890002874011201849004F2
:1030910046E0FCA3E0FDA3E0FEA3E0FF90043DE0D9
:0C30A100FBA3E0FAA3E0F912047C7F001E
:0130AD002200
:0B36F600900395EBF0A3EAF0A3E9F0CD
:103701007A037995120FE4EF6001229002B37401FC
:10371100F0A37403F0A374B2F0900395E0F9A3E071
:10372100FAA3E09002B6C9F0A3EAF0A3E9F0A3740A
:1037310001F0A37403F0A374ABF07B017A037998D1
:10374100122BE6EF6001229003ABE0FBA3E0FAA3AA
:10375100E0F9EA494B70037F04229003ABE0FBA33D
:10376100E0FAA3E0F990000B12011230E0037F06AA
:103771002290039CE0FBA3E0FAA3E0F9900004127D
:10378100044C9003AE1205749003ABE0FBA3E0FA86
:10379100A3E0F990001412020FFFAEF0E4FCFD78F3
:1037A10010120419C004C005C006C00790001A1207
:1037B100020FFFD003D002D001D000EB4FFFEA454A
:1037C100F0FEE9FDE8FC9003BE1205749003ABE046
:1037D100FBA3E0FAA3E0F990000B12011220E4032D
:1037E10002386D9003BEE0FCA3E0FDA3E0FEA3E080
:1037F100FF9003A31205749003BE12488B9003A798
:1038010012057490039AE4F0A37402F09003A7E008
:10381100FCA3E0FDA3E0FEA3E0FF123540EF70033F
:103821007F082290039CE0FBA3E0FAA3E0242EF999
:10383100E43AFA7E0090039BE0540F7805C333CE3F
:1038410033CED8F929F9EA3EFA1200F9FF601DEFEB
:1038510064E5600C90000B12011220E3037F062245
:103861007B017A037998123EFDEF70A09003AEE0E0
:10387100FCA3E0FDA3E0FEA3E0FF123540EF7003DF
:103881007F08229003ABE0FBA3E0FAA3E0F974E523
:1038910012017290039CE0FBA3E0FAA3E0F990000F
:1038A1002D74011201849003BE124669EF70037FEB
:0538B100082212455938
:0138B60022EF
:0B230800900358EBF0A3EAF0A3E9F00B
:102313007A037958120FE4EF6001229002B374013B
:10232300F0A37403F0A37475F0900358E0F9A3E0ED
:10233300FAA3E09002B6C9F0A3EAF0A3E9F0A3740C
:1023430001F0A37403F0A3746EF07B017A03795B4D
:10235300122BE6EF70037F0722EF640260012290E5
:1023630002B37401F0A37403F0A3746EF07B017ADB
:1023730003795B1230AEEF60012290035FE0FBA3B1
:10238300E0FAA3E0F990000412044C9003811205D3
:10239300747F007E007D007C0012292F90038D1234
:1023A3000574E47F01FEFDFC90038DE0F8A3E0F9E2
:1023B300A3E0FAA3E0FBC31203F570037F082290A6
:1023C300038D12488B900385120574900385E0FCFE
:1023D300A3E0FDA3E0FEA3E0FFEC4D4E4F70037FAF
:1023E3000622900385E0FCA3E0FDA3E0FEA3E0FF4B
:1023F300123540EF70037F082290035FE0FBA3E0F8
:10240300FAA3E0242EF9E43AFA900371EBF0A3EA7D
:10241300F0A3E9F07E027F007D001208C6900374EA
:102423007401F090035FE0FBA3E0FAA3E0F99000EE
:102433002B120112FF900374E0C39F50309003717D
:10244300E0FBA3E0FAA3E0F990038512053F9002B5
:10245300FD1205749003017401F0E4FF124F10EFB5
:1024630060037F0822900374E004F080B67E007F4F
:102473000B7D20900371E0FBA3E0FAA3E0F91208BF
:10248300C6900371E0FBA3E0FAA3E0F9742E1201F6
:1024930072900371E0FBA3E0FAA3E0F990000B74E0
:1024A30010120184120000900389120574900389AD
:1024B300E0FCA3E0FDA3E0FEA3E0FF900371E0FBDB
:1024C300A3E0FAA3E0F9900016120496900371E0DA
:1024D300FBA3E0FAA3E02420F9E43AA801FCAD034E
:1024E300900371A3A3E0F97E007F201200D3900331
:1024F30071E0FBA3E0FAA3E0F9900021742E12012E
:1025030084900362E0FCA3E0FDA3E0FEA3E0FF9060
:10251300039112057490038DE0FCA3E0FDA3E0FE9C
:10252300A3E0FF7810120406900014EE8FF012025D
:102533009E90035FE0FBA3E0FAA3E0F990002A1268
:102543000112B4032490000C12044C900391E0F8A0
:10255300A3E0F9A3E0FAA3E0FBC31203F5700A902A
:10256300039112058000000000900391E0FCA3E0BA
:10257300FDA3E0FEA3E0FF7810120406900371E0D0
:10258300FBA3E0FAA3E0F9900034EE8FF012029E71
:1025930090038DA3A3E0FFA3E090001ACF8FF01266
:1025A300029E900391A3A3E0FFA3E090003ACF8F94
:1025B300F012029E90035FE0FBA3E0FAA3E0F99020
:1025C300002D7401120184900381E0FCA3E0FDA3BC
:1025D300E0FEA3E0FF123540EF70037F08227E0088
:1025E3007F207D0090036EE0FBA3E0FAA3E0F912E5
:1025F30008C690036EE0FBA3E0FAA3E0F8AC02ADDB
:10260300037B017A0379757E007F0B1200D390035D
:1026130080E0FF90036EE0FBA3E0FAA3E0F99000F3
:102623000CEF12018490000B741012018490038943
:10263300E0FCA3E0FDA3E0FEA3E0FF90001612047C
:102643009690038DA3A3E0FFA3E090001ACF8FF031
:1026530012029E90038DE0FCA3E0FDA3E0FEA3E045
:10266300FF7810120406900014EE8FF012029E12EF
:022673004559C7
:012675002242
:0E4B7600900413EBF0A3EAF0A3E9F0A3EDF036
:104B84007B017A0479137D01120FE8EF6003024C74
:104B9400127B019002B304F0A37404F0A3742EF00A
:104BA400900413E0F9A3E0FAA3E09002B6C9F0A3DD
:104BB400EAF0A3E9F0A3EBF0A37404F0A3742BF0E0
:104BC4007A047918122BE6EF704490042BE0FBA3CF
:104BD400E0FAA3E0F9EA494B70047F0480309004C2
:104BE40017E05427F090042BE0FBA3E0FAA3E0F9CC
:104BF40090000B120112FF900417E0FEF45FFF9087
:0E4C04000416E05E4F90000B12018412455919
:014C1200227F
:0B4A13009003EBEBF0A3EAF0A3E9F046
:104A1E007B017A0379EB7D01120FE8EF6003024A06
:104A2E00CD7B019002B304F0A37404F0A37407F0DD
:104A3E009003EBE0F9A3E0FAA3E09002B6C9F0A36D
:104A4E00EAF0A3E9F0A3EBF0A37404F0A37404F06E
:104A5E007A0379F1122BE6EF7065900404E0FBA364
:104A6E00E0FAA3E0F9EA494B70047F048051900309
:104A7E00EEE0FBA3E0FAA3E0F990000612020FFFAE
:104A8E00900404E0FBA3E0FAA3E0F9900016E5F031
:104A9E008FF012029E9003EEE0FBA3E0FAA3E0F982
:104AAE0090000412020FFF900404E0FBA3E0FAA3AF
:0F4ABE00E0F9900018E5F08FF012029E124559B2
:014ACD0022C6
:0B3D7700900314EBF0A3EAF0A3E9F0C6
:103D82007B017A0379147D01120FE8EF6001229022
:103D920002B37401F0A37403F0A3744CF090031403
:103DA200E0F9A3E0FAA3E09002B6C9F0A3EAF0A317
:103DB200E9F0A37401F0A37403F0741E122BDEEF7A
:103DC20060012290031EE0FBA3E0FAA3E0F9EA49B6
:103DD2004B70037F022290033DE0FBA3E0FAA3E0D5
:103DE200F990000412044C90031A12057490031EF9
:103DF200E0FBA3E0FAA3E0240BF9E43AFA78247C8E
:103E0200037D017E007F151200D39002B37401F08E
:103E1200A37403F0A3744CF0900317E0F9A3E0FA43
:103E2200A3E09002B6C9F0A3EAF0A3E9F0A37401FB
:103E3200F0A37403F07421122BDEEF70037F0722CC
:103E4200EF64026001229002B37401F0A37403F0E4
:103E5200A37421F07B017A0379391230AEEF60014D
:103E620022900321E0FBA3E0FAA3E0240BF9E43A59
:103E7200A801FCAD037B017A0379247E007F151231
:103E820000D3900321E0FBA3E0FAA3E0F8AC02AD7B
:103E9200037B017A03794C7E007F0B1200D39003DF
:103EA20057E0FF900321E0FBA3E0FAA3E0F99000C2
:103EB2000CEF12018490033DE0FBA3E0FAA3E0F9CA
:103EC20090002D740112018490031AE0FCA3E0FD1E
:103ED200A3E0FEA3E0FF123540EF70037F082290BB
:103EE200031EE0FBA3E0FAA3E0F974E512017212EB
:023EF200455930
:013EF40022AB
:03000000024C139C
:0C4C1300787FE4F6D8FD758109024C5A48
:10000300E709F608DFFA8046E709F208DFFA803EDF
:1000130088828C83E709F0A3DFFA8032E309F608CC
:10002300DFFA8078E309F208DFFA807088828C8334
:10003300E309F0A3DFFA806489828A83E0A3F608E8
:10004300DFFA805889828A83E0A3F208DFFA804CC2
:1000530080D280FA80C680D4806980F28033801099
:1000630080A680EA809A80A880DA80E280CA803302
:1000730089828A83ECFAE493A3C8C582C8CCC5837A
:10008300CCF0A3C8C582C8CCC583CCDFE9DEE7804A
:100093000D89828A83E493A3F608DFF9ECFAA9F0C9
:1000A300EDFB2289828A83ECFAE0A3C8C582C8CC1F
:1000B300C583CCF0A3C8C582C8CCC583CCDFEADE38
:1000C300E880DB89828A83E493A3F208DFF980CC9A
:1000D30088F0EF60010E4E60C388F0ED2402B40493
:1000E3000050B9F582EB2402B4040050AF2323453A
:0600F3008223900053730C
:1000F900BB010689828A83E0225002E722BBFE0205
:09010900E32289828A83E4932237
:10011200BB010CE58229F582E5833AF583E02250A2
:1001220006E92582F8E622BBFE06E92582F8E222EC
:0D013200E58229F582E5833AF583E4932206
:10013F00BB010FF8E58229F582E5833AF583E028C4
:10014F00F0225009C58229F8E58226F622BBFE0966
:10015F00C58229F8E22582F222F8EA2583F583E9A0
:03016F00932822B0
:10017200BB010689828A83F0225002F722BBFE016C
:02018200F32266
:10018400F8BB010DE58229F582E5833AF583E8F0B1
:10019400225006E92582C8F622BBFE05E92582C85D
:0201A400F22245
:1001A600EF8DF0A4A8F0CF8CF0A428CE8DF0A42E6D
:0201B600FE2227
:1001B800C5F0F8A3E028F0C5F0F8E58215827002D2
:0601C8001583E038F0226F
:1001CE00A3F8E0C5F025F0F0E582158270021583E4
:0601DE00E0C838F0E82241
:1001E400BB010A89828A83E0F5F0A3E022500687E6
:1001F400F009E71922BBFE07E3F5F009E3192289A8
:0B020400828A83E493F5F074019322DA
:10020F00BB0110E58229F582E5833AF583E0F5F02D
:10021F00A3E0225009E92582F886F008E622BBFE0A
:10022F000AE92582F8E2F5F008E222E5832AF58350
:08023F00E993F5F0A3E9932215
:10024700BB010789828A830201B8500B09C5F027D1
:10025700F7C5F01937F722BBFE0D09F8E325F0F3D0
:10026700C5F019E338F322F889828A83740193254C
:08027700F0C5F0F8E493382211
:10027F00BB010A89828A83F0E5F0A3F0225006F7CA
:0F028F0009A7F01922BBFE06F3E5F009F31922C7
:10029E00F8BB0111E58229F582E5833AF583E8F092
:1002AE00E5F0A3F0225009E92582C8F608A6F0224F
:0D02BE00BBFE09E92582C8F2E5F008F22236
:1002CB00E88FF0A4CC8BF0A42CFCE98EF0A42CFCD2
:1002DB008AF0EDA42CFCEA8EF0A4CDA8F08BF0A450
:1002EB002DCC3825F0FDE98FF0A42CCD35F0FCEBAF
:1002FB008EF0A4FEA9F0EB8FF0A4CFC5F02ECD3974
:0F030B00FEE43CFCEAA42DCE35F0FDE43CFC22E0
:10031A0075F008758200EF2FFFEE33FECD33CDCC9A
:10032A0033CCC58233C5829BED9AEC99E58298401D
:10033A000CF582EE9BFEED9AFDEC99FC0FD5F0D6FA
:10034A00E4CEFBE4CDFAE4CCF9A88222B800C1B924
:10035A000059BA002DEC8BF084CFCECDFCE5F0CB62
:10036A00F97818EF2FFFEE33FEED33FDEC33FCEB9B
:10037A0033FB10D703994004EB99FB0FD8E5E4F956
:10038A00FA227818EF2FFFEE33FEED33FDEC33FC43
:10039A00C933C910D7059BE99A4007EC9BFCE99A37
:1003AA00F90FD8E0E4C9FAE4CCFB2275F010EF2F7C
:1003BA00FFEE33FEED33FDCC33CCC833C810D7077C
:1003CA009BEC9AE899400AED9BFDEC9AFCE899F8B7
:0E03DA000FD5F0DAE4CDFBE4CCFAE4C8F9224A
:104E9700C2D5E830E70FB2D5E4C39BFBE49AFAE446
:104EA70099F9E498F8EC30E717B2D5124ECD120312
:104EB70056E4C39BFBE49AFAE499F9E498F8800373
:104EC70012035630D50DE4C39FFFE49EFEE49DFD1B
:044ED700E49CFC2239
:0D03E800CFF4CFCEF4CECDF4CDCCF4CC22AA
:1003F500EB9FF5F0EA9E42F0E99D42F0E89C45F05E
:0104050022D4
:10040600E8600FECC313FCED13FDEE13FEEF13FFD4
:03041600D8F122F8
:10041900E8600FEFC333FFEE33FEED33FDEC33FC41
:03042900D8F122E5
:10042C00BB010789828A830208FE5005E9F802089D
:10043C00F2BBFE05E9F802090A89828A83020916D1
:10044C00BB010DE58229F582E5833AF5830208FEAE
:10045C005007E92582F80208F2BBFE07E92582F86D
:10046C0002090AE58229F582E5833AF58302091629
:10047C00BB010789828A830205745005E9F80209D9
:0A048C005CBBFE05E9F802096822D6
:10049600BB010DE58229F582E5833AF583020574F1
:1004A6005007E92582F802095CBBFE07E92582F8B8
:0404B60002096822AD
:1004BA00BB010789828A830209335005E9F80209D8
:1004CA0026BBFE05E9F802093F89828A8302094CA4
:1004DA00BB010DE58229F582E5833AF583020933EA
:1004EA005007E92582F8020926BBFE07E92582F8AA
:1004FA0002093FE58229F582E5833AF58302094C30
:10050A007401FF3395E0FEFDFCA3A3A3E0CF2FF017
:10051A00E582158270021583E0CE3EF0E5821582EF
:10052A0070021583E0CD3DF0E582158270021583D5
:05053A00E0CC3CF022C2
:10053F007401FF3395E0FEFDFCA3A3A3E02FFFF0B2
:10054F00E582158270021583E03EFEF0E58215828A
:10055F0070021583E03DFDF0E58215827002158370
:05056F00E03CFCF0225D
:0C057400ECF0A3EDF0A3EEF0A3EFF022FA
:10058000A8828583F0D083D0821205971205971236
:100590000597120597E473E493A3C583C5F0C5835B
:1005A000C8C582C8F0A3C583C5F0C583C8C582C8C5
:0105B0002228
:1005B100BB010DE58229F582E5833AF583020580C9
:1005C1005007E92582F8020974BBFE07E92582F884
:0405D10002098D226C
:1005D500BB010789828A830209C85005E9F8020927
:1005E500A6BBFE05E9F80209F189828A83020A138E
:1005F500BB010789828A830209D15006C9F8C9025D
:1006050009AFBBFE06C9F8C90209FA89828A8302C5
:020615000A13C6
:10061700BB011A89828A83D0F0D0E0F8D0E0F9D004
:10062700E0FAD0E0FBE8C0E0C0F00209E85016E9C4
:10063700F8D083D082D0E0F9D0E0FAD0E0FBC082D6
:10064700C0830209BFBBFE16E9F8D083D082D0E091
:0F065700F9D0E0FAD0E0FBC082C083020A0A2289
:10066600BB010DE58229F582E5833AF5830209C8C7
:100676005007E92582F80209A6BBFE07E92582F89C
:100686000209F1E58229F582E5833AF583020A1328
:10069600BB0120E58229F582E5833AF583D0F0D0C7
:1006A600E0F8D0E0F9D0E0FAD0E0FBE8C0E0C0F036
:1006B6000209E85018E92582F8D083D082D0E0F903
:1006C600D0E0FAD0E0FBC082C0830209BFBBFE18AF
:1006D600E92582F8D083D082D0E0F9D0E0FAD0E0E4
:0906E600FBC082C083020A0A2253
:1006EF00EC8EF0A4CCC5F0CCCDF8EFA4CEC5F02D98
:1006FF00FDE43CFCE8A42EC8C5F03DFDE43CFCEF56
:0D070F00A4FFE5F028FEE43DFDE43CFC22E3
:10071C00E3F5F009E208B5F06BDFF58067E3F5F07F
:10072C0009E608B5F05EDFF5805A87F009E608B5F2
:10073C00F052DFF6804E87F009E208B5F046DFF69E
:10074C00804288828C8387F009E0A3B5F036DFF60F
:10075C00803288828C8387F009E493A3B5F025DF7F
:10076C00F5802188828C83E3F5F009E0A3B5F014C1
:10077C00DFF5801088828C83E3F5F009E493A3B550
:10078C00F002DFF402084B808780E9809080D480EF
:10079C003E8015806E807E809D80B7808D80A3808A
:1007AC00518074803C02085789828A83ECFAE49366
:1007BC00F5F0A3C8C582C8CCC583CCE493A3C8C547
:1007CC0082C8CCC583CCB5F076DFE3DEE1807089DE
:1007DC00828A83E493F5F0A3E208B5F062DFF4803B
:1007EC005E89828A83E0F5F0A3E608B5F051DFF567
:1007FC00804D89828A83E0F5F0A3E208B5F040DFF2
:10080C00F5803C89828A83E493F5F0A3E608B5F081
:10081C002EDFF4802A8002805789828A83ECFAE4E6
:10082C0093F5F0A3C8C582C8CCC583CCE0A3C8C5DA
:10083C0082C8CCC583CCB5F006DFE4DEE280007F55
:10084C00FFB5F0020F2240027F012289828A83ECDD
:10085C00FAE0F5F0A3C8C582C8CCC583CCE0A3C828
:10086C00C582C8CCC583CCB5F0D5DFE5DEE380CF3F
:10087C0089828A83ECFAE0F5F0A3C8C582C8CCC59E
:10088C0083CCE493A3C8C582C8CCC583CCB5F0AFE8
:10089C00DFE4DEE280A988F0EF60010E4E60ABED84
:1008AC002402B404005098F582EB2402B4040050E6
:0A08BC008E232345822390079373D7
:1008C600EF4E6012EF60010EEDBB010B89828A8349
:1008D600F0A3DFFCDEFA2289F05007F709DFFCA956
:0C08E600F022BBFEFCF309DFFCA9F022AD
:104C1F00024774E493A3F8E493A34003F68001F2F0
:104C2F0008DFF48029E493A3F85407240CC8C33396
:104C3F00C4540F4420C8834004F456800146F6DF65
:104C4F00E4800B01020408102040809050E6E47EBF
:104C5F00019360BCA3FF543F30E509541FFEE4935A
:104C6F00A360010ECF54C025E060A840B8E493A321
:104C7F00FAE493A3F8E493A3C8C582C8CAC583CA4C
:104C8F00F0A3C8C582C8CAC583CADFE9DEE780BE04
:0150EA0000C5
:0C08F200E6FC08E6FD08E6FE08E6FF2232
:0C08FE00E0FCA3E0FDA3E0FEA3E0FF226D
:0C090A00E2FC08E2FD08E2FE08E2FF2229
:10091600E493FC740193FD740293FE740393FF2227
:0D092600E6FB08E6F908E6FA08E6CBF82241
:0C093300E0F8A3E0F9A3E0FAA3E0FB2247
:0D093F00E2FB08E2F908E2FA08E2CBF82238
:10094C00E493F8740193F9740293FA740393FB2201
:0C095C00ECF608EDF608EEF608EFF622C7
:0C096800ECF208EDF208EEF208EFF222CB
:10097400D083D082E493F608740193F6087402934A
:09098400F608740393F674047381
:10098D00D083D082E493F208740193F20874029339
:09099D00F208740393F274047370
:0909A600E6FB08E6FA08E6F92276
:1009AF00FAE6FB0808E6F925F0F618E6CA3AF62249
:0909BF00EBF608EAF608E9F6225D
:0909C800E0FBA3E0FAA3E0F92230
:1009D100F8E0FBA3A3E0F925F0F0E58215827002AF
:0709E1001583E0FA38F02253
:0909E800EBF0A3EAF0A3E9F02210
:0909F100E2FB08E2FA08E2F92237
:1009FA00FAE2FB0808E2F925F0F218E2CA3AF22212
:090A0A00EBF208EAF208E9F2221D
:0C0A1300E493FB740193FA740293F9223F
:00000001FF
